{
  "address": "0xDc64a140Aa3E981100a9becA4E685f962f0cF6C9",
  "abi": [
    {
      "inputs": [
        {
          "internalType": "address",
          "name": "vrfCoordinatorV2",
          "type": "address"
        },
        {
          "internalType": "uint64",
          "name": "subscriptionId",
          "type": "uint64"
        },
        {
          "internalType": "bytes32",
          "name": "gasLane",
          "type": "bytes32"
        },
        {
          "internalType": "uint32",
          "name": "callbackGasLimit",
          "type": "uint32"
        },
        {
          "internalType": "string[5]",
          "name": "_s_LootTokenUris",
          "type": "string[5]"
        }
      ],
      "stateMutability": "nonpayable",
      "type": "constructor"
    },
    {
      "inputs": [],
      "name": "CoCLootNft__AlreadyInitialized",
      "type": "error"
    },
    {
      "inputs": [],
      "name": "CoCLootNft__RangeOutOfBounds",
      "type": "error"
    },
    {
      "inputs": [
        {
          "internalType": "address",
          "name": "have",
          "type": "address"
        },
        {
          "internalType": "address",
          "name": "want",
          "type": "address"
        }
      ],
      "name": "OnlyCoordinatorCanFulfill",
      "type": "error"
    },
    {
      "anonymous": false,
      "inputs": [
        {
          "indexed": true,
          "internalType": "string[]",
          "name": "tokenUris",
          "type": "string[]"
        },
        {
          "indexed": true,
          "internalType": "address",
          "name": "player",
          "type": "address"
        }
      ],
      "name": "AllTokenUrisbyAddress",
      "type": "event"
    },
    {
      "anonymous": false,
      "inputs": [
        {
          "indexed": true,
          "internalType": "address",
          "name": "owner",
          "type": "address"
        },
        {
          "indexed": true,
          "internalType": "address",
          "name": "approved",
          "type": "address"
        },
        {
          "indexed": true,
          "internalType": "uint256",
          "name": "tokenId",
          "type": "uint256"
        }
      ],
      "name": "Approval",
      "type": "event"
    },
    {
      "anonymous": false,
      "inputs": [
        {
          "indexed": true,
          "internalType": "address",
          "name": "owner",
          "type": "address"
        },
        {
          "indexed": true,
          "internalType": "address",
          "name": "operator",
          "type": "address"
        },
        {
          "indexed": false,
          "internalType": "bool",
          "name": "approved",
          "type": "bool"
        }
      ],
      "name": "ApprovalForAll",
      "type": "event"
    },
    {
      "anonymous": false,
      "inputs": [
        {
          "indexed": true,
          "internalType": "uint256",
          "name": "tokenId",
          "type": "uint256"
        },
        {
          "indexed": true,
          "internalType": "address",
          "name": "player",
          "type": "address"
        },
        {
          "indexed": true,
          "internalType": "address",
          "name": "nftAddress",
          "type": "address"
        }
      ],
      "name": "LootNftMinted",
      "type": "event"
    },
    {
      "anonymous": false,
      "inputs": [
        {
          "indexed": true,
          "internalType": "address",
          "name": "previousOwner",
          "type": "address"
        },
        {
          "indexed": true,
          "internalType": "address",
          "name": "newOwner",
          "type": "address"
        }
      ],
      "name": "OwnershipTransferred",
      "type": "event"
    },
    {
      "anonymous": false,
      "inputs": [
        {
          "indexed": true,
          "internalType": "address",
          "name": "from",
          "type": "address"
        },
        {
          "indexed": true,
          "internalType": "address",
          "name": "to",
          "type": "address"
        },
        {
          "indexed": true,
          "internalType": "uint256",
          "name": "tokenId",
          "type": "uint256"
        }
      ],
      "name": "Transfer",
      "type": "event"
    },
    {
      "anonymous": false,
      "inputs": [
        {
          "indexed": true,
          "internalType": "uint256",
          "name": "requestId",
          "type": "uint256"
        },
        {
          "indexed": true,
          "internalType": "address",
          "name": "player",
          "type": "address"
        }
      ],
      "name": "lootWheelSpin",
      "type": "event"
    },
    {
      "anonymous": false,
      "inputs": [
        {
          "indexed": true,
          "internalType": "address",
          "name": "player",
          "type": "address"
        }
      ],
      "name": "unSuccesfullSpin",
      "type": "event"
    },
    {
      "inputs": [
        {
          "internalType": "address",
          "name": "_player",
          "type": "address"
        },
        {
          "internalType": "uint256",
          "name": "_randomNumber",
          "type": "uint256"
        }
      ],
      "name": "LootWheelSpinFromGameContract",
      "outputs": [],
      "stateMutability": "nonpayable",
      "type": "function"
    },
    {
      "inputs": [
        {
          "internalType": "address",
          "name": "to",
          "type": "address"
        },
        {
          "internalType": "uint256",
          "name": "tokenId",
          "type": "uint256"
        }
      ],
      "name": "approve",
      "outputs": [],
      "stateMutability": "nonpayable",
      "type": "function"
    },
    {
      "inputs": [
        {
          "internalType": "address",
          "name": "owner",
          "type": "address"
        }
      ],
      "name": "balanceOf",
      "outputs": [
        {
          "internalType": "uint256",
          "name": "",
          "type": "uint256"
        }
      ],
      "stateMutability": "view",
      "type": "function"
    },
    {
      "inputs": [
        {
          "internalType": "uint256",
          "name": "tokenId",
          "type": "uint256"
        }
      ],
      "name": "getApproved",
      "outputs": [
        {
          "internalType": "address",
          "name": "",
          "type": "address"
        }
      ],
      "stateMutability": "view",
      "type": "function"
    },
    {
      "inputs": [
        {
          "internalType": "uint256",
          "name": "index",
          "type": "uint256"
        }
      ],
      "name": "getLootTokenUris",
      "outputs": [
        {
          "internalType": "string",
          "name": "",
          "type": "string"
        }
      ],
      "stateMutability": "view",
      "type": "function"
    },
    {
      "inputs": [
        {
          "internalType": "address",
          "name": "player",
          "type": "address"
        }
      ],
      "name": "getNftsOwnedbyPlayer",
      "outputs": [
        {
          "internalType": "string[]",
          "name": "",
          "type": "string[]"
        }
      ],
      "stateMutability": "view",
      "type": "function"
    },
    {
      "inputs": [
        {
          "internalType": "uint256",
          "name": "requestId",
          "type": "uint256"
        }
      ],
      "name": "getPlayerfroms_requestIdToSender",
      "outputs": [
        {
          "internalType": "address",
          "name": "",
          "type": "address"
        }
      ],
      "stateMutability": "view",
      "type": "function"
    },
    {
      "inputs": [],
      "name": "getTokenCounter",
      "outputs": [
        {
          "internalType": "uint256",
          "name": "",
          "type": "uint256"
        }
      ],
      "stateMutability": "view",
      "type": "function"
    },
    {
      "inputs": [
        {
          "internalType": "address",
          "name": "player",
          "type": "address"
        },
        {
          "internalType": "uint256",
          "name": "tokenId",
          "type": "uint256"
        }
      ],
      "name": "getTokenURIfromPlayerId",
      "outputs": [
        {
          "internalType": "string",
          "name": "",
          "type": "string"
        }
      ],
      "stateMutability": "view",
      "type": "function"
    },
    {
      "inputs": [
        {
          "internalType": "address",
          "name": "owner",
          "type": "address"
        },
        {
          "internalType": "address",
          "name": "operator",
          "type": "address"
        }
      ],
      "name": "isApprovedForAll",
      "outputs": [
        {
          "internalType": "bool",
          "name": "",
          "type": "bool"
        }
      ],
      "stateMutability": "view",
      "type": "function"
    },
    {
      "inputs": [],
      "name": "name",
      "outputs": [
        {
          "internalType": "string",
          "name": "",
          "type": "string"
        }
      ],
      "stateMutability": "view",
      "type": "function"
    },
    {
      "inputs": [],
      "name": "owner",
      "outputs": [
        {
          "internalType": "address",
          "name": "",
          "type": "address"
        }
      ],
      "stateMutability": "view",
      "type": "function"
    },
    {
      "inputs": [
        {
          "internalType": "uint256",
          "name": "tokenId",
          "type": "uint256"
        }
      ],
      "name": "ownerOf",
      "outputs": [
        {
          "internalType": "address",
          "name": "",
          "type": "address"
        }
      ],
      "stateMutability": "view",
      "type": "function"
    },
    {
      "inputs": [
        {
          "internalType": "uint256",
          "name": "requestId",
          "type": "uint256"
        },
        {
          "internalType": "uint256[]",
          "name": "randomWords",
          "type": "uint256[]"
        }
      ],
      "name": "rawFulfillRandomWords",
      "outputs": [],
      "stateMutability": "nonpayable",
      "type": "function"
    },
    {
      "inputs": [],
      "name": "renounceOwnership",
      "outputs": [],
      "stateMutability": "nonpayable",
      "type": "function"
    },
    {
      "inputs": [
        {
          "internalType": "address",
          "name": "",
          "type": "address"
        },
        {
          "internalType": "uint256",
          "name": "",
          "type": "uint256"
        }
      ],
      "name": "s_addressToAllTokenURIs",
      "outputs": [
        {
          "internalType": "string",
          "name": "",
          "type": "string"
        }
      ],
      "stateMutability": "view",
      "type": "function"
    },
    {
      "inputs": [
        {
          "internalType": "address",
          "name": "",
          "type": "address"
        },
        {
          "internalType": "uint256",
          "name": "",
          "type": "uint256"
        }
      ],
      "name": "s_addressToTokenURI",
      "outputs": [
        {
          "internalType": "string",
          "name": "",
          "type": "string"
        }
      ],
      "stateMutability": "view",
      "type": "function"
    },
    {
      "inputs": [
        {
          "internalType": "uint256",
          "name": "",
          "type": "uint256"
        }
      ],
      "name": "s_requestIdToSender",
      "outputs": [
        {
          "internalType": "address",
          "name": "",
          "type": "address"
        }
      ],
      "stateMutability": "view",
      "type": "function"
    },
    {
      "inputs": [
        {
          "internalType": "address",
          "name": "from",
          "type": "address"
        },
        {
          "internalType": "address",
          "name": "to",
          "type": "address"
        },
        {
          "internalType": "uint256",
          "name": "tokenId",
          "type": "uint256"
        }
      ],
      "name": "safeTransferFrom",
      "outputs": [],
      "stateMutability": "nonpayable",
      "type": "function"
    },
    {
      "inputs": [
        {
          "internalType": "address",
          "name": "from",
          "type": "address"
        },
        {
          "internalType": "address",
          "name": "to",
          "type": "address"
        },
        {
          "internalType": "uint256",
          "name": "tokenId",
          "type": "uint256"
        },
        {
          "internalType": "bytes",
          "name": "_data",
          "type": "bytes"
        }
      ],
      "name": "safeTransferFrom",
      "outputs": [],
      "stateMutability": "nonpayable",
      "type": "function"
    },
    {
      "inputs": [
        {
          "internalType": "address",
          "name": "operator",
          "type": "address"
        },
        {
          "internalType": "bool",
          "name": "approved",
          "type": "bool"
        }
      ],
      "name": "setApprovalForAll",
      "outputs": [],
      "stateMutability": "nonpayable",
      "type": "function"
    },
    {
      "inputs": [
        {
          "internalType": "address",
          "name": "_newOwner",
          "type": "address"
        }
      ],
      "name": "setNewOwner",
      "outputs": [],
      "stateMutability": "nonpayable",
      "type": "function"
    },
    {
      "inputs": [
        {
          "internalType": "uint256",
          "name": "_nrgSet",
          "type": "uint256"
        }
      ],
      "name": "setTestNrg",
      "outputs": [],
      "stateMutability": "nonpayable",
      "type": "function"
    },
    {
      "inputs": [
        {
          "internalType": "address",
          "name": "_player",
          "type": "address"
        }
      ],
      "name": "spinWheelRequestNRG",
      "outputs": [
        {
          "internalType": "uint256",
          "name": "requestId",
          "type": "uint256"
        }
      ],
      "stateMutability": "nonpayable",
      "type": "function"
    },
    {
      "inputs": [
        {
          "internalType": "bytes4",
          "name": "interfaceId",
          "type": "bytes4"
        }
      ],
      "name": "supportsInterface",
      "outputs": [
        {
          "internalType": "bool",
          "name": "",
          "type": "bool"
        }
      ],
      "stateMutability": "view",
      "type": "function"
    },
    {
      "inputs": [],
      "name": "symbol",
      "outputs": [
        {
          "internalType": "string",
          "name": "",
          "type": "string"
        }
      ],
      "stateMutability": "view",
      "type": "function"
    },
    {
      "inputs": [
        {
          "internalType": "uint256",
          "name": "tokenId",
          "type": "uint256"
        }
      ],
      "name": "tokenURI",
      "outputs": [
        {
          "internalType": "string",
          "name": "",
          "type": "string"
        }
      ],
      "stateMutability": "view",
      "type": "function"
    },
    {
      "inputs": [
        {
          "internalType": "address",
          "name": "from",
          "type": "address"
        },
        {
          "internalType": "address",
          "name": "to",
          "type": "address"
        },
        {
          "internalType": "uint256",
          "name": "tokenId",
          "type": "uint256"
        }
      ],
      "name": "transferFrom",
      "outputs": [],
      "stateMutability": "nonpayable",
      "type": "function"
    },
    {
      "inputs": [
        {
          "internalType": "address",
          "name": "newOwner",
          "type": "address"
        }
      ],
      "name": "transferOwnership",
      "outputs": [],
      "stateMutability": "nonpayable",
      "type": "function"
    }
  ],
  "transactionHash": "0x27b1efbeaf07676129f21b3c926bdefa75e42899ec8aaf9ac2e6cc9018a1a8f4",
  "args": [
    "0x5FbDB2315678afecb367f032d93F642f64180aa3",
    "1",
    "0x474e34a077df58807dbe9c96d3c009b23b3c6d0cce433e59bbf5b34f823bc56c",
    "500000",
    [
      "ipfs://QmPr1VmmGmrGqKXYFpFPwkCnoxWLpTcUNTWE18oNfjReg8",
      "ipfs://QmUYjPEM8Hv9DMiRv7rgPomQe66jTciEKfdurCwpeq8c32",
      "ipfs://QmPdDVXQMvgvBKbHtf1LaJwLEVF4XCVJtmxhJapnTWpkk1",
      "ipfs://QmSneWpfgzt9iUdgy6RJaAK36ocRfYjXyVUGNSWgJCWEpS",
      "ipfs://QmVrzViE238LzGb61UDZd9tzaY3WBRah1Dn3Myw1bwvAh4"
    ]
  ],
  "numDeployments": 1,
  "solcInputHash": "7593e21cbc57bdd3217cebefa8923977",
  "bytecode": "0x61012060405260006008553480156200001757600080fd5b50604051620050f3380380620050f383398181016040528101906200003d91906200084a565b846040518060400160405280601081526020017f4c6f6f74204e465420466f7220434f43000000000000000000000000000000008152506040518060400160405280600781526020017f436f434c6f6f74000000000000000000000000000000000000000000000000008152508160009080519060200190620000c292919062000318565b508060019080519060200190620000db92919062000318565b5050508073ffffffffffffffffffffffffffffffffffffffff1660808173ffffffffffffffffffffffffffffffffffffffff1660601b8152505050620001366200012a620001d060201b60201c565b620001d860201b60201c565b8473ffffffffffffffffffffffffffffffffffffffff1660a08173ffffffffffffffffffffffffffffffffffffffff1660601b815250508260e081815250508367ffffffffffffffff1660c08167ffffffffffffffff1660c01b815250508163ffffffff166101008163ffffffff1660e01b81525050620001bd816200029e60201b60201c565b6000600981905550505050505062000956565b600033905090565b6000600760009054906101000a900473ffffffffffffffffffffffffffffffffffffffff16905081600760006101000a81548173ffffffffffffffffffffffffffffffffffffffff021916908373ffffffffffffffffffffffffffffffffffffffff1602179055508173ffffffffffffffffffffffffffffffffffffffff168173ffffffffffffffffffffffffffffffffffffffff167f8be0079c531659141344cd1fd0a4f28419497f9722a3daafe3b4186f6b6457e060405160405180910390a35050565b600c60009054906101000a900460ff1615620002e6576040517fab7bb87c00000000000000000000000000000000000000000000000000000000815260040160405180910390fd5b80600a906005620002f9929190620003a9565b506001600c60006101000a81548160ff02191690831515021790555050565b828054620003269062000920565b90600052602060002090601f0160209004810192826200034a576000855562000396565b82601f106200036557805160ff191683800117855562000396565b8280016001018555821562000396579182015b828111156200039557825182559160200191906001019062000378565b5b509050620003a5919062000410565b5090565b828054828255906000526020600020908101928215620003fd579160200282015b82811115620003fc578251829080519060200190620003eb92919062000318565b5091602001919060010190620003ca565b5b5090506200040c91906200042f565b5090565b5b808211156200042b57600081600090555060010162000411565b5090565b5b8082111562000453576000818162000449919062000457565b5060010162000430565b5090565b508054620004659062000920565b6000825580601f106200047957506200049a565b601f01602090049060005260206000209081019062000499919062000410565b5b50565b6000604051905090565b600080fd5b600080fd5b600073ffffffffffffffffffffffffffffffffffffffff82169050919050565b6000620004de82620004b1565b9050919050565b620004f081620004d1565b8114620004fc57600080fd5b50565b6000815190506200051081620004e5565b92915050565b600067ffffffffffffffff82169050919050565b620005358162000516565b81146200054157600080fd5b50565b60008151905062000555816200052a565b92915050565b6000819050919050565b62000570816200055b565b81146200057c57600080fd5b50565b600081519050620005908162000565565b92915050565b600063ffffffff82169050919050565b620005b18162000596565b8114620005bd57600080fd5b50565b600081519050620005d181620005a6565b92915050565b600080fd5b6000601f19601f8301169050919050565b7f4e487b7100000000000000000000000000000000000000000000000000000000600052604160045260246000fd5b6200062782620005dc565b810181811067ffffffffffffffff82111715620006495762000648620005ed565b5b80604052505050565b60006200065e6200049d565b90506200066c82826200061c565b919050565b600067ffffffffffffffff8211156200068f576200068e620005ed565b5b602082029050919050565b600080fd5b600080fd5b600067ffffffffffffffff821115620006c257620006c1620005ed565b5b620006cd82620005dc565b9050602081019050919050565b60005b83811015620006fa578082015181840152602081019050620006dd565b838111156200070a576000848401525b50505050565b6000620007276200072184620006a4565b62000652565b9050828152602081018484840111156200074657620007456200069f565b5b62000753848285620006da565b509392505050565b600082601f830112620007735762000772620005d7565b5b81516200078584826020860162000710565b91505092915050565b6000620007a56200079f8462000671565b62000652565b90508060208402830185811115620007c257620007c16200069a565b5b835b818110156200081057805167ffffffffffffffff811115620007eb57620007ea620005d7565b5b808601620007fa89826200075b565b85526020850194505050602081019050620007c4565b5050509392505050565b600082601f830112620008325762000831620005d7565b5b6005620008418482856200078e565b91505092915050565b600080600080600060a08688031215620008695762000868620004a7565b5b60006200087988828901620004ff565b95505060206200088c8882890162000544565b94505060406200089f888289016200057f565b9350506060620008b288828901620005c0565b925050608086015167ffffffffffffffff811115620008d657620008d5620004ac565b5b620008e4888289016200081a565b9150509295509295909350565b7f4e487b7100000000000000000000000000000000000000000000000000000000600052602260045260246000fd5b600060028204905060018216806200093957607f821691505b6020821081141562000950576200094f620008f1565b5b50919050565b60805160601c60a05160601c60c05160c01c60e0516101005160e01c614745620009ae60003960006112fe015260006112ba015260006112db0152600061127e015260008181610d6c0152610dc001526147456000f3fe608060405234801561001057600080fd5b50600436106101cf5760003560e01c80638da5cb5b11610104578063c87b56dd116100a2578063e428150111610071578063e428150114610576578063e985e9c5146105a6578063f2fde38b146105d6578063f5a1f5b4146105f2576101cf565b8063c87b56dd146104b6578063c89e8fcc146104e6578063d63fa9d514610516578063e41dbb6c14610546576101cf565b8063a22cb465116100de578063a22cb46514610432578063a36f573b1461044e578063a7a5b3d31461047e578063b88d4fde1461049a576101cf565b80638da5cb5b146103c657806395d89b41146103e4578063988916e614610402576101cf565b806323b872dd116101715780636352211e1161014b5780636352211e1461033e5780636e02007d1461036e57806370a082311461038c578063715018a6146103bc576101cf565b806323b872dd146102d6578063389e123e146102f257806342842e0e14610322576101cf565b8063081812fc116101ad578063081812fc14610252578063095ea7b3146102825780630c1b613a1461029e5780631fe543e3146102ba576101cf565b806301ffc9a7146101d4578063055708c91461020457806306fdde0314610234575b600080fd5b6101ee60048036038101906101e99190612f8f565b61060e565b6040516101fb9190612fd7565b60405180910390f35b61021e60048036038101906102199190613086565b6106f0565b60405161022b919061315f565b60405180910390f35b61023c61079d565b604051610249919061315f565b60405180910390f35b61026c60048036038101906102679190613181565b61082f565b60405161027991906131bd565b60405180910390f35b61029c60048036038101906102979190613086565b6108b4565b005b6102b860048036038101906102b39190613086565b6109cc565b005b6102d460048036038101906102cf9190613320565b610d6a565b005b6102f060048036038101906102eb919061337c565b610e2a565b005b61030c600480360381019061030791906133cf565b610e8a565b6040516103199190613508565b60405180910390f35b61033c6004803603810190610337919061337c565b610fa2565b005b61035860048036038101906103539190613181565b610fc2565b60405161036591906131bd565b60405180910390f35b610376611074565b6040516103839190613539565b60405180910390f35b6103a660048036038101906103a191906133cf565b61107e565b6040516103b39190613539565b60405180910390f35b6103c4611136565b005b6103ce6111be565b6040516103db91906131bd565b60405180910390f35b6103ec6111e8565b6040516103f9919061315f565b60405180910390f35b61041c600480360381019061041791906133cf565b61127a565b6040516104299190613539565b60405180910390f35b61044c60048036038101906104479190613580565b61142e565b005b61046860048036038101906104639190613181565b6115af565b60405161047591906131bd565b60405180910390f35b61049860048036038101906104939190613181565b6115e2565b005b6104b460048036038101906104af9190613675565b611668565b005b6104d060048036038101906104cb9190613181565b6116ca565b6040516104dd919061315f565b60405180910390f35b61050060048036038101906104fb9190613181565b61181c565b60405161050d91906131bd565b60405180910390f35b610530600480360381019061052b9190613181565b611859565b60405161053d919061315f565b60405180910390f35b610560600480360381019061055b9190613086565b611909565b60405161056d919061315f565b60405180910390f35b610590600480360381019061058b9190613086565b6119ec565b60405161059d919061315f565b60405180910390f35b6105c060048036038101906105bb91906136f8565b611aa5565b6040516105cd9190612fd7565b60405180910390f35b6105f060048036038101906105eb91906133cf565b611b39565b005b61060c600480360381019061060791906133cf565b611c31565b005b60007f80ac58cd000000000000000000000000000000000000000000000000000000007bffffffffffffffffffffffffffffffffffffffffffffffffffffffff1916827bffffffffffffffffffffffffffffffffffffffffffffffffffffffff191614806106d957507f5b5e139f000000000000000000000000000000000000000000000000000000007bffffffffffffffffffffffffffffffffffffffffffffffffffffffff1916827bffffffffffffffffffffffffffffffffffffffffffffffffffffffff1916145b806106e957506106e882611c3d565b5b9050919050565b600e60205281600052604060002060205280600052604060002060009150915050805461071c90613767565b80601f016020809104026020016040519081016040528092919081815260200182805461074890613767565b80156107955780601f1061076a57610100808354040283529160200191610795565b820191906000526020600020905b81548152906001019060200180831161077857829003601f168201915b505050505081565b6060600080546107ac90613767565b80601f01602080910402602001604051908101604052809291908181526020018280546107d890613767565b80156108255780601f106107fa57610100808354040283529160200191610825565b820191906000526020600020905b81548152906001019060200180831161080857829003601f168201915b5050505050905090565b600061083a82611ca7565b610879576040517f08c379a00000000000000000000000000000000000000000000000000000000081526004016108709061380b565b60405180910390fd5b6004600083815260200190815260200160002060009054906101000a900473ffffffffffffffffffffffffffffffffffffffff169050919050565b60006108bf82610fc2565b90508073ffffffffffffffffffffffffffffffffffffffff168373ffffffffffffffffffffffffffffffffffffffff161415610930576040517f08c379a00000000000000000000000000000000000000000000000000000000081526004016109279061389d565b60405180910390fd5b8073ffffffffffffffffffffffffffffffffffffffff1661094f611d13565b73ffffffffffffffffffffffffffffffffffffffff16148061097e575061097d81610978611d13565b611aa5565b5b6109bd576040517f08c379a00000000000000000000000000000000000000000000000000000000081526004016109b49061392f565b60405180910390fd5b6109c78383611d1b565b505050565b60008060085411156109e25760085490506109e6565b8190505b6028811015610a37578273ffffffffffffffffffffffffffffffffffffffff167fd136ab05159fbab0757d01bb2c7da0d34f5c605a4ccabcf97bdfabc5ca006b6560405160405180910390a2610d65565b600060095490506001600954610a4d919061397e565b6009819055506000610a5e83611dd4565b9050610a6a8583611ea6565b610b2c82600a836004811115610a8357610a826139d4565b5b81548110610a9457610a93613a03565b5b906000526020600020018054610aa990613767565b80601f0160208091040260200160405190810160405280929190818152602001828054610ad590613767565b8015610b225780601f10610af757610100808354040283529160200191610b22565b820191906000526020600020905b815481529060010190602001808311610b0557829003601f168201915b5050505050611ec4565b600a816004811115610b4157610b406139d4565b5b81548110610b5257610b51613a03565b5b90600052602060002001600e60008773ffffffffffffffffffffffffffffffffffffffff1673ffffffffffffffffffffffffffffffffffffffff1681526020019081526020016000206000848152602001908152602001600020908054610bb890613767565b610bc3929190612dd1565b50600f60008673ffffffffffffffffffffffffffffffffffffffff1673ffffffffffffffffffffffffffffffffffffffff168152602001908152602001600020600a826004811115610c1857610c176139d4565b5b81548110610c2957610c28613a03565b5b9060005260206000200190806001815401808255809150506001900390600052602060002001600090919091909150908054610c6490613767565b610c6f929190612dd1565b508473ffffffffffffffffffffffffffffffffffffffff16600f60008773ffffffffffffffffffffffffffffffffffffffff1673ffffffffffffffffffffffffffffffffffffffff168152602001908152602001600020604051610cd39190613b7b565b60405180910390207fc24e46883eb159bbaa202fe48bb0d2f2cbb7605f881cc885a9fe625c39026afb60405160405180910390a33073ffffffffffffffffffffffffffffffffffffffff168573ffffffffffffffffffffffffffffffffffffffff16837fc7e901e22cc74ac94165a336e4b2b845de8dc914526ae44b03671a13ffa1fffb60405160405180910390a450505b505050565b7f000000000000000000000000000000000000000000000000000000000000000073ffffffffffffffffffffffffffffffffffffffff163373ffffffffffffffffffffffffffffffffffffffff1614610e1c57337f00000000000000000000000000000000000000000000000000000000000000006040517f1cf993f4000000000000000000000000000000000000000000000000000000008152600401610e13929190613b92565b60405180910390fd5b610e268282611f38565b5050565b610e3b610e35611d13565b82612336565b610e7a576040517f08c379a0000000000000000000000000000000000000000000000000000000008152600401610e7190613c2d565b60405180910390fd5b610e85838383612414565b505050565b6060600f60008373ffffffffffffffffffffffffffffffffffffffff1673ffffffffffffffffffffffffffffffffffffffff168152602001908152602001600020805480602002602001604051908101604052809291908181526020016000905b82821015610f97578382906000526020600020018054610f0a90613767565b80601f0160208091040260200160405190810160405280929190818152602001828054610f3690613767565b8015610f835780601f10610f5857610100808354040283529160200191610f83565b820191906000526020600020905b815481529060010190602001808311610f6657829003601f168201915b505050505081526020019060010190610eeb565b505050509050919050565b610fbd83838360405180602001604052806000815250611668565b505050565b6000806002600084815260200190815260200160002060009054906101000a900473ffffffffffffffffffffffffffffffffffffffff169050600073ffffffffffffffffffffffffffffffffffffffff168173ffffffffffffffffffffffffffffffffffffffff16141561106b576040517f08c379a000000000000000000000000000000000000000000000000000000000815260040161106290613cbf565b60405180910390fd5b80915050919050565b6000600954905090565b60008073ffffffffffffffffffffffffffffffffffffffff168273ffffffffffffffffffffffffffffffffffffffff1614156110ef576040517f08c379a00000000000000000000000000000000000000000000000000000000081526004016110e690613d51565b60405180910390fd5b600360008373ffffffffffffffffffffffffffffffffffffffff1673ffffffffffffffffffffffffffffffffffffffff168152602001908152602001600020549050919050565b61113e611d13565b73ffffffffffffffffffffffffffffffffffffffff1661115c6111be565b73ffffffffffffffffffffffffffffffffffffffff16146111b2576040517f08c379a00000000000000000000000000000000000000000000000000000000081526004016111a990613dbd565b60405180910390fd5b6111bc6000612670565b565b6000600760009054906101000a900473ffffffffffffffffffffffffffffffffffffffff16905090565b6060600180546111f790613767565b80601f016020809104026020016040519081016040528092919081815260200182805461122390613767565b80156112705780601f1061124557610100808354040283529160200191611270565b820191906000526020600020905b81548152906001019060200180831161125357829003601f168201915b5050505050905090565b60007f000000000000000000000000000000000000000000000000000000000000000073ffffffffffffffffffffffffffffffffffffffff16635d3b1d307f00000000000000000000000000000000000000000000000000000000000000007f000000000000000000000000000000000000000000000000000000000000000060037f000000000000000000000000000000000000000000000000000000000000000060056040518663ffffffff1660e01b815260040161133f959493929190613e55565b602060405180830381600087803b15801561135957600080fd5b505af115801561136d573d6000803e3d6000fd5b505050506040513d601f19601f820116820180604052508101906113919190613ebd565b905081600d600083815260200190815260200160002060006101000a81548173ffffffffffffffffffffffffffffffffffffffff021916908373ffffffffffffffffffffffffffffffffffffffff1602179055508173ffffffffffffffffffffffffffffffffffffffff16817f5b2496149b2034ae9066ce6e9c7387566544fa2726fd6a0d976a6e609c972e9060405160405180910390a3919050565b611436611d13565b73ffffffffffffffffffffffffffffffffffffffff168273ffffffffffffffffffffffffffffffffffffffff1614156114a4576040517f08c379a000000000000000000000000000000000000000000000000000000000815260040161149b90613f36565b60405180910390fd5b80600560006114b1611d13565b73ffffffffffffffffffffffffffffffffffffffff1673ffffffffffffffffffffffffffffffffffffffff16815260200190815260200160002060008473ffffffffffffffffffffffffffffffffffffffff1673ffffffffffffffffffffffffffffffffffffffff16815260200190815260200160002060006101000a81548160ff0219169083151502179055508173ffffffffffffffffffffffffffffffffffffffff1661155e611d13565b73ffffffffffffffffffffffffffffffffffffffff167f17307eab39ab6107e8899845ad3d59bd9653f200f220920489ca2b5937696c31836040516115a39190612fd7565b60405180910390a35050565b600d6020528060005260406000206000915054906101000a900473ffffffffffffffffffffffffffffffffffffffff1681565b6115ea611d13565b73ffffffffffffffffffffffffffffffffffffffff166116086111be565b73ffffffffffffffffffffffffffffffffffffffff161461165e576040517f08c379a000000000000000000000000000000000000000000000000000000000815260040161165590613dbd565b60405180910390fd5b8060088190555050565b611679611673611d13565b83612336565b6116b8576040517f08c379a00000000000000000000000000000000000000000000000000000000081526004016116af90613c2d565b60405180910390fd5b6116c484848484612736565b50505050565b60606116d582611ca7565b611714576040517f08c379a000000000000000000000000000000000000000000000000000000000815260040161170b90613fc8565b60405180910390fd5b600060066000848152602001908152602001600020805461173490613767565b80601f016020809104026020016040519081016040528092919081815260200182805461176090613767565b80156117ad5780601f10611782576101008083540402835291602001916117ad565b820191906000526020600020905b81548152906001019060200180831161179057829003601f168201915b5050505050905060006117be612792565b90506000815114156117d4578192505050611817565b6000825111156118095780826040516020016117f1929190614024565b60405160208183030381529060405292505050611817565b611812846127a9565b925050505b919050565b6000600d600083815260200190815260200160002060009054906101000a900473ffffffffffffffffffffffffffffffffffffffff169050919050565b6060600a828154811061186f5761186e613a03565b5b90600052602060002001805461188490613767565b80601f01602080910402602001604051908101604052809291908181526020018280546118b090613767565b80156118fd5780601f106118d2576101008083540402835291602001916118fd565b820191906000526020600020905b8154815290600101906020018083116118e057829003601f168201915b50505050509050919050565b6060600e60008473ffffffffffffffffffffffffffffffffffffffff1673ffffffffffffffffffffffffffffffffffffffff1681526020019081526020016000206000838152602001908152602001600020805461196690613767565b80601f016020809104026020016040519081016040528092919081815260200182805461199290613767565b80156119df5780601f106119b4576101008083540402835291602001916119df565b820191906000526020600020905b8154815290600101906020018083116119c257829003601f168201915b5050505050905092915050565b600f6020528160005260406000208181548110611a0857600080fd5b90600052602060002001600091509150508054611a2490613767565b80601f0160208091040260200160405190810160405280929190818152602001828054611a5090613767565b8015611a9d5780601f10611a7257610100808354040283529160200191611a9d565b820191906000526020600020905b815481529060010190602001808311611a8057829003601f168201915b505050505081565b6000600560008473ffffffffffffffffffffffffffffffffffffffff1673ffffffffffffffffffffffffffffffffffffffff16815260200190815260200160002060008373ffffffffffffffffffffffffffffffffffffffff1673ffffffffffffffffffffffffffffffffffffffff16815260200190815260200160002060009054906101000a900460ff16905092915050565b611b41611d13565b73ffffffffffffffffffffffffffffffffffffffff16611b5f6111be565b73ffffffffffffffffffffffffffffffffffffffff1614611bb5576040517f08c379a0000000000000000000000000000000000000000000000000000000008152600401611bac90613dbd565b60405180910390fd5b600073ffffffffffffffffffffffffffffffffffffffff168173ffffffffffffffffffffffffffffffffffffffff161415611c25576040517f08c379a0000000000000000000000000000000000000000000000000000000008152600401611c1c906140ba565b60405180910390fd5b611c2e81612670565b50565b611c3a81611b39565b50565b60007f01ffc9a7000000000000000000000000000000000000000000000000000000007bffffffffffffffffffffffffffffffffffffffffffffffffffffffff1916827bffffffffffffffffffffffffffffffffffffffffffffffffffffffff1916149050919050565b60008073ffffffffffffffffffffffffffffffffffffffff166002600084815260200190815260200160002060009054906101000a900473ffffffffffffffffffffffffffffffffffffffff1673ffffffffffffffffffffffffffffffffffffffff1614159050919050565b600033905090565b816004600083815260200190815260200160002060006101000a81548173ffffffffffffffffffffffffffffffffffffffff021916908373ffffffffffffffffffffffffffffffffffffffff160217905550808273ffffffffffffffffffffffffffffffffffffffff16611d8e83610fc2565b73ffffffffffffffffffffffffffffffffffffffff167f8c5be1e5ebec7d5bd14f71427d1e84f3dd0314c0f7b2291e5b200ac8c7c3b92560405160405180910390a45050565b600080600090506000611de5612850565b905060005b6005811015611e6e57828510158015611e1c5750818160058110611e1157611e10613a03565b5b602002015160ff1685105b15611e3e57806004811115611e3457611e336139d4565b5b9350505050611ea1565b818160058110611e5157611e50613a03565b5b602002015160ff1692508080611e66906140da565b915050611dea565b506040517f09dbe20500000000000000000000000000000000000000000000000000000000815260040160405180910390fd5b919050565b611ec0828260405180602001604052806000815250612898565b5050565b611ecd82611ca7565b611f0c576040517f08c379a0000000000000000000000000000000000000000000000000000000008152600401611f0390614195565b60405180910390fd5b80600660008481526020019081526020016000209080519060200190611f33929190612e5e565b505050565b600080600d600085815260200190815260200160002060009054906101000a900473ffffffffffffffffffffffffffffffffffffffff16905060006008541115611f86576008549150611fb1565b606483600081518110611f9c57611f9b613a03565b5b6020026020010151611fae91906141e4565b91505b6028821015612002578073ffffffffffffffffffffffffffffffffffffffff167fd136ab05159fbab0757d01bb2c7da0d34f5c605a4ccabcf97bdfabc5ca006b6560405160405180910390a2612330565b600060095490506001600954612018919061397e565b600981905550600061202984611dd4565b90506120358383611ea6565b6120f782600a83600481111561204e5761204d6139d4565b5b8154811061205f5761205e613a03565b5b90600052602060002001805461207490613767565b80601f01602080910402602001604051908101604052809291908181526020018280546120a090613767565b80156120ed5780601f106120c2576101008083540402835291602001916120ed565b820191906000526020600020905b8154815290600101906020018083116120d057829003601f168201915b5050505050611ec4565b600a81600481111561210c5761210b6139d4565b5b8154811061211d5761211c613a03565b5b90600052602060002001600e60008573ffffffffffffffffffffffffffffffffffffffff1673ffffffffffffffffffffffffffffffffffffffff168152602001908152602001600020600084815260200190815260200160002090805461218390613767565b61218e929190612dd1565b50600f60008473ffffffffffffffffffffffffffffffffffffffff1673ffffffffffffffffffffffffffffffffffffffff168152602001908152602001600020600a8260048111156121e3576121e26139d4565b5b815481106121f4576121f3613a03565b5b906000526020600020019080600181540180825580915050600190039060005260206000200160009091909190915090805461222f90613767565b61223a929190612dd1565b508273ffffffffffffffffffffffffffffffffffffffff16600f60008573ffffffffffffffffffffffffffffffffffffffff1673ffffffffffffffffffffffffffffffffffffffff16815260200190815260200160002060405161229e9190613b7b565b60405180910390207fc24e46883eb159bbaa202fe48bb0d2f2cbb7605f881cc885a9fe625c39026afb60405160405180910390a33073ffffffffffffffffffffffffffffffffffffffff168373ffffffffffffffffffffffffffffffffffffffff16837fc7e901e22cc74ac94165a336e4b2b845de8dc914526ae44b03671a13ffa1fffb60405160405180910390a450505b50505050565b600061234182611ca7565b612380576040517f08c379a000000000000000000000000000000000000000000000000000000000815260040161237790614287565b60405180910390fd5b600061238b83610fc2565b90508073ffffffffffffffffffffffffffffffffffffffff168473ffffffffffffffffffffffffffffffffffffffff1614806123fa57508373ffffffffffffffffffffffffffffffffffffffff166123e28461082f565b73ffffffffffffffffffffffffffffffffffffffff16145b8061240b575061240a8185611aa5565b5b91505092915050565b8273ffffffffffffffffffffffffffffffffffffffff1661243482610fc2565b73ffffffffffffffffffffffffffffffffffffffff161461248a576040517f08c379a000000000000000000000000000000000000000000000000000000000815260040161248190614319565b60405180910390fd5b600073ffffffffffffffffffffffffffffffffffffffff168273ffffffffffffffffffffffffffffffffffffffff1614156124fa576040517f08c379a00000000000000000000000000000000000000000000000000000000081526004016124f1906143ab565b60405180910390fd5b6125058383836128f3565b612510600082611d1b565b6001600360008573ffffffffffffffffffffffffffffffffffffffff1673ffffffffffffffffffffffffffffffffffffffff168152602001908152602001600020600082825461256091906143cb565b925050819055506001600360008473ffffffffffffffffffffffffffffffffffffffff1673ffffffffffffffffffffffffffffffffffffffff16815260200190815260200160002060008282546125b7919061397e565b92505081905550816002600083815260200190815260200160002060006101000a81548173ffffffffffffffffffffffffffffffffffffffff021916908373ffffffffffffffffffffffffffffffffffffffff160217905550808273ffffffffffffffffffffffffffffffffffffffff168473ffffffffffffffffffffffffffffffffffffffff167fddf252ad1be2c89b69c2b068fc378daa952ba7f163c4a11628f55a4df523b3ef60405160405180910390a4505050565b6000600760009054906101000a900473ffffffffffffffffffffffffffffffffffffffff16905081600760006101000a81548173ffffffffffffffffffffffffffffffffffffffff021916908373ffffffffffffffffffffffffffffffffffffffff1602179055508173ffffffffffffffffffffffffffffffffffffffff168173ffffffffffffffffffffffffffffffffffffffff167f8be0079c531659141344cd1fd0a4f28419497f9722a3daafe3b4186f6b6457e060405160405180910390a35050565b612741848484612414565b61274d848484846128f8565b61278c576040517f08c379a000000000000000000000000000000000000000000000000000000000815260040161278390614471565b60405180910390fd5b50505050565b606060405180602001604052806000815250905090565b60606127b482611ca7565b6127f3576040517f08c379a00000000000000000000000000000000000000000000000000000000081526004016127ea90614503565b60405180910390fd5b60006127fd612792565b9050600081511161281d5760405180602001604052806000815250612848565b8061282784612a8f565b604051602001612838929190614024565b6040516020818303038152906040525b915050919050565b612858612ee4565b6040518060a00160405280601460ff168152602001603260ff168152602001604b60ff168152602001605a60ff168152602001606260ff16815250905090565b6128a28383612bf0565b6128af60008484846128f8565b6128ee576040517f08c379a00000000000000000000000000000000000000000000000000000000081526004016128e590614471565b60405180910390fd5b505050565b505050565b60006129198473ffffffffffffffffffffffffffffffffffffffff16612dbe565b15612a82578373ffffffffffffffffffffffffffffffffffffffff1663150b7a02612942611d13565b8786866040518563ffffffff1660e01b81526004016129649493929190614578565b602060405180830381600087803b15801561297e57600080fd5b505af19250505080156129af57506040513d601f19601f820116820180604052508101906129ac91906145d9565b60015b612a32573d80600081146129df576040519150601f19603f3d011682016040523d82523d6000602084013e6129e4565b606091505b50600081511415612a2a576040517f08c379a0000000000000000000000000000000000000000000000000000000008152600401612a2190614471565b60405180910390fd5b805181602001fd5b63150b7a0260e01b7bffffffffffffffffffffffffffffffffffffffffffffffffffffffff1916817bffffffffffffffffffffffffffffffffffffffffffffffffffffffff191614915050612a87565b600190505b949350505050565b60606000821415612ad7576040518060400160405280600181526020017f30000000000000000000000000000000000000000000000000000000000000008152509050612beb565b600082905060005b60008214612b09578080612af2906140da565b915050600a82612b029190614606565b9150612adf565b60008167ffffffffffffffff811115612b2557612b246131dd565b5b6040519080825280601f01601f191660200182016040528015612b575781602001600182028036833780820191505090505b5090505b60008514612be457600182612b7091906143cb565b9150600a85612b7f91906141e4565b6030612b8b919061397e565b60f81b818381518110612ba157612ba0613a03565b5b60200101907effffffffffffffffffffffffffffffffffffffffffffffffffffffffffffff1916908160001a905350600a85612bdd9190614606565b9450612b5b565b8093505050505b919050565b600073ffffffffffffffffffffffffffffffffffffffff168273ffffffffffffffffffffffffffffffffffffffff161415612c60576040517f08c379a0000000000000000000000000000000000000000000000000000000008152600401612c5790614683565b60405180910390fd5b612c6981611ca7565b15612ca9576040517f08c379a0000000000000000000000000000000000000000000000000000000008152600401612ca0906146ef565b60405180910390fd5b612cb5600083836128f3565b6001600360008473ffffffffffffffffffffffffffffffffffffffff1673ffffffffffffffffffffffffffffffffffffffff1681526020019081526020016000206000828254612d05919061397e565b92505081905550816002600083815260200190815260200160002060006101000a81548173ffffffffffffffffffffffffffffffffffffffff021916908373ffffffffffffffffffffffffffffffffffffffff160217905550808273ffffffffffffffffffffffffffffffffffffffff16600073ffffffffffffffffffffffffffffffffffffffff167fddf252ad1be2c89b69c2b068fc378daa952ba7f163c4a11628f55a4df523b3ef60405160405180910390a45050565b600080823b905060008111915050919050565b828054612ddd90613767565b90600052602060002090601f016020900481019282612dff5760008555612e4d565b82601f10612e105780548555612e4d565b82800160010185558215612e4d57600052602060002091601f016020900482015b82811115612e4c578254825591600101919060010190612e31565b5b509050612e5a9190612f06565b5090565b828054612e6a90613767565b90600052602060002090601f016020900481019282612e8c5760008555612ed3565b82601f10612ea557805160ff1916838001178555612ed3565b82800160010185558215612ed3579182015b82811115612ed2578251825591602001919060010190612eb7565b5b509050612ee09190612f06565b5090565b6040518060a00160405280600590602082028036833780820191505090505090565b5b80821115612f1f576000816000905550600101612f07565b5090565b6000604051905090565b600080fd5b600080fd5b60007fffffffff0000000000000000000000000000000000000000000000000000000082169050919050565b612f6c81612f37565b8114612f7757600080fd5b50565b600081359050612f8981612f63565b92915050565b600060208284031215612fa557612fa4612f2d565b5b6000612fb384828501612f7a565b91505092915050565b60008115159050919050565b612fd181612fbc565b82525050565b6000602082019050612fec6000830184612fc8565b92915050565b600073ffffffffffffffffffffffffffffffffffffffff82169050919050565b600061301d82612ff2565b9050919050565b61302d81613012565b811461303857600080fd5b50565b60008135905061304a81613024565b92915050565b6000819050919050565b61306381613050565b811461306e57600080fd5b50565b6000813590506130808161305a565b92915050565b6000806040838503121561309d5761309c612f2d565b5b60006130ab8582860161303b565b92505060206130bc85828601613071565b9150509250929050565b600081519050919050565b600082825260208201905092915050565b60005b838110156131005780820151818401526020810190506130e5565b8381111561310f576000848401525b50505050565b6000601f19601f8301169050919050565b6000613131826130c6565b61313b81856130d1565b935061314b8185602086016130e2565b61315481613115565b840191505092915050565b600060208201905081810360008301526131798184613126565b905092915050565b60006020828403121561319757613196612f2d565b5b60006131a584828501613071565b91505092915050565b6131b781613012565b82525050565b60006020820190506131d260008301846131ae565b92915050565b600080fd5b7f4e487b7100000000000000000000000000000000000000000000000000000000600052604160045260246000fd5b61321582613115565b810181811067ffffffffffffffff82111715613234576132336131dd565b5b80604052505050565b6000613247612f23565b9050613253828261320c565b919050565b600067ffffffffffffffff821115613273576132726131dd565b5b602082029050602081019050919050565b600080fd5b600061329c61329784613258565b61323d565b905080838252602082019050602084028301858111156132bf576132be613284565b5b835b818110156132e857806132d48882613071565b8452602084019350506020810190506132c1565b5050509392505050565b600082601f830112613307576133066131d8565b5b8135613317848260208601613289565b91505092915050565b6000806040838503121561333757613336612f2d565b5b600061334585828601613071565b925050602083013567ffffffffffffffff81111561336657613365612f32565b5b613372858286016132f2565b9150509250929050565b60008060006060848603121561339557613394612f2d565b5b60006133a38682870161303b565b93505060206133b48682870161303b565b92505060406133c586828701613071565b9150509250925092565b6000602082840312156133e5576133e4612f2d565b5b60006133f38482850161303b565b91505092915050565b600081519050919050565b600082825260208201905092915050565b6000819050602082019050919050565b600082825260208201905092915050565b6000613444826130c6565b61344e8185613428565b935061345e8185602086016130e2565b61346781613115565b840191505092915050565b600061347e8383613439565b905092915050565b6000602082019050919050565b600061349e826133fc565b6134a88185613407565b9350836020820285016134ba85613418565b8060005b858110156134f657848403895281516134d78582613472565b94506134e283613486565b925060208a019950506001810190506134be565b50829750879550505050505092915050565b600060208201905081810360008301526135228184613493565b905092915050565b61353381613050565b82525050565b600060208201905061354e600083018461352a565b92915050565b61355d81612fbc565b811461356857600080fd5b50565b60008135905061357a81613554565b92915050565b6000806040838503121561359757613596612f2d565b5b60006135a58582860161303b565b92505060206135b68582860161356b565b9150509250929050565b600080fd5b600067ffffffffffffffff8211156135e0576135df6131dd565b5b6135e982613115565b9050602081019050919050565b82818337600083830152505050565b6000613618613613846135c5565b61323d565b905082815260208101848484011115613634576136336135c0565b5b61363f8482856135f6565b509392505050565b600082601f83011261365c5761365b6131d8565b5b813561366c848260208601613605565b91505092915050565b6000806000806080858703121561368f5761368e612f2d565b5b600061369d8782880161303b565b94505060206136ae8782880161303b565b93505060406136bf87828801613071565b925050606085013567ffffffffffffffff8111156136e0576136df612f32565b5b6136ec87828801613647565b91505092959194509250565b6000806040838503121561370f5761370e612f2d565b5b600061371d8582860161303b565b925050602061372e8582860161303b565b9150509250929050565b7f4e487b7100000000000000000000000000000000000000000000000000000000600052602260045260246000fd5b6000600282049050600182168061377f57607f821691505b6020821081141561379357613792613738565b5b50919050565b7f4552433732313a20617070726f76656420717565727920666f72206e6f6e657860008201527f697374656e7420746f6b656e0000000000000000000000000000000000000000602082015250565b60006137f5602c836130d1565b915061380082613799565b604082019050919050565b60006020820190508181036000830152613824816137e8565b9050919050565b7f4552433732313a20617070726f76616c20746f2063757272656e74206f776e6560008201527f7200000000000000000000000000000000000000000000000000000000000000602082015250565b60006138876021836130d1565b91506138928261382b565b604082019050919050565b600060208201905081810360008301526138b68161387a565b9050919050565b7f4552433732313a20617070726f76652063616c6c6572206973206e6f74206f7760008201527f6e6572206e6f7220617070726f76656420666f7220616c6c0000000000000000602082015250565b60006139196038836130d1565b9150613924826138bd565b604082019050919050565b600060208201905081810360008301526139488161390c565b9050919050565b7f4e487b7100000000000000000000000000000000000000000000000000000000600052601160045260246000fd5b600061398982613050565b915061399483613050565b9250827fffffffffffffffffffffffffffffffffffffffffffffffffffffffffffffffff038211156139c9576139c861394f565b5b828201905092915050565b7f4e487b7100000000000000000000000000000000000000000000000000000000600052602160045260246000fd5b7f4e487b7100000000000000000000000000000000000000000000000000000000600052603260045260246000fd5b600081549050919050565b600081905092915050565b60008190508160005260206000209050919050565b600081905092915050565b60008190508160005260206000209050919050565b60008154613a8a81613767565b613a948186613a5d565b94506001821660008114613aaf5760018114613ac157613af4565b60ff1983168652602086019350613af4565b613aca85613a68565b60005b83811015613aec57815481890152600182019150602081019050613acd565b808801955050505b50505092915050565b6000613b098383613a7d565b905092915050565b6000600182019050919050565b6000613b2982613a32565b613b338185613a3d565b9350613b3e83613a48565b8060005b83811015613b6e5781613b558882613afd565b9750613b6083613b11565b925050600181019050613b42565b5085935050505092915050565b6000613b878284613b1e565b915081905092915050565b6000604082019050613ba760008301856131ae565b613bb460208301846131ae565b9392505050565b7f4552433732313a207472616e736665722063616c6c6572206973206e6f74206f60008201527f776e6572206e6f7220617070726f766564000000000000000000000000000000602082015250565b6000613c176031836130d1565b9150613c2282613bbb565b604082019050919050565b60006020820190508181036000830152613c4681613c0a565b9050919050565b7f4552433732313a206f776e657220717565727920666f72206e6f6e657869737460008201527f656e7420746f6b656e0000000000000000000000000000000000000000000000602082015250565b6000613ca96029836130d1565b9150613cb482613c4d565b604082019050919050565b60006020820190508181036000830152613cd881613c9c565b9050919050565b7f4552433732313a2062616c616e636520717565727920666f7220746865207a6560008201527f726f206164647265737300000000000000000000000000000000000000000000602082015250565b6000613d3b602a836130d1565b9150613d4682613cdf565b604082019050919050565b60006020820190508181036000830152613d6a81613d2e565b9050919050565b7f4f776e61626c653a2063616c6c6572206973206e6f7420746865206f776e6572600082015250565b6000613da76020836130d1565b9150613db282613d71565b602082019050919050565b60006020820190508181036000830152613dd681613d9a565b9050919050565b6000819050919050565b613df081613ddd565b82525050565b600067ffffffffffffffff82169050919050565b613e1381613df6565b82525050565b600061ffff82169050919050565b613e3081613e19565b82525050565b600063ffffffff82169050919050565b613e4f81613e36565b82525050565b600060a082019050613e6a6000830188613de7565b613e776020830187613e0a565b613e846040830186613e27565b613e916060830185613e46565b613e9e6080830184613e46565b9695505050505050565b600081519050613eb78161305a565b92915050565b600060208284031215613ed357613ed2612f2d565b5b6000613ee184828501613ea8565b91505092915050565b7f4552433732313a20617070726f766520746f2063616c6c657200000000000000600082015250565b6000613f206019836130d1565b9150613f2b82613eea565b602082019050919050565b60006020820190508181036000830152613f4f81613f13565b9050919050565b7f45524337323155524953746f726167653a2055524920717565727920666f722060008201527f6e6f6e6578697374656e7420746f6b656e000000000000000000000000000000602082015250565b6000613fb26031836130d1565b9150613fbd82613f56565b604082019050919050565b60006020820190508181036000830152613fe181613fa5565b9050919050565b600081905092915050565b6000613ffe826130c6565b6140088185613fe8565b93506140188185602086016130e2565b80840191505092915050565b60006140308285613ff3565b915061403c8284613ff3565b91508190509392505050565b7f4f776e61626c653a206e6577206f776e657220697320746865207a65726f206160008201527f6464726573730000000000000000000000000000000000000000000000000000602082015250565b60006140a46026836130d1565b91506140af82614048565b604082019050919050565b600060208201905081810360008301526140d381614097565b9050919050565b60006140e582613050565b91507fffffffffffffffffffffffffffffffffffffffffffffffffffffffffffffffff8214156141185761411761394f565b5b600182019050919050565b7f45524337323155524953746f726167653a2055524920736574206f66206e6f6e60008201527f6578697374656e7420746f6b656e000000000000000000000000000000000000602082015250565b600061417f602e836130d1565b915061418a82614123565b604082019050919050565b600060208201905081810360008301526141ae81614172565b9050919050565b7f4e487b7100000000000000000000000000000000000000000000000000000000600052601260045260246000fd5b60006141ef82613050565b91506141fa83613050565b92508261420a576142096141b5565b5b828206905092915050565b7f4552433732313a206f70657261746f7220717565727920666f72206e6f6e657860008201527f697374656e7420746f6b656e0000000000000000000000000000000000000000602082015250565b6000614271602c836130d1565b915061427c82614215565b604082019050919050565b600060208201905081810360008301526142a081614264565b9050919050565b7f4552433732313a207472616e73666572206f6620746f6b656e2074686174206960008201527f73206e6f74206f776e0000000000000000000000000000000000000000000000602082015250565b60006143036029836130d1565b915061430e826142a7565b604082019050919050565b60006020820190508181036000830152614332816142f6565b9050919050565b7f4552433732313a207472616e7366657220746f20746865207a65726f2061646460008201527f7265737300000000000000000000000000000000000000000000000000000000602082015250565b60006143956024836130d1565b91506143a082614339565b604082019050919050565b600060208201905081810360008301526143c481614388565b9050919050565b60006143d682613050565b91506143e183613050565b9250828210156143f4576143f361394f565b5b828203905092915050565b7f4552433732313a207472616e7366657220746f206e6f6e20455243373231526560008201527f63656976657220696d706c656d656e7465720000000000000000000000000000602082015250565b600061445b6032836130d1565b9150614466826143ff565b604082019050919050565b6000602082019050818103600083015261448a8161444e565b9050919050565b7f4552433732314d657461646174613a2055524920717565727920666f72206e6f60008201527f6e6578697374656e7420746f6b656e0000000000000000000000000000000000602082015250565b60006144ed602f836130d1565b91506144f882614491565b604082019050919050565b6000602082019050818103600083015261451c816144e0565b9050919050565b600081519050919050565b600082825260208201905092915050565b600061454a82614523565b614554818561452e565b93506145648185602086016130e2565b61456d81613115565b840191505092915050565b600060808201905061458d60008301876131ae565b61459a60208301866131ae565b6145a7604083018561352a565b81810360608301526145b9818461453f565b905095945050505050565b6000815190506145d381612f63565b92915050565b6000602082840312156145ef576145ee612f2d565b5b60006145fd848285016145c4565b91505092915050565b600061461182613050565b915061461c83613050565b92508261462c5761462b6141b5565b5b828204905092915050565b7f4552433732313a206d696e7420746f20746865207a65726f2061646472657373600082015250565b600061466d6020836130d1565b915061467882614637565b602082019050919050565b6000602082019050818103600083015261469c81614660565b9050919050565b7f4552433732313a20746f6b656e20616c7265616479206d696e74656400000000600082015250565b60006146d9601c836130d1565b91506146e4826146a3565b602082019050919050565b60006020820190508181036000830152614708816146cc565b905091905056fea264697066735822122082f9383df48c554b2de0b08178aaf3457e1b9c00881efafd65ca5025e914db7f64736f6c63430008080033",
  "devdoc": {
    "kind": "dev",
    "methods": {
      "approve(address,uint256)": {
        "details": "See {IERC721-approve}."
      },
      "balanceOf(address)": {
        "details": "See {IERC721-balanceOf}."
      },
      "getApproved(uint256)": {
        "details": "See {IERC721-getApproved}."
      },
      "isApprovedForAll(address,address)": {
        "details": "See {IERC721-isApprovedForAll}."
      },
      "name()": {
        "details": "See {IERC721Metadata-name}."
      },
      "owner()": {
        "details": "Returns the address of the current owner."
      },
      "ownerOf(uint256)": {
        "details": "See {IERC721-ownerOf}."
      },
      "renounceOwnership()": {
        "details": "Leaves the contract without owner. It will not be possible to call `onlyOwner` functions anymore. Can only be called by the current owner. NOTE: Renouncing ownership will leave the contract without an owner, thereby removing any functionality that is only available to the owner."
      },
      "safeTransferFrom(address,address,uint256)": {
        "details": "See {IERC721-safeTransferFrom}."
      },
      "safeTransferFrom(address,address,uint256,bytes)": {
        "details": "See {IERC721-safeTransferFrom}."
      },
      "setApprovalForAll(address,bool)": {
        "details": "See {IERC721-setApprovalForAll}."
      },
      "supportsInterface(bytes4)": {
        "details": "See {IERC165-supportsInterface}."
      },
      "symbol()": {
        "details": "See {IERC721Metadata-symbol}."
      },
      "tokenURI(uint256)": {
        "details": "See {IERC721Metadata-tokenURI}."
      },
      "transferFrom(address,address,uint256)": {
        "details": "See {IERC721-transferFrom}."
      },
      "transferOwnership(address)": {
        "details": "Transfers ownership of the contract to a new account (`newOwner`). Can only be called by the current owner."
      }
    },
    "version": 1
  },
  "userdoc": {
    "kind": "user",
    "methods": {
      "setNewOwner(address)": {
        "notice": "Getter + Testing functions"
      }
    },
    "version": 1
  },
  "storageLayout": {
    "storage": [
      {
        "astId": 283,
        "contract": "contracts/LootNft.sol:LootNftCoC",
        "label": "_name",
        "offset": 0,
        "slot": "0",
        "type": "t_string_storage"
      },
      {
        "astId": 285,
        "contract": "contracts/LootNft.sol:LootNftCoC",
        "label": "_symbol",
        "offset": 0,
        "slot": "1",
        "type": "t_string_storage"
      },
      {
        "astId": 289,
        "contract": "contracts/LootNft.sol:LootNftCoC",
        "label": "_owners",
        "offset": 0,
        "slot": "2",
        "type": "t_mapping(t_uint256,t_address)"
      },
      {
        "astId": 293,
        "contract": "contracts/LootNft.sol:LootNftCoC",
        "label": "_balances",
        "offset": 0,
        "slot": "3",
        "type": "t_mapping(t_address,t_uint256)"
      },
      {
        "astId": 297,
        "contract": "contracts/LootNft.sol:LootNftCoC",
        "label": "_tokenApprovals",
        "offset": 0,
        "slot": "4",
        "type": "t_mapping(t_uint256,t_address)"
      },
      {
        "astId": 303,
        "contract": "contracts/LootNft.sol:LootNftCoC",
        "label": "_operatorApprovals",
        "offset": 0,
        "slot": "5",
        "type": "t_mapping(t_address,t_mapping(t_address,t_bool))"
      },
      {
        "astId": 1220,
        "contract": "contracts/LootNft.sol:LootNftCoC",
        "label": "_tokenURIs",
        "offset": 0,
        "slot": "6",
        "type": "t_mapping(t_uint256,t_string_storage)"
      },
      {
        "astId": 161,
        "contract": "contracts/LootNft.sol:LootNftCoC",
        "label": "_owner",
        "offset": 0,
        "slot": "7",
        "type": "t_address"
      },
      {
        "astId": 1963,
        "contract": "contracts/LootNft.sol:LootNftCoC",
        "label": "testRng",
        "offset": 0,
        "slot": "8",
        "type": "t_uint256"
      },
      {
        "astId": 1968,
        "contract": "contracts/LootNft.sol:LootNftCoC",
        "label": "s_tokenCounter",
        "offset": 0,
        "slot": "9",
        "type": "t_uint256"
      },
      {
        "astId": 1971,
        "contract": "contracts/LootNft.sol:LootNftCoC",
        "label": "s_LootTokenUris",
        "offset": 0,
        "slot": "10",
        "type": "t_array(t_string_storage)dyn_storage"
      },
      {
        "astId": 1974,
        "contract": "contracts/LootNft.sol:LootNftCoC",
        "label": "s_LootTokenUrisownedbyPlayer",
        "offset": 0,
        "slot": "11",
        "type": "t_array(t_string_storage)dyn_storage"
      },
      {
        "astId": 1976,
        "contract": "contracts/LootNft.sol:LootNftCoC",
        "label": "s_initialized",
        "offset": 0,
        "slot": "12",
        "type": "t_bool"
      },
      {
        "astId": 1980,
        "contract": "contracts/LootNft.sol:LootNftCoC",
        "label": "s_requestIdToSender",
        "offset": 0,
        "slot": "13",
        "type": "t_mapping(t_uint256,t_address)"
      },
      {
        "astId": 1986,
        "contract": "contracts/LootNft.sol:LootNftCoC",
        "label": "s_addressToTokenURI",
        "offset": 0,
        "slot": "14",
        "type": "t_mapping(t_address,t_mapping(t_uint256,t_string_storage))"
      },
      {
        "astId": 1991,
        "contract": "contracts/LootNft.sol:LootNftCoC",
        "label": "s_addressToAllTokenURIs",
        "offset": 0,
        "slot": "15",
        "type": "t_mapping(t_address,t_array(t_string_storage)dyn_storage)"
      }
    ],
    "types": {
      "t_address": {
        "encoding": "inplace",
        "label": "address",
        "numberOfBytes": "20"
      },
      "t_array(t_string_storage)dyn_storage": {
        "base": "t_string_storage",
        "encoding": "dynamic_array",
        "label": "string[]",
        "numberOfBytes": "32"
      },
      "t_bool": {
        "encoding": "inplace",
        "label": "bool",
        "numberOfBytes": "1"
      },
      "t_mapping(t_address,t_array(t_string_storage)dyn_storage)": {
        "encoding": "mapping",
        "key": "t_address",
        "label": "mapping(address => string[])",
        "numberOfBytes": "32",
        "value": "t_array(t_string_storage)dyn_storage"
      },
      "t_mapping(t_address,t_bool)": {
        "encoding": "mapping",
        "key": "t_address",
        "label": "mapping(address => bool)",
        "numberOfBytes": "32",
        "value": "t_bool"
      },
      "t_mapping(t_address,t_mapping(t_address,t_bool))": {
        "encoding": "mapping",
        "key": "t_address",
        "label": "mapping(address => mapping(address => bool))",
        "numberOfBytes": "32",
        "value": "t_mapping(t_address,t_bool)"
      },
      "t_mapping(t_address,t_mapping(t_uint256,t_string_storage))": {
        "encoding": "mapping",
        "key": "t_address",
        "label": "mapping(address => mapping(uint256 => string))",
        "numberOfBytes": "32",
        "value": "t_mapping(t_uint256,t_string_storage)"
      },
      "t_mapping(t_address,t_uint256)": {
        "encoding": "mapping",
        "key": "t_address",
        "label": "mapping(address => uint256)",
        "numberOfBytes": "32",
        "value": "t_uint256"
      },
      "t_mapping(t_uint256,t_address)": {
        "encoding": "mapping",
        "key": "t_uint256",
        "label": "mapping(uint256 => address)",
        "numberOfBytes": "32",
        "value": "t_address"
      },
      "t_mapping(t_uint256,t_string_storage)": {
        "encoding": "mapping",
        "key": "t_uint256",
        "label": "mapping(uint256 => string)",
        "numberOfBytes": "32",
        "value": "t_string_storage"
      },
      "t_string_storage": {
        "encoding": "bytes",
        "label": "string",
        "numberOfBytes": "32"
      },
      "t_uint256": {
        "encoding": "inplace",
        "label": "uint256",
        "numberOfBytes": "32"
      }
    }
  }
}