{
  "address": "0xA0dC7561Fcf9A9319746cfe57618DE723815c1A5",
  "abi": [
    {
      "inputs": [
        {
          "internalType": "address",
          "name": "vrfCoordinatorV2",
          "type": "address"
        },
        {
          "internalType": "uint64",
          "name": "subscriptionId",
          "type": "uint64"
        },
        {
          "internalType": "bytes32",
          "name": "gasLane",
          "type": "bytes32"
        },
        {
          "internalType": "uint32",
          "name": "callbackGasLimit",
          "type": "uint32"
        },
        {
          "internalType": "string[5]",
          "name": "_s_LootTokenUris",
          "type": "string[5]"
        }
      ],
      "stateMutability": "nonpayable",
      "type": "constructor"
    },
    {
      "inputs": [],
      "name": "CoCLootNft__AlreadyInitialized",
      "type": "error"
    },
    {
      "inputs": [],
      "name": "CoCLootNft__RangeOutOfBounds",
      "type": "error"
    },
    {
      "inputs": [
        {
          "internalType": "address",
          "name": "have",
          "type": "address"
        },
        {
          "internalType": "address",
          "name": "want",
          "type": "address"
        }
      ],
      "name": "OnlyCoordinatorCanFulfill",
      "type": "error"
    },
    {
      "anonymous": false,
      "inputs": [
        {
          "indexed": true,
          "internalType": "address",
          "name": "owner",
          "type": "address"
        },
        {
          "indexed": true,
          "internalType": "address",
          "name": "approved",
          "type": "address"
        },
        {
          "indexed": true,
          "internalType": "uint256",
          "name": "tokenId",
          "type": "uint256"
        }
      ],
      "name": "Approval",
      "type": "event"
    },
    {
      "anonymous": false,
      "inputs": [
        {
          "indexed": true,
          "internalType": "address",
          "name": "owner",
          "type": "address"
        },
        {
          "indexed": true,
          "internalType": "address",
          "name": "operator",
          "type": "address"
        },
        {
          "indexed": false,
          "internalType": "bool",
          "name": "approved",
          "type": "bool"
        }
      ],
      "name": "ApprovalForAll",
      "type": "event"
    },
    {
      "anonymous": false,
      "inputs": [
        {
          "indexed": true,
          "internalType": "uint256",
          "name": "tokenId",
          "type": "uint256"
        },
        {
          "indexed": true,
          "internalType": "address",
          "name": "player",
          "type": "address"
        },
        {
          "indexed": true,
          "internalType": "address",
          "name": "nftAddress",
          "type": "address"
        }
      ],
      "name": "NftMinted",
      "type": "event"
    },
    {
      "anonymous": false,
      "inputs": [
        {
          "indexed": true,
          "internalType": "address",
          "name": "previousOwner",
          "type": "address"
        },
        {
          "indexed": true,
          "internalType": "address",
          "name": "newOwner",
          "type": "address"
        }
      ],
      "name": "OwnershipTransferred",
      "type": "event"
    },
    {
      "anonymous": false,
      "inputs": [
        {
          "indexed": true,
          "internalType": "address",
          "name": "from",
          "type": "address"
        },
        {
          "indexed": true,
          "internalType": "address",
          "name": "to",
          "type": "address"
        },
        {
          "indexed": true,
          "internalType": "uint256",
          "name": "tokenId",
          "type": "uint256"
        }
      ],
      "name": "Transfer",
      "type": "event"
    },
    {
      "anonymous": false,
      "inputs": [
        {
          "indexed": true,
          "internalType": "uint256",
          "name": "requestId",
          "type": "uint256"
        },
        {
          "indexed": false,
          "internalType": "address",
          "name": "player",
          "type": "address"
        }
      ],
      "name": "lootWheelSpin",
      "type": "event"
    },
    {
      "anonymous": false,
      "inputs": [
        {
          "indexed": true,
          "internalType": "address",
          "name": "player",
          "type": "address"
        }
      ],
      "name": "unSuccesfullSpin",
      "type": "event"
    },
    {
      "inputs": [
        {
          "internalType": "address",
          "name": "_player",
          "type": "address"
        },
        {
          "internalType": "uint256",
          "name": "_randomNumber",
          "type": "uint256"
        }
      ],
      "name": "LootWheelSpinFromGameContract",
      "outputs": [],
      "stateMutability": "nonpayable",
      "type": "function"
    },
    {
      "inputs": [
        {
          "internalType": "address",
          "name": "to",
          "type": "address"
        },
        {
          "internalType": "uint256",
          "name": "tokenId",
          "type": "uint256"
        }
      ],
      "name": "approve",
      "outputs": [],
      "stateMutability": "nonpayable",
      "type": "function"
    },
    {
      "inputs": [
        {
          "internalType": "address",
          "name": "owner",
          "type": "address"
        }
      ],
      "name": "balanceOf",
      "outputs": [
        {
          "internalType": "uint256",
          "name": "",
          "type": "uint256"
        }
      ],
      "stateMutability": "view",
      "type": "function"
    },
    {
      "inputs": [
        {
          "internalType": "uint256",
          "name": "tokenId",
          "type": "uint256"
        }
      ],
      "name": "getApproved",
      "outputs": [
        {
          "internalType": "address",
          "name": "",
          "type": "address"
        }
      ],
      "stateMutability": "view",
      "type": "function"
    },
    {
      "inputs": [
        {
          "internalType": "uint256",
          "name": "index",
          "type": "uint256"
        }
      ],
      "name": "getLootTokenUris",
      "outputs": [
        {
          "internalType": "string",
          "name": "",
          "type": "string"
        }
      ],
      "stateMutability": "view",
      "type": "function"
    },
    {
      "inputs": [
        {
          "internalType": "uint256",
          "name": "requestId",
          "type": "uint256"
        }
      ],
      "name": "getPlayerfroms_requestIdToSender",
      "outputs": [
        {
          "internalType": "address",
          "name": "",
          "type": "address"
        }
      ],
      "stateMutability": "view",
      "type": "function"
    },
    {
      "inputs": [],
      "name": "getTokenCounter",
      "outputs": [
        {
          "internalType": "uint256",
          "name": "",
          "type": "uint256"
        }
      ],
      "stateMutability": "view",
      "type": "function"
    },
    {
      "inputs": [
        {
          "internalType": "address",
          "name": "player",
          "type": "address"
        },
        {
          "internalType": "uint256",
          "name": "tokenId",
          "type": "uint256"
        }
      ],
      "name": "getTokenURIfromPlayerId",
      "outputs": [
        {
          "internalType": "string",
          "name": "",
          "type": "string"
        }
      ],
      "stateMutability": "view",
      "type": "function"
    },
    {
      "inputs": [
        {
          "internalType": "address",
          "name": "owner",
          "type": "address"
        },
        {
          "internalType": "address",
          "name": "operator",
          "type": "address"
        }
      ],
      "name": "isApprovedForAll",
      "outputs": [
        {
          "internalType": "bool",
          "name": "",
          "type": "bool"
        }
      ],
      "stateMutability": "view",
      "type": "function"
    },
    {
      "inputs": [],
      "name": "name",
      "outputs": [
        {
          "internalType": "string",
          "name": "",
          "type": "string"
        }
      ],
      "stateMutability": "view",
      "type": "function"
    },
    {
      "inputs": [],
      "name": "owner",
      "outputs": [
        {
          "internalType": "address",
          "name": "",
          "type": "address"
        }
      ],
      "stateMutability": "view",
      "type": "function"
    },
    {
      "inputs": [
        {
          "internalType": "uint256",
          "name": "tokenId",
          "type": "uint256"
        }
      ],
      "name": "ownerOf",
      "outputs": [
        {
          "internalType": "address",
          "name": "",
          "type": "address"
        }
      ],
      "stateMutability": "view",
      "type": "function"
    },
    {
      "inputs": [
        {
          "internalType": "uint256",
          "name": "requestId",
          "type": "uint256"
        },
        {
          "internalType": "uint256[]",
          "name": "randomWords",
          "type": "uint256[]"
        }
      ],
      "name": "rawFulfillRandomWords",
      "outputs": [],
      "stateMutability": "nonpayable",
      "type": "function"
    },
    {
      "inputs": [],
      "name": "renounceOwnership",
      "outputs": [],
      "stateMutability": "nonpayable",
      "type": "function"
    },
    {
      "inputs": [
        {
          "internalType": "address",
          "name": "",
          "type": "address"
        },
        {
          "internalType": "uint256",
          "name": "",
          "type": "uint256"
        }
      ],
      "name": "s_addressToTokenURI",
      "outputs": [
        {
          "internalType": "string",
          "name": "",
          "type": "string"
        }
      ],
      "stateMutability": "view",
      "type": "function"
    },
    {
      "inputs": [
        {
          "internalType": "uint256",
          "name": "",
          "type": "uint256"
        }
      ],
      "name": "s_requestIdToSender",
      "outputs": [
        {
          "internalType": "address",
          "name": "",
          "type": "address"
        }
      ],
      "stateMutability": "view",
      "type": "function"
    },
    {
      "inputs": [
        {
          "internalType": "address",
          "name": "from",
          "type": "address"
        },
        {
          "internalType": "address",
          "name": "to",
          "type": "address"
        },
        {
          "internalType": "uint256",
          "name": "tokenId",
          "type": "uint256"
        }
      ],
      "name": "safeTransferFrom",
      "outputs": [],
      "stateMutability": "nonpayable",
      "type": "function"
    },
    {
      "inputs": [
        {
          "internalType": "address",
          "name": "from",
          "type": "address"
        },
        {
          "internalType": "address",
          "name": "to",
          "type": "address"
        },
        {
          "internalType": "uint256",
          "name": "tokenId",
          "type": "uint256"
        },
        {
          "internalType": "bytes",
          "name": "_data",
          "type": "bytes"
        }
      ],
      "name": "safeTransferFrom",
      "outputs": [],
      "stateMutability": "nonpayable",
      "type": "function"
    },
    {
      "inputs": [
        {
          "internalType": "address",
          "name": "operator",
          "type": "address"
        },
        {
          "internalType": "bool",
          "name": "approved",
          "type": "bool"
        }
      ],
      "name": "setApprovalForAll",
      "outputs": [],
      "stateMutability": "nonpayable",
      "type": "function"
    },
    {
      "inputs": [
        {
          "internalType": "address",
          "name": "_newOwner",
          "type": "address"
        }
      ],
      "name": "setNewOwner",
      "outputs": [],
      "stateMutability": "nonpayable",
      "type": "function"
    },
    {
      "inputs": [
        {
          "internalType": "uint256",
          "name": "_nrgSet",
          "type": "uint256"
        }
      ],
      "name": "setTestNrg",
      "outputs": [],
      "stateMutability": "nonpayable",
      "type": "function"
    },
    {
      "inputs": [
        {
          "internalType": "address",
          "name": "_player",
          "type": "address"
        }
      ],
      "name": "spinWheelRequestNRG",
      "outputs": [
        {
          "internalType": "uint256",
          "name": "requestId",
          "type": "uint256"
        }
      ],
      "stateMutability": "nonpayable",
      "type": "function"
    },
    {
      "inputs": [
        {
          "internalType": "bytes4",
          "name": "interfaceId",
          "type": "bytes4"
        }
      ],
      "name": "supportsInterface",
      "outputs": [
        {
          "internalType": "bool",
          "name": "",
          "type": "bool"
        }
      ],
      "stateMutability": "view",
      "type": "function"
    },
    {
      "inputs": [],
      "name": "symbol",
      "outputs": [
        {
          "internalType": "string",
          "name": "",
          "type": "string"
        }
      ],
      "stateMutability": "view",
      "type": "function"
    },
    {
      "inputs": [
        {
          "internalType": "uint256",
          "name": "tokenId",
          "type": "uint256"
        }
      ],
      "name": "tokenURI",
      "outputs": [
        {
          "internalType": "string",
          "name": "",
          "type": "string"
        }
      ],
      "stateMutability": "view",
      "type": "function"
    },
    {
      "inputs": [
        {
          "internalType": "address",
          "name": "from",
          "type": "address"
        },
        {
          "internalType": "address",
          "name": "to",
          "type": "address"
        },
        {
          "internalType": "uint256",
          "name": "tokenId",
          "type": "uint256"
        }
      ],
      "name": "transferFrom",
      "outputs": [],
      "stateMutability": "nonpayable",
      "type": "function"
    },
    {
      "inputs": [
        {
          "internalType": "address",
          "name": "newOwner",
          "type": "address"
        }
      ],
      "name": "transferOwnership",
      "outputs": [],
      "stateMutability": "nonpayable",
      "type": "function"
    }
  ],
  "transactionHash": "0x85b7291d7b6aa04e5c38ae6f26ace23fd429a854c57393c2408efe20d8615c7f",
  "args": [
    "0x8103B0A8A00be2DDC778e6e7eaa21791Cd364625",
    "3489",
    "0x474e34a077df58807dbe9c96d3c009b23b3c6d0cce433e59bbf5b34f823bc56c",
    "500000",
    [
      "ipfs://QmPr1VmmGmrGqKXYFpFPwkCnoxWLpTcUNTWE18oNfjReg8",
      "ipfs://QmUYjPEM8Hv9DMiRv7rgPomQe66jTciEKfdurCwpeq8c32",
      "ipfs://QmPdDVXQMvgvBKbHtf1LaJwLEVF4XCVJtmxhJapnTWpkk1",
      "ipfs://QmSneWpfgzt9iUdgy6RJaAK36ocRfYjXyVUGNSWgJCWEpS",
      "ipfs://QmVrzViE238LzGb61UDZd9tzaY3WBRah1Dn3Myw1bwvAh4"
    ]
  ],
  "numDeployments": 5,
  "solcInputHash": "0830437e2220a632958737ef789e654c",
  "bytecode": "0x61012060405260006008553480156200001757600080fd5b506040516200497c3803806200497c83398181016040528101906200003d91906200084a565b846040518060400160405280601081526020017f4c6f6f74204e465420466f7220434f43000000000000000000000000000000008152506040518060400160405280600781526020017f436f434c6f6f74000000000000000000000000000000000000000000000000008152508160009080519060200190620000c292919062000318565b508060019080519060200190620000db92919062000318565b5050508073ffffffffffffffffffffffffffffffffffffffff1660808173ffffffffffffffffffffffffffffffffffffffff1660601b8152505050620001366200012a620001d060201b60201c565b620001d860201b60201c565b8473ffffffffffffffffffffffffffffffffffffffff1660a08173ffffffffffffffffffffffffffffffffffffffff1660601b815250508260e081815250508367ffffffffffffffff1660c08167ffffffffffffffff1660c01b815250508163ffffffff166101008163ffffffff1660e01b81525050620001bd816200029e60201b60201c565b6000600981905550505050505062000956565b600033905090565b6000600760009054906101000a900473ffffffffffffffffffffffffffffffffffffffff16905081600760006101000a81548173ffffffffffffffffffffffffffffffffffffffff021916908373ffffffffffffffffffffffffffffffffffffffff1602179055508173ffffffffffffffffffffffffffffffffffffffff168173ffffffffffffffffffffffffffffffffffffffff167f8be0079c531659141344cd1fd0a4f28419497f9722a3daafe3b4186f6b6457e060405160405180910390a35050565b600b60009054906101000a900460ff1615620002e6576040517fab7bb87c00000000000000000000000000000000000000000000000000000000815260040160405180910390fd5b80600a906005620002f9929190620003a9565b506001600b60006101000a81548160ff02191690831515021790555050565b828054620003269062000920565b90600052602060002090601f0160209004810192826200034a576000855562000396565b82601f106200036557805160ff191683800117855562000396565b8280016001018555821562000396579182015b828111156200039557825182559160200191906001019062000378565b5b509050620003a5919062000410565b5090565b828054828255906000526020600020908101928215620003fd579160200282015b82811115620003fc578251829080519060200190620003eb92919062000318565b5091602001919060010190620003ca565b5b5090506200040c91906200042f565b5090565b5b808211156200042b57600081600090555060010162000411565b5090565b5b8082111562000453576000818162000449919062000457565b5060010162000430565b5090565b508054620004659062000920565b6000825580601f106200047957506200049a565b601f01602090049060005260206000209081019062000499919062000410565b5b50565b6000604051905090565b600080fd5b600080fd5b600073ffffffffffffffffffffffffffffffffffffffff82169050919050565b6000620004de82620004b1565b9050919050565b620004f081620004d1565b8114620004fc57600080fd5b50565b6000815190506200051081620004e5565b92915050565b600067ffffffffffffffff82169050919050565b620005358162000516565b81146200054157600080fd5b50565b60008151905062000555816200052a565b92915050565b6000819050919050565b62000570816200055b565b81146200057c57600080fd5b50565b600081519050620005908162000565565b92915050565b600063ffffffff82169050919050565b620005b18162000596565b8114620005bd57600080fd5b50565b600081519050620005d181620005a6565b92915050565b600080fd5b6000601f19601f8301169050919050565b7f4e487b7100000000000000000000000000000000000000000000000000000000600052604160045260246000fd5b6200062782620005dc565b810181811067ffffffffffffffff82111715620006495762000648620005ed565b5b80604052505050565b60006200065e6200049d565b90506200066c82826200061c565b919050565b600067ffffffffffffffff8211156200068f576200068e620005ed565b5b602082029050919050565b600080fd5b600080fd5b600067ffffffffffffffff821115620006c257620006c1620005ed565b5b620006cd82620005dc565b9050602081019050919050565b60005b83811015620006fa578082015181840152602081019050620006dd565b838111156200070a576000848401525b50505050565b6000620007276200072184620006a4565b62000652565b9050828152602081018484840111156200074657620007456200069f565b5b62000753848285620006da565b509392505050565b600082601f830112620007735762000772620005d7565b5b81516200078584826020860162000710565b91505092915050565b6000620007a56200079f8462000671565b62000652565b90508060208402830185811115620007c257620007c16200069a565b5b835b818110156200081057805167ffffffffffffffff811115620007eb57620007ea620005d7565b5b808601620007fa89826200075b565b85526020850194505050602081019050620007c4565b5050509392505050565b600082601f830112620008325762000831620005d7565b5b6005620008418482856200078e565b91505092915050565b600080600080600060a08688031215620008695762000868620004a7565b5b60006200087988828901620004ff565b95505060206200088c8882890162000544565b94505060406200089f888289016200057f565b9350506060620008b288828901620005c0565b925050608086015167ffffffffffffffff811115620008d657620008d5620004ac565b5b620008e4888289016200081a565b9150509295509295909350565b7f4e487b7100000000000000000000000000000000000000000000000000000000600052602260045260246000fd5b600060028204905060018216806200093957607f821691505b6020821081141562000950576200094f620008f1565b5b50919050565b60805160601c60a05160601c60c05160c01c60e0516101005160e01c613fce620009ae600039600061101d01526000610fd901526000610ffa01526000610f9d015260008181610ba30152610bf70152613fce6000f3fe608060405234801561001057600080fd5b50600436106101a95760003560e01c80638da5cb5b116100f9578063c87b56dd11610097578063e41dbb6c11610071578063e41dbb6c146104f0578063e985e9c514610520578063f2fde38b14610550578063f5a1f5b41461056c576101a9565b8063c87b56dd14610460578063c89e8fcc14610490578063d63fa9d5146104c0576101a9565b8063a22cb465116100d3578063a22cb465146103dc578063a36f573b146103f8578063a7a5b3d314610428578063b88d4fde14610444576101a9565b80638da5cb5b1461037057806395d89b411461038e578063988916e6146103ac576101a9565b80631fe543e3116101665780636352211e116101405780636352211e146102e85780636e02007d1461031857806370a0823114610336578063715018a614610366576101a9565b80631fe543e31461029457806323b872dd146102b057806342842e0e146102cc576101a9565b806301ffc9a7146101ae578063055708c9146101de57806306fdde031461020e578063081812fc1461022c578063095ea7b31461025c5780630c1b613a14610278575b600080fd5b6101c860048036038101906101c39190612aa6565b610588565b6040516101d59190612aee565b60405180910390f35b6101f860048036038101906101f39190612b9d565b61066a565b6040516102059190612c76565b60405180910390f35b610216610717565b6040516102239190612c76565b60405180910390f35b61024660048036038101906102419190612c98565b6107a9565b6040516102539190612cd4565b60405180910390f35b61027660048036038101906102719190612b9d565b61082e565b005b610292600480360381019061028d9190612b9d565b610946565b005b6102ae60048036038101906102a99190612e37565b610ba1565b005b6102ca60048036038101906102c59190612e93565b610c61565b005b6102e660048036038101906102e19190612e93565b610cc1565b005b61030260048036038101906102fd9190612c98565b610ce1565b60405161030f9190612cd4565b60405180910390f35b610320610d93565b60405161032d9190612ef5565b60405180910390f35b610350600480360381019061034b9190612f10565b610d9d565b60405161035d9190612ef5565b60405180910390f35b61036e610e55565b005b610378610edd565b6040516103859190612cd4565b60405180910390f35b610396610f07565b6040516103a39190612c76565b60405180910390f35b6103c660048036038101906103c19190612f10565b610f99565b6040516103d39190612ef5565b60405180910390f35b6103f660048036038101906103f19190612f69565b611141565b005b610412600480360381019061040d9190612c98565b6112c2565b60405161041f9190612cd4565b60405180910390f35b610442600480360381019061043d9190612c98565b6112f5565b005b61045e6004803603810190610459919061305e565b61137b565b005b61047a60048036038101906104759190612c98565b6113dd565b6040516104879190612c76565b60405180910390f35b6104aa60048036038101906104a59190612c98565b61152f565b6040516104b79190612cd4565b60405180910390f35b6104da60048036038101906104d59190612c98565b61156c565b6040516104e79190612c76565b60405180910390f35b61050a60048036038101906105059190612b9d565b61161c565b6040516105179190612c76565b60405180910390f35b61053a600480360381019061053591906130e1565b6116ff565b6040516105479190612aee565b60405180910390f35b61056a60048036038101906105659190612f10565b611793565b005b61058660048036038101906105819190612f10565b61188b565b005b60007f80ac58cd000000000000000000000000000000000000000000000000000000007bffffffffffffffffffffffffffffffffffffffffffffffffffffffff1916827bffffffffffffffffffffffffffffffffffffffffffffffffffffffff1916148061065357507f5b5e139f000000000000000000000000000000000000000000000000000000007bffffffffffffffffffffffffffffffffffffffffffffffffffffffff1916827bffffffffffffffffffffffffffffffffffffffffffffffffffffffff1916145b80610663575061066282611897565b5b9050919050565b600d60205281600052604060002060205280600052604060002060009150915050805461069690613150565b80601f01602080910402602001604051908101604052809291908181526020018280546106c290613150565b801561070f5780601f106106e45761010080835404028352916020019161070f565b820191906000526020600020905b8154815290600101906020018083116106f257829003601f168201915b505050505081565b60606000805461072690613150565b80601f016020809104026020016040519081016040528092919081815260200182805461075290613150565b801561079f5780601f106107745761010080835404028352916020019161079f565b820191906000526020600020905b81548152906001019060200180831161078257829003601f168201915b5050505050905090565b60006107b482611901565b6107f3576040517f08c379a00000000000000000000000000000000000000000000000000000000081526004016107ea906131f4565b60405180910390fd5b6004600083815260200190815260200160002060009054906101000a900473ffffffffffffffffffffffffffffffffffffffff169050919050565b600061083982610ce1565b90508073ffffffffffffffffffffffffffffffffffffffff168373ffffffffffffffffffffffffffffffffffffffff1614156108aa576040517f08c379a00000000000000000000000000000000000000000000000000000000081526004016108a190613286565b60405180910390fd5b8073ffffffffffffffffffffffffffffffffffffffff166108c961196d565b73ffffffffffffffffffffffffffffffffffffffff1614806108f857506108f7816108f261196d565b6116ff565b5b610937576040517f08c379a000000000000000000000000000000000000000000000000000000000815260040161092e90613318565b60405180910390fd5b6109418383611975565b505050565b600080600854111561095c576008549050610960565b8190505b60288110156109b1578273ffffffffffffffffffffffffffffffffffffffff167fd136ab05159fbab0757d01bb2c7da0d34f5c605a4ccabcf97bdfabc5ca006b6560405160405180910390a2610b9c565b6000600954905060016009546109c79190613367565b60098190555060006109d883611a2e565b90506109e48583611b00565b610aa682600a8360048111156109fd576109fc6133bd565b5b81548110610a0e57610a0d6133ec565b5b906000526020600020018054610a2390613150565b80601f0160208091040260200160405190810160405280929190818152602001828054610a4f90613150565b8015610a9c5780601f10610a7157610100808354040283529160200191610a9c565b820191906000526020600020905b815481529060010190602001808311610a7f57829003601f168201915b5050505050611b1e565b600a816004811115610abb57610aba6133bd565b5b81548110610acc57610acb6133ec565b5b90600052602060002001600d60008773ffffffffffffffffffffffffffffffffffffffff1673ffffffffffffffffffffffffffffffffffffffff1681526020019081526020016000206000848152602001908152602001600020908054610b3290613150565b610b3d9291906128e8565b503073ffffffffffffffffffffffffffffffffffffffff168573ffffffffffffffffffffffffffffffffffffffff16837fab74b16b28a42135ad8972d335125091cf3a1049b9555eabb27ec623160eefad60405160405180910390a450505b505050565b7f000000000000000000000000000000000000000000000000000000000000000073ffffffffffffffffffffffffffffffffffffffff163373ffffffffffffffffffffffffffffffffffffffff1614610c5357337f00000000000000000000000000000000000000000000000000000000000000006040517f1cf993f4000000000000000000000000000000000000000000000000000000008152600401610c4a92919061341b565b60405180910390fd5b610c5d8282611b92565b5050565b610c72610c6c61196d565b82611e4d565b610cb1576040517f08c379a0000000000000000000000000000000000000000000000000000000008152600401610ca8906134b6565b60405180910390fd5b610cbc838383611f2b565b505050565b610cdc8383836040518060200160405280600081525061137b565b505050565b6000806002600084815260200190815260200160002060009054906101000a900473ffffffffffffffffffffffffffffffffffffffff169050600073ffffffffffffffffffffffffffffffffffffffff168173ffffffffffffffffffffffffffffffffffffffff161415610d8a576040517f08c379a0000000000000000000000000000000000000000000000000000000008152600401610d8190613548565b60405180910390fd5b80915050919050565b6000600954905090565b60008073ffffffffffffffffffffffffffffffffffffffff168273ffffffffffffffffffffffffffffffffffffffff161415610e0e576040517f08c379a0000000000000000000000000000000000000000000000000000000008152600401610e05906135da565b60405180910390fd5b600360008373ffffffffffffffffffffffffffffffffffffffff1673ffffffffffffffffffffffffffffffffffffffff168152602001908152602001600020549050919050565b610e5d61196d565b73ffffffffffffffffffffffffffffffffffffffff16610e7b610edd565b73ffffffffffffffffffffffffffffffffffffffff1614610ed1576040517f08c379a0000000000000000000000000000000000000000000000000000000008152600401610ec890613646565b60405180910390fd5b610edb6000612187565b565b6000600760009054906101000a900473ffffffffffffffffffffffffffffffffffffffff16905090565b606060018054610f1690613150565b80601f0160208091040260200160405190810160405280929190818152602001828054610f4290613150565b8015610f8f5780601f10610f6457610100808354040283529160200191610f8f565b820191906000526020600020905b815481529060010190602001808311610f7257829003601f168201915b5050505050905090565b60007f000000000000000000000000000000000000000000000000000000000000000073ffffffffffffffffffffffffffffffffffffffff16635d3b1d307f00000000000000000000000000000000000000000000000000000000000000007f000000000000000000000000000000000000000000000000000000000000000060037f000000000000000000000000000000000000000000000000000000000000000060056040518663ffffffff1660e01b815260040161105e9594939291906136de565b602060405180830381600087803b15801561107857600080fd5b505af115801561108c573d6000803e3d6000fd5b505050506040513d601f19601f820116820180604052508101906110b09190613746565b905081600c600083815260200190815260200160002060006101000a81548173ffffffffffffffffffffffffffffffffffffffff021916908373ffffffffffffffffffffffffffffffffffffffff160217905550807f5b2496149b2034ae9066ce6e9c7387566544fa2726fd6a0d976a6e609c972e90836040516111349190612cd4565b60405180910390a2919050565b61114961196d565b73ffffffffffffffffffffffffffffffffffffffff168273ffffffffffffffffffffffffffffffffffffffff1614156111b7576040517f08c379a00000000000000000000000000000000000000000000000000000000081526004016111ae906137bf565b60405180910390fd5b80600560006111c461196d565b73ffffffffffffffffffffffffffffffffffffffff1673ffffffffffffffffffffffffffffffffffffffff16815260200190815260200160002060008473ffffffffffffffffffffffffffffffffffffffff1673ffffffffffffffffffffffffffffffffffffffff16815260200190815260200160002060006101000a81548160ff0219169083151502179055508173ffffffffffffffffffffffffffffffffffffffff1661127161196d565b73ffffffffffffffffffffffffffffffffffffffff167f17307eab39ab6107e8899845ad3d59bd9653f200f220920489ca2b5937696c31836040516112b69190612aee565b60405180910390a35050565b600c6020528060005260406000206000915054906101000a900473ffffffffffffffffffffffffffffffffffffffff1681565b6112fd61196d565b73ffffffffffffffffffffffffffffffffffffffff1661131b610edd565b73ffffffffffffffffffffffffffffffffffffffff1614611371576040517f08c379a000000000000000000000000000000000000000000000000000000000815260040161136890613646565b60405180910390fd5b8060088190555050565b61138c61138661196d565b83611e4d565b6113cb576040517f08c379a00000000000000000000000000000000000000000000000000000000081526004016113c2906134b6565b60405180910390fd5b6113d78484848461224d565b50505050565b60606113e882611901565b611427576040517f08c379a000000000000000000000000000000000000000000000000000000000815260040161141e90613851565b60405180910390fd5b600060066000848152602001908152602001600020805461144790613150565b80601f016020809104026020016040519081016040528092919081815260200182805461147390613150565b80156114c05780601f10611495576101008083540402835291602001916114c0565b820191906000526020600020905b8154815290600101906020018083116114a357829003601f168201915b5050505050905060006114d16122a9565b90506000815114156114e757819250505061152a565b60008251111561151c5780826040516020016115049291906138ad565b6040516020818303038152906040529250505061152a565b611525846122c0565b925050505b919050565b6000600c600083815260200190815260200160002060009054906101000a900473ffffffffffffffffffffffffffffffffffffffff169050919050565b6060600a8281548110611582576115816133ec565b5b90600052602060002001805461159790613150565b80601f01602080910402602001604051908101604052809291908181526020018280546115c390613150565b80156116105780601f106115e557610100808354040283529160200191611610565b820191906000526020600020905b8154815290600101906020018083116115f357829003601f168201915b50505050509050919050565b6060600d60008473ffffffffffffffffffffffffffffffffffffffff1673ffffffffffffffffffffffffffffffffffffffff1681526020019081526020016000206000838152602001908152602001600020805461167990613150565b80601f01602080910402602001604051908101604052809291908181526020018280546116a590613150565b80156116f25780601f106116c7576101008083540402835291602001916116f2565b820191906000526020600020905b8154815290600101906020018083116116d557829003601f168201915b5050505050905092915050565b6000600560008473ffffffffffffffffffffffffffffffffffffffff1673ffffffffffffffffffffffffffffffffffffffff16815260200190815260200160002060008373ffffffffffffffffffffffffffffffffffffffff1673ffffffffffffffffffffffffffffffffffffffff16815260200190815260200160002060009054906101000a900460ff16905092915050565b61179b61196d565b73ffffffffffffffffffffffffffffffffffffffff166117b9610edd565b73ffffffffffffffffffffffffffffffffffffffff161461180f576040517f08c379a000000000000000000000000000000000000000000000000000000000815260040161180690613646565b60405180910390fd5b600073ffffffffffffffffffffffffffffffffffffffff168173ffffffffffffffffffffffffffffffffffffffff16141561187f576040517f08c379a000000000000000000000000000000000000000000000000000000000815260040161187690613943565b60405180910390fd5b61188881612187565b50565b61189481611793565b50565b60007f01ffc9a7000000000000000000000000000000000000000000000000000000007bffffffffffffffffffffffffffffffffffffffffffffffffffffffff1916827bffffffffffffffffffffffffffffffffffffffffffffffffffffffff1916149050919050565b60008073ffffffffffffffffffffffffffffffffffffffff166002600084815260200190815260200160002060009054906101000a900473ffffffffffffffffffffffffffffffffffffffff1673ffffffffffffffffffffffffffffffffffffffff1614159050919050565b600033905090565b816004600083815260200190815260200160002060006101000a81548173ffffffffffffffffffffffffffffffffffffffff021916908373ffffffffffffffffffffffffffffffffffffffff160217905550808273ffffffffffffffffffffffffffffffffffffffff166119e883610ce1565b73ffffffffffffffffffffffffffffffffffffffff167f8c5be1e5ebec7d5bd14f71427d1e84f3dd0314c0f7b2291e5b200ac8c7c3b92560405160405180910390a45050565b600080600090506000611a3f612367565b905060005b6005811015611ac857828510158015611a765750818160058110611a6b57611a6a6133ec565b5b602002015160ff1685105b15611a9857806004811115611a8e57611a8d6133bd565b5b9350505050611afb565b818160058110611aab57611aaa6133ec565b5b602002015160ff1692508080611ac090613963565b915050611a44565b506040517f09dbe20500000000000000000000000000000000000000000000000000000000815260040160405180910390fd5b919050565b611b1a8282604051806020016040528060008152506123af565b5050565b611b2782611901565b611b66576040517f08c379a0000000000000000000000000000000000000000000000000000000008152600401611b5d90613a1e565b60405180910390fd5b80600660008481526020019081526020016000209080519060200190611b8d929190612975565b505050565b600080600c600085815260200190815260200160002060009054906101000a900473ffffffffffffffffffffffffffffffffffffffff16905060006008541115611be0576008549150611c0b565b606483600081518110611bf657611bf56133ec565b5b6020026020010151611c089190613a6d565b91505b6028821015611c5c578073ffffffffffffffffffffffffffffffffffffffff167fd136ab05159fbab0757d01bb2c7da0d34f5c605a4ccabcf97bdfabc5ca006b6560405160405180910390a2611e47565b600060095490506001600954611c729190613367565b6009819055506000611c8384611a2e565b9050611c8f8383611b00565b611d5182600a836004811115611ca857611ca76133bd565b5b81548110611cb957611cb86133ec565b5b906000526020600020018054611cce90613150565b80601f0160208091040260200160405190810160405280929190818152602001828054611cfa90613150565b8015611d475780601f10611d1c57610100808354040283529160200191611d47565b820191906000526020600020905b815481529060010190602001808311611d2a57829003601f168201915b5050505050611b1e565b600a816004811115611d6657611d656133bd565b5b81548110611d7757611d766133ec565b5b90600052602060002001600d60008573ffffffffffffffffffffffffffffffffffffffff1673ffffffffffffffffffffffffffffffffffffffff1681526020019081526020016000206000848152602001908152602001600020908054611ddd90613150565b611de89291906128e8565b503073ffffffffffffffffffffffffffffffffffffffff168373ffffffffffffffffffffffffffffffffffffffff16837fab74b16b28a42135ad8972d335125091cf3a1049b9555eabb27ec623160eefad60405160405180910390a450505b50505050565b6000611e5882611901565b611e97576040517f08c379a0000000000000000000000000000000000000000000000000000000008152600401611e8e90613b10565b60405180910390fd5b6000611ea283610ce1565b90508073ffffffffffffffffffffffffffffffffffffffff168473ffffffffffffffffffffffffffffffffffffffff161480611f1157508373ffffffffffffffffffffffffffffffffffffffff16611ef9846107a9565b73ffffffffffffffffffffffffffffffffffffffff16145b80611f225750611f2181856116ff565b5b91505092915050565b8273ffffffffffffffffffffffffffffffffffffffff16611f4b82610ce1565b73ffffffffffffffffffffffffffffffffffffffff1614611fa1576040517f08c379a0000000000000000000000000000000000000000000000000000000008152600401611f9890613ba2565b60405180910390fd5b600073ffffffffffffffffffffffffffffffffffffffff168273ffffffffffffffffffffffffffffffffffffffff161415612011576040517f08c379a000000000000000000000000000000000000000000000000000000000815260040161200890613c34565b60405180910390fd5b61201c83838361240a565b612027600082611975565b6001600360008573ffffffffffffffffffffffffffffffffffffffff1673ffffffffffffffffffffffffffffffffffffffff16815260200190815260200160002060008282546120779190613c54565b925050819055506001600360008473ffffffffffffffffffffffffffffffffffffffff1673ffffffffffffffffffffffffffffffffffffffff16815260200190815260200160002060008282546120ce9190613367565b92505081905550816002600083815260200190815260200160002060006101000a81548173ffffffffffffffffffffffffffffffffffffffff021916908373ffffffffffffffffffffffffffffffffffffffff160217905550808273ffffffffffffffffffffffffffffffffffffffff168473ffffffffffffffffffffffffffffffffffffffff167fddf252ad1be2c89b69c2b068fc378daa952ba7f163c4a11628f55a4df523b3ef60405160405180910390a4505050565b6000600760009054906101000a900473ffffffffffffffffffffffffffffffffffffffff16905081600760006101000a81548173ffffffffffffffffffffffffffffffffffffffff021916908373ffffffffffffffffffffffffffffffffffffffff1602179055508173ffffffffffffffffffffffffffffffffffffffff168173ffffffffffffffffffffffffffffffffffffffff167f8be0079c531659141344cd1fd0a4f28419497f9722a3daafe3b4186f6b6457e060405160405180910390a35050565b612258848484611f2b565b6122648484848461240f565b6122a3576040517f08c379a000000000000000000000000000000000000000000000000000000000815260040161229a90613cfa565b60405180910390fd5b50505050565b606060405180602001604052806000815250905090565b60606122cb82611901565b61230a576040517f08c379a000000000000000000000000000000000000000000000000000000000815260040161230190613d8c565b60405180910390fd5b60006123146122a9565b90506000815111612334576040518060200160405280600081525061235f565b8061233e846125a6565b60405160200161234f9291906138ad565b6040516020818303038152906040525b915050919050565b61236f6129fb565b6040518060a00160405280601460ff168152602001603260ff168152602001604b60ff168152602001605a60ff168152602001606260ff16815250905090565b6123b98383612707565b6123c6600084848461240f565b612405576040517f08c379a00000000000000000000000000000000000000000000000000000000081526004016123fc90613cfa565b60405180910390fd5b505050565b505050565b60006124308473ffffffffffffffffffffffffffffffffffffffff166128d5565b15612599578373ffffffffffffffffffffffffffffffffffffffff1663150b7a0261245961196d565b8786866040518563ffffffff1660e01b815260040161247b9493929190613e01565b602060405180830381600087803b15801561249557600080fd5b505af19250505080156124c657506040513d601f19601f820116820180604052508101906124c39190613e62565b60015b612549573d80600081146124f6576040519150601f19603f3d011682016040523d82523d6000602084013e6124fb565b606091505b50600081511415612541576040517f08c379a000000000000000000000000000000000000000000000000000000000815260040161253890613cfa565b60405180910390fd5b805181602001fd5b63150b7a0260e01b7bffffffffffffffffffffffffffffffffffffffffffffffffffffffff1916817bffffffffffffffffffffffffffffffffffffffffffffffffffffffff19161491505061259e565b600190505b949350505050565b606060008214156125ee576040518060400160405280600181526020017f30000000000000000000000000000000000000000000000000000000000000008152509050612702565b600082905060005b6000821461262057808061260990613963565b915050600a826126199190613e8f565b91506125f6565b60008167ffffffffffffffff81111561263c5761263b612cf4565b5b6040519080825280601f01601f19166020018201604052801561266e5781602001600182028036833780820191505090505b5090505b600085146126fb576001826126879190613c54565b9150600a856126969190613a6d565b60306126a29190613367565b60f81b8183815181106126b8576126b76133ec565b5b60200101907effffffffffffffffffffffffffffffffffffffffffffffffffffffffffffff1916908160001a905350600a856126f49190613e8f565b9450612672565b8093505050505b919050565b600073ffffffffffffffffffffffffffffffffffffffff168273ffffffffffffffffffffffffffffffffffffffff161415612777576040517f08c379a000000000000000000000000000000000000000000000000000000000815260040161276e90613f0c565b60405180910390fd5b61278081611901565b156127c0576040517f08c379a00000000000000000000000000000000000000000000000000000000081526004016127b790613f78565b60405180910390fd5b6127cc6000838361240a565b6001600360008473ffffffffffffffffffffffffffffffffffffffff1673ffffffffffffffffffffffffffffffffffffffff168152602001908152602001600020600082825461281c9190613367565b92505081905550816002600083815260200190815260200160002060006101000a81548173ffffffffffffffffffffffffffffffffffffffff021916908373ffffffffffffffffffffffffffffffffffffffff160217905550808273ffffffffffffffffffffffffffffffffffffffff16600073ffffffffffffffffffffffffffffffffffffffff167fddf252ad1be2c89b69c2b068fc378daa952ba7f163c4a11628f55a4df523b3ef60405160405180910390a45050565b600080823b905060008111915050919050565b8280546128f490613150565b90600052602060002090601f0160209004810192826129165760008555612964565b82601f106129275780548555612964565b8280016001018555821561296457600052602060002091601f016020900482015b82811115612963578254825591600101919060010190612948565b5b5090506129719190612a1d565b5090565b82805461298190613150565b90600052602060002090601f0160209004810192826129a357600085556129ea565b82601f106129bc57805160ff19168380011785556129ea565b828001600101855582156129ea579182015b828111156129e95782518255916020019190600101906129ce565b5b5090506129f79190612a1d565b5090565b6040518060a00160405280600590602082028036833780820191505090505090565b5b80821115612a36576000816000905550600101612a1e565b5090565b6000604051905090565b600080fd5b600080fd5b60007fffffffff0000000000000000000000000000000000000000000000000000000082169050919050565b612a8381612a4e565b8114612a8e57600080fd5b50565b600081359050612aa081612a7a565b92915050565b600060208284031215612abc57612abb612a44565b5b6000612aca84828501612a91565b91505092915050565b60008115159050919050565b612ae881612ad3565b82525050565b6000602082019050612b036000830184612adf565b92915050565b600073ffffffffffffffffffffffffffffffffffffffff82169050919050565b6000612b3482612b09565b9050919050565b612b4481612b29565b8114612b4f57600080fd5b50565b600081359050612b6181612b3b565b92915050565b6000819050919050565b612b7a81612b67565b8114612b8557600080fd5b50565b600081359050612b9781612b71565b92915050565b60008060408385031215612bb457612bb3612a44565b5b6000612bc285828601612b52565b9250506020612bd385828601612b88565b9150509250929050565b600081519050919050565b600082825260208201905092915050565b60005b83811015612c17578082015181840152602081019050612bfc565b83811115612c26576000848401525b50505050565b6000601f19601f8301169050919050565b6000612c4882612bdd565b612c528185612be8565b9350612c62818560208601612bf9565b612c6b81612c2c565b840191505092915050565b60006020820190508181036000830152612c908184612c3d565b905092915050565b600060208284031215612cae57612cad612a44565b5b6000612cbc84828501612b88565b91505092915050565b612cce81612b29565b82525050565b6000602082019050612ce96000830184612cc5565b92915050565b600080fd5b7f4e487b7100000000000000000000000000000000000000000000000000000000600052604160045260246000fd5b612d2c82612c2c565b810181811067ffffffffffffffff82111715612d4b57612d4a612cf4565b5b80604052505050565b6000612d5e612a3a565b9050612d6a8282612d23565b919050565b600067ffffffffffffffff821115612d8a57612d89612cf4565b5b602082029050602081019050919050565b600080fd5b6000612db3612dae84612d6f565b612d54565b90508083825260208201905060208402830185811115612dd657612dd5612d9b565b5b835b81811015612dff5780612deb8882612b88565b845260208401935050602081019050612dd8565b5050509392505050565b600082601f830112612e1e57612e1d612cef565b5b8135612e2e848260208601612da0565b91505092915050565b60008060408385031215612e4e57612e4d612a44565b5b6000612e5c85828601612b88565b925050602083013567ffffffffffffffff811115612e7d57612e7c612a49565b5b612e8985828601612e09565b9150509250929050565b600080600060608486031215612eac57612eab612a44565b5b6000612eba86828701612b52565b9350506020612ecb86828701612b52565b9250506040612edc86828701612b88565b9150509250925092565b612eef81612b67565b82525050565b6000602082019050612f0a6000830184612ee6565b92915050565b600060208284031215612f2657612f25612a44565b5b6000612f3484828501612b52565b91505092915050565b612f4681612ad3565b8114612f5157600080fd5b50565b600081359050612f6381612f3d565b92915050565b60008060408385031215612f8057612f7f612a44565b5b6000612f8e85828601612b52565b9250506020612f9f85828601612f54565b9150509250929050565b600080fd5b600067ffffffffffffffff821115612fc957612fc8612cf4565b5b612fd282612c2c565b9050602081019050919050565b82818337600083830152505050565b6000613001612ffc84612fae565b612d54565b90508281526020810184848401111561301d5761301c612fa9565b5b613028848285612fdf565b509392505050565b600082601f83011261304557613044612cef565b5b8135613055848260208601612fee565b91505092915050565b6000806000806080858703121561307857613077612a44565b5b600061308687828801612b52565b945050602061309787828801612b52565b93505060406130a887828801612b88565b925050606085013567ffffffffffffffff8111156130c9576130c8612a49565b5b6130d587828801613030565b91505092959194509250565b600080604083850312156130f8576130f7612a44565b5b600061310685828601612b52565b925050602061311785828601612b52565b9150509250929050565b7f4e487b7100000000000000000000000000000000000000000000000000000000600052602260045260246000fd5b6000600282049050600182168061316857607f821691505b6020821081141561317c5761317b613121565b5b50919050565b7f4552433732313a20617070726f76656420717565727920666f72206e6f6e657860008201527f697374656e7420746f6b656e0000000000000000000000000000000000000000602082015250565b60006131de602c83612be8565b91506131e982613182565b604082019050919050565b6000602082019050818103600083015261320d816131d1565b9050919050565b7f4552433732313a20617070726f76616c20746f2063757272656e74206f776e6560008201527f7200000000000000000000000000000000000000000000000000000000000000602082015250565b6000613270602183612be8565b915061327b82613214565b604082019050919050565b6000602082019050818103600083015261329f81613263565b9050919050565b7f4552433732313a20617070726f76652063616c6c6572206973206e6f74206f7760008201527f6e6572206e6f7220617070726f76656420666f7220616c6c0000000000000000602082015250565b6000613302603883612be8565b915061330d826132a6565b604082019050919050565b60006020820190508181036000830152613331816132f5565b9050919050565b7f4e487b7100000000000000000000000000000000000000000000000000000000600052601160045260246000fd5b600061337282612b67565b915061337d83612b67565b9250827fffffffffffffffffffffffffffffffffffffffffffffffffffffffffffffffff038211156133b2576133b1613338565b5b828201905092915050565b7f4e487b7100000000000000000000000000000000000000000000000000000000600052602160045260246000fd5b7f4e487b7100000000000000000000000000000000000000000000000000000000600052603260045260246000fd5b60006040820190506134306000830185612cc5565b61343d6020830184612cc5565b9392505050565b7f4552433732313a207472616e736665722063616c6c6572206973206e6f74206f60008201527f776e6572206e6f7220617070726f766564000000000000000000000000000000602082015250565b60006134a0603183612be8565b91506134ab82613444565b604082019050919050565b600060208201905081810360008301526134cf81613493565b9050919050565b7f4552433732313a206f776e657220717565727920666f72206e6f6e657869737460008201527f656e7420746f6b656e0000000000000000000000000000000000000000000000602082015250565b6000613532602983612be8565b915061353d826134d6565b604082019050919050565b6000602082019050818103600083015261356181613525565b9050919050565b7f4552433732313a2062616c616e636520717565727920666f7220746865207a6560008201527f726f206164647265737300000000000000000000000000000000000000000000602082015250565b60006135c4602a83612be8565b91506135cf82613568565b604082019050919050565b600060208201905081810360008301526135f3816135b7565b9050919050565b7f4f776e61626c653a2063616c6c6572206973206e6f7420746865206f776e6572600082015250565b6000613630602083612be8565b915061363b826135fa565b602082019050919050565b6000602082019050818103600083015261365f81613623565b9050919050565b6000819050919050565b61367981613666565b82525050565b600067ffffffffffffffff82169050919050565b61369c8161367f565b82525050565b600061ffff82169050919050565b6136b9816136a2565b82525050565b600063ffffffff82169050919050565b6136d8816136bf565b82525050565b600060a0820190506136f36000830188613670565b6137006020830187613693565b61370d60408301866136b0565b61371a60608301856136cf565b61372760808301846136cf565b9695505050505050565b60008151905061374081612b71565b92915050565b60006020828403121561375c5761375b612a44565b5b600061376a84828501613731565b91505092915050565b7f4552433732313a20617070726f766520746f2063616c6c657200000000000000600082015250565b60006137a9601983612be8565b91506137b482613773565b602082019050919050565b600060208201905081810360008301526137d88161379c565b9050919050565b7f45524337323155524953746f726167653a2055524920717565727920666f722060008201527f6e6f6e6578697374656e7420746f6b656e000000000000000000000000000000602082015250565b600061383b603183612be8565b9150613846826137df565b604082019050919050565b6000602082019050818103600083015261386a8161382e565b9050919050565b600081905092915050565b600061388782612bdd565b6138918185613871565b93506138a1818560208601612bf9565b80840191505092915050565b60006138b9828561387c565b91506138c5828461387c565b91508190509392505050565b7f4f776e61626c653a206e6577206f776e657220697320746865207a65726f206160008201527f6464726573730000000000000000000000000000000000000000000000000000602082015250565b600061392d602683612be8565b9150613938826138d1565b604082019050919050565b6000602082019050818103600083015261395c81613920565b9050919050565b600061396e82612b67565b91507fffffffffffffffffffffffffffffffffffffffffffffffffffffffffffffffff8214156139a1576139a0613338565b5b600182019050919050565b7f45524337323155524953746f726167653a2055524920736574206f66206e6f6e60008201527f6578697374656e7420746f6b656e000000000000000000000000000000000000602082015250565b6000613a08602e83612be8565b9150613a13826139ac565b604082019050919050565b60006020820190508181036000830152613a37816139fb565b9050919050565b7f4e487b7100000000000000000000000000000000000000000000000000000000600052601260045260246000fd5b6000613a7882612b67565b9150613a8383612b67565b925082613a9357613a92613a3e565b5b828206905092915050565b7f4552433732313a206f70657261746f7220717565727920666f72206e6f6e657860008201527f697374656e7420746f6b656e0000000000000000000000000000000000000000602082015250565b6000613afa602c83612be8565b9150613b0582613a9e565b604082019050919050565b60006020820190508181036000830152613b2981613aed565b9050919050565b7f4552433732313a207472616e73666572206f6620746f6b656e2074686174206960008201527f73206e6f74206f776e0000000000000000000000000000000000000000000000602082015250565b6000613b8c602983612be8565b9150613b9782613b30565b604082019050919050565b60006020820190508181036000830152613bbb81613b7f565b9050919050565b7f4552433732313a207472616e7366657220746f20746865207a65726f2061646460008201527f7265737300000000000000000000000000000000000000000000000000000000602082015250565b6000613c1e602483612be8565b9150613c2982613bc2565b604082019050919050565b60006020820190508181036000830152613c4d81613c11565b9050919050565b6000613c5f82612b67565b9150613c6a83612b67565b925082821015613c7d57613c7c613338565b5b828203905092915050565b7f4552433732313a207472616e7366657220746f206e6f6e20455243373231526560008201527f63656976657220696d706c656d656e7465720000000000000000000000000000602082015250565b6000613ce4603283612be8565b9150613cef82613c88565b604082019050919050565b60006020820190508181036000830152613d1381613cd7565b9050919050565b7f4552433732314d657461646174613a2055524920717565727920666f72206e6f60008201527f6e6578697374656e7420746f6b656e0000000000000000000000000000000000602082015250565b6000613d76602f83612be8565b9150613d8182613d1a565b604082019050919050565b60006020820190508181036000830152613da581613d69565b9050919050565b600081519050919050565b600082825260208201905092915050565b6000613dd382613dac565b613ddd8185613db7565b9350613ded818560208601612bf9565b613df681612c2c565b840191505092915050565b6000608082019050613e166000830187612cc5565b613e236020830186612cc5565b613e306040830185612ee6565b8181036060830152613e428184613dc8565b905095945050505050565b600081519050613e5c81612a7a565b92915050565b600060208284031215613e7857613e77612a44565b5b6000613e8684828501613e4d565b91505092915050565b6000613e9a82612b67565b9150613ea583612b67565b925082613eb557613eb4613a3e565b5b828204905092915050565b7f4552433732313a206d696e7420746f20746865207a65726f2061646472657373600082015250565b6000613ef6602083612be8565b9150613f0182613ec0565b602082019050919050565b60006020820190508181036000830152613f2581613ee9565b9050919050565b7f4552433732313a20746f6b656e20616c7265616479206d696e74656400000000600082015250565b6000613f62601c83612be8565b9150613f6d82613f2c565b602082019050919050565b60006020820190508181036000830152613f9181613f55565b905091905056fea26469706673582212204823665cf2162e4d5e7666e60e7b32be96f039a46fea50ed0447b231b937a55564736f6c63430008080033",
  "devdoc": {
    "kind": "dev",
    "methods": {
      "approve(address,uint256)": {
        "details": "See {IERC721-approve}."
      },
      "balanceOf(address)": {
        "details": "See {IERC721-balanceOf}."
      },
      "getApproved(uint256)": {
        "details": "See {IERC721-getApproved}."
      },
      "isApprovedForAll(address,address)": {
        "details": "See {IERC721-isApprovedForAll}."
      },
      "name()": {
        "details": "See {IERC721Metadata-name}."
      },
      "owner()": {
        "details": "Returns the address of the current owner."
      },
      "ownerOf(uint256)": {
        "details": "See {IERC721-ownerOf}."
      },
      "renounceOwnership()": {
        "details": "Leaves the contract without owner. It will not be possible to call `onlyOwner` functions anymore. Can only be called by the current owner. NOTE: Renouncing ownership will leave the contract without an owner, thereby removing any functionality that is only available to the owner."
      },
      "safeTransferFrom(address,address,uint256)": {
        "details": "See {IERC721-safeTransferFrom}."
      },
      "safeTransferFrom(address,address,uint256,bytes)": {
        "details": "See {IERC721-safeTransferFrom}."
      },
      "setApprovalForAll(address,bool)": {
        "details": "See {IERC721-setApprovalForAll}."
      },
      "supportsInterface(bytes4)": {
        "details": "See {IERC165-supportsInterface}."
      },
      "symbol()": {
        "details": "See {IERC721Metadata-symbol}."
      },
      "tokenURI(uint256)": {
        "details": "See {IERC721Metadata-tokenURI}."
      },
      "transferFrom(address,address,uint256)": {
        "details": "See {IERC721-transferFrom}."
      },
      "transferOwnership(address)": {
        "details": "Transfers ownership of the contract to a new account (`newOwner`). Can only be called by the current owner."
      }
    },
    "version": 1
  },
  "userdoc": {
    "kind": "user",
    "methods": {
      "setNewOwner(address)": {
        "notice": "Getter + Testing functions"
      }
    },
    "version": 1
  },
  "storageLayout": {
    "storage": [
      {
        "astId": 283,
        "contract": "contracts/LootNft.sol:LootNftCoC",
        "label": "_name",
        "offset": 0,
        "slot": "0",
        "type": "t_string_storage"
      },
      {
        "astId": 285,
        "contract": "contracts/LootNft.sol:LootNftCoC",
        "label": "_symbol",
        "offset": 0,
        "slot": "1",
        "type": "t_string_storage"
      },
      {
        "astId": 289,
        "contract": "contracts/LootNft.sol:LootNftCoC",
        "label": "_owners",
        "offset": 0,
        "slot": "2",
        "type": "t_mapping(t_uint256,t_address)"
      },
      {
        "astId": 293,
        "contract": "contracts/LootNft.sol:LootNftCoC",
        "label": "_balances",
        "offset": 0,
        "slot": "3",
        "type": "t_mapping(t_address,t_uint256)"
      },
      {
        "astId": 297,
        "contract": "contracts/LootNft.sol:LootNftCoC",
        "label": "_tokenApprovals",
        "offset": 0,
        "slot": "4",
        "type": "t_mapping(t_uint256,t_address)"
      },
      {
        "astId": 303,
        "contract": "contracts/LootNft.sol:LootNftCoC",
        "label": "_operatorApprovals",
        "offset": 0,
        "slot": "5",
        "type": "t_mapping(t_address,t_mapping(t_address,t_bool))"
      },
      {
        "astId": 1220,
        "contract": "contracts/LootNft.sol:LootNftCoC",
        "label": "_tokenURIs",
        "offset": 0,
        "slot": "6",
        "type": "t_mapping(t_uint256,t_string_storage)"
      },
      {
        "astId": 161,
        "contract": "contracts/LootNft.sol:LootNftCoC",
        "label": "_owner",
        "offset": 0,
        "slot": "7",
        "type": "t_address"
      },
      {
        "astId": 1963,
        "contract": "contracts/LootNft.sol:LootNftCoC",
        "label": "testRng",
        "offset": 0,
        "slot": "8",
        "type": "t_uint256"
      },
      {
        "astId": 1968,
        "contract": "contracts/LootNft.sol:LootNftCoC",
        "label": "s_tokenCounter",
        "offset": 0,
        "slot": "9",
        "type": "t_uint256"
      },
      {
        "astId": 1971,
        "contract": "contracts/LootNft.sol:LootNftCoC",
        "label": "s_LootTokenUris",
        "offset": 0,
        "slot": "10",
        "type": "t_array(t_string_storage)dyn_storage"
      },
      {
        "astId": 1973,
        "contract": "contracts/LootNft.sol:LootNftCoC",
        "label": "s_initialized",
        "offset": 0,
        "slot": "11",
        "type": "t_bool"
      },
      {
        "astId": 1977,
        "contract": "contracts/LootNft.sol:LootNftCoC",
        "label": "s_requestIdToSender",
        "offset": 0,
        "slot": "12",
        "type": "t_mapping(t_uint256,t_address)"
      },
      {
        "astId": 1983,
        "contract": "contracts/LootNft.sol:LootNftCoC",
        "label": "s_addressToTokenURI",
        "offset": 0,
        "slot": "13",
        "type": "t_mapping(t_address,t_mapping(t_uint256,t_string_storage))"
      }
    ],
    "types": {
      "t_address": {
        "encoding": "inplace",
        "label": "address",
        "numberOfBytes": "20"
      },
      "t_array(t_string_storage)dyn_storage": {
        "base": "t_string_storage",
        "encoding": "dynamic_array",
        "label": "string[]",
        "numberOfBytes": "32"
      },
      "t_bool": {
        "encoding": "inplace",
        "label": "bool",
        "numberOfBytes": "1"
      },
      "t_mapping(t_address,t_bool)": {
        "encoding": "mapping",
        "key": "t_address",
        "label": "mapping(address => bool)",
        "numberOfBytes": "32",
        "value": "t_bool"
      },
      "t_mapping(t_address,t_mapping(t_address,t_bool))": {
        "encoding": "mapping",
        "key": "t_address",
        "label": "mapping(address => mapping(address => bool))",
        "numberOfBytes": "32",
        "value": "t_mapping(t_address,t_bool)"
      },
      "t_mapping(t_address,t_mapping(t_uint256,t_string_storage))": {
        "encoding": "mapping",
        "key": "t_address",
        "label": "mapping(address => mapping(uint256 => string))",
        "numberOfBytes": "32",
        "value": "t_mapping(t_uint256,t_string_storage)"
      },
      "t_mapping(t_address,t_uint256)": {
        "encoding": "mapping",
        "key": "t_address",
        "label": "mapping(address => uint256)",
        "numberOfBytes": "32",
        "value": "t_uint256"
      },
      "t_mapping(t_uint256,t_address)": {
        "encoding": "mapping",
        "key": "t_uint256",
        "label": "mapping(uint256 => address)",
        "numberOfBytes": "32",
        "value": "t_address"
      },
      "t_mapping(t_uint256,t_string_storage)": {
        "encoding": "mapping",
        "key": "t_uint256",
        "label": "mapping(uint256 => string)",
        "numberOfBytes": "32",
        "value": "t_string_storage"
      },
      "t_string_storage": {
        "encoding": "bytes",
        "label": "string",
        "numberOfBytes": "32"
      },
      "t_uint256": {
        "encoding": "inplace",
        "label": "uint256",
        "numberOfBytes": "32"
      }
    }
  }
}