{
  "address": "0xD4713bd477bE5BfFf12870877ACcB419A2fa497C",
  "abi": [
    {
      "inputs": [
        {
          "internalType": "address",
          "name": "vrfCoordinatorV2",
          "type": "address"
        },
        {
          "internalType": "uint64",
          "name": "subscriptionId",
          "type": "uint64"
        },
        {
          "internalType": "bytes32",
          "name": "gasLane",
          "type": "bytes32"
        },
        {
          "internalType": "uint32",
          "name": "callbackGasLimit",
          "type": "uint32"
        },
        {
          "internalType": "string[5]",
          "name": "_s_LootTokenUris",
          "type": "string[5]"
        }
      ],
      "stateMutability": "nonpayable",
      "type": "constructor"
    },
    {
      "inputs": [],
      "name": "CoCLootNft__AlreadyInitialized",
      "type": "error"
    },
    {
      "inputs": [],
      "name": "CoCLootNft__RangeOutOfBounds",
      "type": "error"
    },
    {
      "inputs": [
        {
          "internalType": "address",
          "name": "have",
          "type": "address"
        },
        {
          "internalType": "address",
          "name": "want",
          "type": "address"
        }
      ],
      "name": "OnlyCoordinatorCanFulfill",
      "type": "error"
    },
    {
      "anonymous": false,
      "inputs": [
        {
          "indexed": true,
          "internalType": "string[]",
          "name": "tokenUris",
          "type": "string[]"
        },
        {
          "indexed": true,
          "internalType": "address",
          "name": "player",
          "type": "address"
        }
      ],
      "name": "AllTokenUrisbyAddress",
      "type": "event"
    },
    {
      "anonymous": false,
      "inputs": [
        {
          "indexed": true,
          "internalType": "address",
          "name": "owner",
          "type": "address"
        },
        {
          "indexed": true,
          "internalType": "address",
          "name": "approved",
          "type": "address"
        },
        {
          "indexed": true,
          "internalType": "uint256",
          "name": "tokenId",
          "type": "uint256"
        }
      ],
      "name": "Approval",
      "type": "event"
    },
    {
      "anonymous": false,
      "inputs": [
        {
          "indexed": true,
          "internalType": "address",
          "name": "owner",
          "type": "address"
        },
        {
          "indexed": true,
          "internalType": "address",
          "name": "operator",
          "type": "address"
        },
        {
          "indexed": false,
          "internalType": "bool",
          "name": "approved",
          "type": "bool"
        }
      ],
      "name": "ApprovalForAll",
      "type": "event"
    },
    {
      "anonymous": false,
      "inputs": [
        {
          "indexed": true,
          "internalType": "address",
          "name": "player",
          "type": "address"
        },
        {
          "indexed": true,
          "internalType": "string",
          "name": "TokenURI",
          "type": "string"
        }
      ],
      "name": "LootNftMinted",
      "type": "event"
    },
    {
      "anonymous": false,
      "inputs": [
        {
          "indexed": true,
          "internalType": "uint256",
          "name": "requestId",
          "type": "uint256"
        },
        {
          "indexed": true,
          "internalType": "address",
          "name": "player",
          "type": "address"
        }
      ],
      "name": "LootVRFCall",
      "type": "event"
    },
    {
      "anonymous": false,
      "inputs": [
        {
          "indexed": true,
          "internalType": "address",
          "name": "previousOwner",
          "type": "address"
        },
        {
          "indexed": true,
          "internalType": "address",
          "name": "newOwner",
          "type": "address"
        }
      ],
      "name": "OwnershipTransferred",
      "type": "event"
    },
    {
      "anonymous": false,
      "inputs": [
        {
          "indexed": true,
          "internalType": "address",
          "name": "from",
          "type": "address"
        },
        {
          "indexed": true,
          "internalType": "address",
          "name": "to",
          "type": "address"
        },
        {
          "indexed": true,
          "internalType": "uint256",
          "name": "tokenId",
          "type": "uint256"
        }
      ],
      "name": "Transfer",
      "type": "event"
    },
    {
      "anonymous": false,
      "inputs": [
        {
          "indexed": true,
          "internalType": "address",
          "name": "player",
          "type": "address"
        }
      ],
      "name": "unSuccesfullSpin",
      "type": "event"
    },
    {
      "inputs": [
        {
          "internalType": "address",
          "name": "_player",
          "type": "address"
        },
        {
          "internalType": "uint256",
          "name": "_randomNumber",
          "type": "uint256"
        }
      ],
      "name": "LootWheelSpinFromGameContract",
      "outputs": [],
      "stateMutability": "nonpayable",
      "type": "function"
    },
    {
      "inputs": [
        {
          "internalType": "address",
          "name": "to",
          "type": "address"
        },
        {
          "internalType": "uint256",
          "name": "tokenId",
          "type": "uint256"
        }
      ],
      "name": "approve",
      "outputs": [],
      "stateMutability": "nonpayable",
      "type": "function"
    },
    {
      "inputs": [
        {
          "internalType": "address",
          "name": "owner",
          "type": "address"
        }
      ],
      "name": "balanceOf",
      "outputs": [
        {
          "internalType": "uint256",
          "name": "",
          "type": "uint256"
        }
      ],
      "stateMutability": "view",
      "type": "function"
    },
    {
      "inputs": [
        {
          "internalType": "uint256",
          "name": "tokenId",
          "type": "uint256"
        }
      ],
      "name": "getApproved",
      "outputs": [
        {
          "internalType": "address",
          "name": "",
          "type": "address"
        }
      ],
      "stateMutability": "view",
      "type": "function"
    },
    {
      "inputs": [
        {
          "internalType": "uint256",
          "name": "index",
          "type": "uint256"
        }
      ],
      "name": "getLootTokenUris",
      "outputs": [
        {
          "internalType": "string",
          "name": "",
          "type": "string"
        }
      ],
      "stateMutability": "view",
      "type": "function"
    },
    {
      "inputs": [
        {
          "internalType": "address",
          "name": "player",
          "type": "address"
        }
      ],
      "name": "getNftsOwnedbyPlayer",
      "outputs": [
        {
          "internalType": "string[]",
          "name": "",
          "type": "string[]"
        }
      ],
      "stateMutability": "view",
      "type": "function"
    },
    {
      "inputs": [
        {
          "internalType": "uint256",
          "name": "requestId",
          "type": "uint256"
        }
      ],
      "name": "getPlayerfroms_requestIdToSender",
      "outputs": [
        {
          "internalType": "address",
          "name": "",
          "type": "address"
        }
      ],
      "stateMutability": "view",
      "type": "function"
    },
    {
      "inputs": [],
      "name": "getTokenCounter",
      "outputs": [
        {
          "internalType": "uint256",
          "name": "",
          "type": "uint256"
        }
      ],
      "stateMutability": "view",
      "type": "function"
    },
    {
      "inputs": [
        {
          "internalType": "address",
          "name": "owner",
          "type": "address"
        },
        {
          "internalType": "address",
          "name": "operator",
          "type": "address"
        }
      ],
      "name": "isApprovedForAll",
      "outputs": [
        {
          "internalType": "bool",
          "name": "",
          "type": "bool"
        }
      ],
      "stateMutability": "view",
      "type": "function"
    },
    {
      "inputs": [],
      "name": "name",
      "outputs": [
        {
          "internalType": "string",
          "name": "",
          "type": "string"
        }
      ],
      "stateMutability": "view",
      "type": "function"
    },
    {
      "inputs": [],
      "name": "owner",
      "outputs": [
        {
          "internalType": "address",
          "name": "",
          "type": "address"
        }
      ],
      "stateMutability": "view",
      "type": "function"
    },
    {
      "inputs": [
        {
          "internalType": "uint256",
          "name": "tokenId",
          "type": "uint256"
        }
      ],
      "name": "ownerOf",
      "outputs": [
        {
          "internalType": "address",
          "name": "",
          "type": "address"
        }
      ],
      "stateMutability": "view",
      "type": "function"
    },
    {
      "inputs": [
        {
          "internalType": "uint256",
          "name": "requestId",
          "type": "uint256"
        },
        {
          "internalType": "uint256[]",
          "name": "randomWords",
          "type": "uint256[]"
        }
      ],
      "name": "rawFulfillRandomWords",
      "outputs": [],
      "stateMutability": "nonpayable",
      "type": "function"
    },
    {
      "inputs": [],
      "name": "renounceOwnership",
      "outputs": [],
      "stateMutability": "nonpayable",
      "type": "function"
    },
    {
      "inputs": [
        {
          "internalType": "address",
          "name": "",
          "type": "address"
        },
        {
          "internalType": "uint256",
          "name": "",
          "type": "uint256"
        }
      ],
      "name": "s_addressToAllTokenURIs",
      "outputs": [
        {
          "internalType": "string",
          "name": "",
          "type": "string"
        }
      ],
      "stateMutability": "view",
      "type": "function"
    },
    {
      "inputs": [
        {
          "internalType": "address",
          "name": "",
          "type": "address"
        },
        {
          "internalType": "uint256",
          "name": "",
          "type": "uint256"
        }
      ],
      "name": "s_addressToTokenURI",
      "outputs": [
        {
          "internalType": "string",
          "name": "",
          "type": "string"
        }
      ],
      "stateMutability": "view",
      "type": "function"
    },
    {
      "inputs": [
        {
          "internalType": "uint256",
          "name": "",
          "type": "uint256"
        }
      ],
      "name": "s_requestIdToSender",
      "outputs": [
        {
          "internalType": "address",
          "name": "",
          "type": "address"
        }
      ],
      "stateMutability": "view",
      "type": "function"
    },
    {
      "inputs": [
        {
          "internalType": "address",
          "name": "from",
          "type": "address"
        },
        {
          "internalType": "address",
          "name": "to",
          "type": "address"
        },
        {
          "internalType": "uint256",
          "name": "tokenId",
          "type": "uint256"
        }
      ],
      "name": "safeTransferFrom",
      "outputs": [],
      "stateMutability": "nonpayable",
      "type": "function"
    },
    {
      "inputs": [
        {
          "internalType": "address",
          "name": "from",
          "type": "address"
        },
        {
          "internalType": "address",
          "name": "to",
          "type": "address"
        },
        {
          "internalType": "uint256",
          "name": "tokenId",
          "type": "uint256"
        },
        {
          "internalType": "bytes",
          "name": "_data",
          "type": "bytes"
        }
      ],
      "name": "safeTransferFrom",
      "outputs": [],
      "stateMutability": "nonpayable",
      "type": "function"
    },
    {
      "inputs": [
        {
          "internalType": "address",
          "name": "operator",
          "type": "address"
        },
        {
          "internalType": "bool",
          "name": "approved",
          "type": "bool"
        }
      ],
      "name": "setApprovalForAll",
      "outputs": [],
      "stateMutability": "nonpayable",
      "type": "function"
    },
    {
      "inputs": [
        {
          "internalType": "address",
          "name": "_newOwner",
          "type": "address"
        }
      ],
      "name": "setNewOwner",
      "outputs": [],
      "stateMutability": "nonpayable",
      "type": "function"
    },
    {
      "inputs": [
        {
          "internalType": "address",
          "name": "_player",
          "type": "address"
        }
      ],
      "name": "spinWheelRequestNRG",
      "outputs": [
        {
          "internalType": "uint256",
          "name": "requestId",
          "type": "uint256"
        }
      ],
      "stateMutability": "nonpayable",
      "type": "function"
    },
    {
      "inputs": [
        {
          "internalType": "bytes4",
          "name": "interfaceId",
          "type": "bytes4"
        }
      ],
      "name": "supportsInterface",
      "outputs": [
        {
          "internalType": "bool",
          "name": "",
          "type": "bool"
        }
      ],
      "stateMutability": "view",
      "type": "function"
    },
    {
      "inputs": [],
      "name": "symbol",
      "outputs": [
        {
          "internalType": "string",
          "name": "",
          "type": "string"
        }
      ],
      "stateMutability": "view",
      "type": "function"
    },
    {
      "inputs": [
        {
          "internalType": "uint256",
          "name": "tokenId",
          "type": "uint256"
        }
      ],
      "name": "tokenURI",
      "outputs": [
        {
          "internalType": "string",
          "name": "",
          "type": "string"
        }
      ],
      "stateMutability": "view",
      "type": "function"
    },
    {
      "inputs": [
        {
          "internalType": "address",
          "name": "from",
          "type": "address"
        },
        {
          "internalType": "address",
          "name": "to",
          "type": "address"
        },
        {
          "internalType": "uint256",
          "name": "tokenId",
          "type": "uint256"
        }
      ],
      "name": "transferFrom",
      "outputs": [],
      "stateMutability": "nonpayable",
      "type": "function"
    },
    {
      "inputs": [
        {
          "internalType": "address",
          "name": "newOwner",
          "type": "address"
        }
      ],
      "name": "transferOwnership",
      "outputs": [],
      "stateMutability": "nonpayable",
      "type": "function"
    }
  ],
  "transactionHash": "0x208d9c44eb68e86164911aeba0be1d396ce14ecd17c00cb872cde6e47c27700d",
  "args": [
    "0x8103B0A8A00be2DDC778e6e7eaa21791Cd364625",
    "3489",
    "0x474e34a077df58807dbe9c96d3c009b23b3c6d0cce433e59bbf5b34f823bc56c",
    "500000",
    [
      "ipfs://QmPr1VmmGmrGqKXYFpFPwkCnoxWLpTcUNTWE18oNfjReg8",
      "ipfs://QmUYjPEM8Hv9DMiRv7rgPomQe66jTciEKfdurCwpeq8c32",
      "ipfs://QmPdDVXQMvgvBKbHtf1LaJwLEVF4XCVJtmxhJapnTWpkk1",
      "ipfs://QmSneWpfgzt9iUdgy6RJaAK36ocRfYjXyVUGNSWgJCWEpS",
      "ipfs://QmVrzViE238LzGb61UDZd9tzaY3WBRah1Dn3Myw1bwvAh4"
    ]
  ],
  "numDeployments": 11,
  "solcInputHash": "a2903ad0f6ccc3882d356e9006635d88",
  "bytecode": "0x6101206040523480156200001257600080fd5b5060405162004f9b38038062004f9b833981810160405281019062000038919062000845565b846040518060400160405280601081526020017f4c6f6f74204e465420466f7220434f43000000000000000000000000000000008152506040518060400160405280600781526020017f436f434c6f6f74000000000000000000000000000000000000000000000000008152508160009080519060200190620000bd92919062000313565b508060019080519060200190620000d692919062000313565b5050508073ffffffffffffffffffffffffffffffffffffffff1660808173ffffffffffffffffffffffffffffffffffffffff1660601b81525050506200013162000125620001cb60201b60201c565b620001d360201b60201c565b8473ffffffffffffffffffffffffffffffffffffffff1660a08173ffffffffffffffffffffffffffffffffffffffff1660601b815250508260e081815250508367ffffffffffffffff1660c08167ffffffffffffffff1660c01b815250508163ffffffff166101008163ffffffff1660e01b81525050620001b8816200029960201b60201c565b6000600881905550505050505062000951565b600033905090565b6000600760009054906101000a900473ffffffffffffffffffffffffffffffffffffffff16905081600760006101000a81548173ffffffffffffffffffffffffffffffffffffffff021916908373ffffffffffffffffffffffffffffffffffffffff1602179055508173ffffffffffffffffffffffffffffffffffffffff168173ffffffffffffffffffffffffffffffffffffffff167f8be0079c531659141344cd1fd0a4f28419497f9722a3daafe3b4186f6b6457e060405160405180910390a35050565b600b60009054906101000a900460ff1615620002e1576040517fab7bb87c00000000000000000000000000000000000000000000000000000000815260040160405180910390fd5b806009906005620002f4929190620003a4565b506001600b60006101000a81548160ff02191690831515021790555050565b82805462000321906200091b565b90600052602060002090601f01602090048101928262000345576000855562000391565b82601f106200036057805160ff191683800117855562000391565b8280016001018555821562000391579182015b828111156200039057825182559160200191906001019062000373565b5b509050620003a091906200040b565b5090565b828054828255906000526020600020908101928215620003f8579160200282015b82811115620003f7578251829080519060200190620003e692919062000313565b5091602001919060010190620003c5565b5b5090506200040791906200042a565b5090565b5b80821115620004265760008160009055506001016200040c565b5090565b5b808211156200044e576000818162000444919062000452565b506001016200042b565b5090565b50805462000460906200091b565b6000825580601f1062000474575062000495565b601f0160209004906000526020600020908101906200049491906200040b565b5b50565b6000604051905090565b600080fd5b600080fd5b600073ffffffffffffffffffffffffffffffffffffffff82169050919050565b6000620004d982620004ac565b9050919050565b620004eb81620004cc565b8114620004f757600080fd5b50565b6000815190506200050b81620004e0565b92915050565b600067ffffffffffffffff82169050919050565b620005308162000511565b81146200053c57600080fd5b50565b600081519050620005508162000525565b92915050565b6000819050919050565b6200056b8162000556565b81146200057757600080fd5b50565b6000815190506200058b8162000560565b92915050565b600063ffffffff82169050919050565b620005ac8162000591565b8114620005b857600080fd5b50565b600081519050620005cc81620005a1565b92915050565b600080fd5b6000601f19601f8301169050919050565b7f4e487b7100000000000000000000000000000000000000000000000000000000600052604160045260246000fd5b6200062282620005d7565b810181811067ffffffffffffffff82111715620006445762000643620005e8565b5b80604052505050565b60006200065962000498565b905062000667828262000617565b919050565b600067ffffffffffffffff8211156200068a5762000689620005e8565b5b602082029050919050565b600080fd5b600080fd5b600067ffffffffffffffff821115620006bd57620006bc620005e8565b5b620006c882620005d7565b9050602081019050919050565b60005b83811015620006f5578082015181840152602081019050620006d8565b8381111562000705576000848401525b50505050565b6000620007226200071c846200069f565b6200064d565b9050828152602081018484840111156200074157620007406200069a565b5b6200074e848285620006d5565b509392505050565b600082601f8301126200076e576200076d620005d2565b5b8151620007808482602086016200070b565b91505092915050565b6000620007a06200079a846200066c565b6200064d565b90508060208402830185811115620007bd57620007bc62000695565b5b835b818110156200080b57805167ffffffffffffffff811115620007e657620007e5620005d2565b5b808601620007f5898262000756565b85526020850194505050602081019050620007bf565b5050509392505050565b600082601f8301126200082d576200082c620005d2565b5b60056200083c84828562000789565b91505092915050565b600080600080600060a08688031215620008645762000863620004a2565b5b60006200087488828901620004fa565b955050602062000887888289016200053f565b94505060406200089a888289016200057a565b9350506060620008ad88828901620005bb565b925050608086015167ffffffffffffffff811115620008d157620008d0620004a7565b5b620008df8882890162000815565b9150509295509295909350565b7f4e487b7100000000000000000000000000000000000000000000000000000000600052602260045260246000fd5b600060028204905060018216806200093457607f821691505b602082108114156200094b576200094a620008ec565b5b50919050565b60805160601c60a05160601c60c05160c01c60e0516101005160e01c6145f2620009a9600039600061129e0152600061125a0152600061127b0152600061121e015260008181610d0c0152610d6001526145f26000f3fe608060405234801561001057600080fd5b50600436106101a95760003560e01c8063715018a6116100f9578063c87b56dd11610097578063e428150111610071578063e428150114610504578063e985e9c514610534578063f2fde38b14610564578063f5a1f5b414610580576101a9565b8063c87b56dd14610474578063c89e8fcc146104a4578063d63fa9d5146104d4576101a9565b8063988916e6116100d3578063988916e6146103dc578063a22cb4651461040c578063a36f573b14610428578063b88d4fde14610458576101a9565b8063715018a6146103965780638da5cb5b146103a057806395d89b41146103be576101a9565b80631fe543e31161016657806342842e0e1161014057806342842e0e146102fc5780636352211e146103185780636e02007d1461034857806370a0823114610366576101a9565b80631fe543e31461029457806323b872dd146102b0578063389e123e146102cc576101a9565b806301ffc9a7146101ae578063055708c9146101de57806306fdde031461020e578063081812fc1461022c578063095ea7b31461025c5780630c1b613a14610278575b600080fd5b6101c860048036038101906101c39190612da6565b61059c565b6040516101d59190612dee565b60405180910390f35b6101f860048036038101906101f39190612e9d565b61067e565b6040516102059190612f76565b60405180910390f35b61021661072b565b6040516102239190612f76565b60405180910390f35b61024660048036038101906102419190612f98565b6107bd565b6040516102539190612fd4565b60405180910390f35b61027660048036038101906102719190612e9d565b610842565b005b610292600480360381019061028d9190612e9d565b61095a565b005b6102ae60048036038101906102a99190613137565b610d0a565b005b6102ca60048036038101906102c59190613193565b610dca565b005b6102e660048036038101906102e191906131e6565b610e2a565b6040516102f3919061331f565b60405180910390f35b61031660048036038101906103119190613193565b610f42565b005b610332600480360381019061032d9190612f98565b610f62565b60405161033f9190612fd4565b60405180910390f35b610350611014565b60405161035d9190613350565b60405180910390f35b610380600480360381019061037b91906131e6565b61101e565b60405161038d9190613350565b60405180910390f35b61039e6110d6565b005b6103a861115e565b6040516103b59190612fd4565b60405180910390f35b6103c6611188565b6040516103d39190612f76565b60405180910390f35b6103f660048036038101906103f191906131e6565b61121a565b6040516104039190613350565b60405180910390f35b61042660048036038101906104219190613397565b6113ce565b005b610442600480360381019061043d9190612f98565b61154f565b60405161044f9190612fd4565b60405180910390f35b610472600480360381019061046d919061348c565b611582565b005b61048e60048036038101906104899190612f98565b6115e4565b60405161049b9190612f76565b60405180910390f35b6104be60048036038101906104b99190612f98565b611736565b6040516104cb9190612fd4565b60405180910390f35b6104ee60048036038101906104e99190612f98565b611773565b6040516104fb9190612f76565b60405180910390f35b61051e60048036038101906105199190612e9d565b611823565b60405161052b9190612f76565b60405180910390f35b61054e6004803603810190610549919061350f565b6118dc565b60405161055b9190612dee565b60405180910390f35b61057e600480360381019061057991906131e6565b611970565b005b61059a600480360381019061059591906131e6565b611a68565b005b60007f80ac58cd000000000000000000000000000000000000000000000000000000007bffffffffffffffffffffffffffffffffffffffffffffffffffffffff1916827bffffffffffffffffffffffffffffffffffffffffffffffffffffffff1916148061066757507f5b5e139f000000000000000000000000000000000000000000000000000000007bffffffffffffffffffffffffffffffffffffffffffffffffffffffff1916827bffffffffffffffffffffffffffffffffffffffffffffffffffffffff1916145b80610677575061067682611a74565b5b9050919050565b600d6020528160005260406000206020528060005260406000206000915091505080546106aa9061357e565b80601f01602080910402602001604051908101604052809291908181526020018280546106d69061357e565b80156107235780601f106106f857610100808354040283529160200191610723565b820191906000526020600020905b81548152906001019060200180831161070657829003601f168201915b505050505081565b60606000805461073a9061357e565b80601f01602080910402602001604051908101604052809291908181526020018280546107669061357e565b80156107b35780601f10610788576101008083540402835291602001916107b3565b820191906000526020600020905b81548152906001019060200180831161079657829003601f168201915b5050505050905090565b60006107c882611ade565b610807576040517f08c379a00000000000000000000000000000000000000000000000000000000081526004016107fe90613622565b60405180910390fd5b6004600083815260200190815260200160002060009054906101000a900473ffffffffffffffffffffffffffffffffffffffff169050919050565b600061084d82610f62565b90508073ffffffffffffffffffffffffffffffffffffffff168373ffffffffffffffffffffffffffffffffffffffff1614156108be576040517f08c379a00000000000000000000000000000000000000000000000000000000081526004016108b5906136b4565b60405180910390fd5b8073ffffffffffffffffffffffffffffffffffffffff166108dd611b4a565b73ffffffffffffffffffffffffffffffffffffffff16148061090c575061090b81610906611b4a565b6118dc565b5b61094b576040517f08c379a000000000000000000000000000000000000000000000000000000000815260040161094290613746565b60405180910390fd5b6109558383611b52565b505050565b60288110156109ab578173ffffffffffffffffffffffffffffffffffffffff167fd136ab05159fbab0757d01bb2c7da0d34f5c605a4ccabcf97bdfabc5ca006b6560405160405180910390a2610d06565b6000600854905060016008546109c19190613795565b60088190555060006109d283611c0b565b90506109de8483611d10565b610aa08260098360048111156109f7576109f66137eb565b5b81548110610a0857610a0761381a565b5b906000526020600020018054610a1d9061357e565b80601f0160208091040260200160405190810160405280929190818152602001828054610a499061357e565b8015610a965780601f10610a6b57610100808354040283529160200191610a96565b820191906000526020600020905b815481529060010190602001808311610a7957829003601f168201915b5050505050611d2e565b6009816004811115610ab557610ab46137eb565b5b81548110610ac657610ac561381a565b5b90600052602060002001600d60008673ffffffffffffffffffffffffffffffffffffffff1673ffffffffffffffffffffffffffffffffffffffff1681526020019081526020016000206000848152602001908152602001600020908054610b2c9061357e565b610b37929190612c0a565b50600e60008573ffffffffffffffffffffffffffffffffffffffff1673ffffffffffffffffffffffffffffffffffffffff1681526020019081526020016000206009826004811115610b8c57610b8b6137eb565b5b81548110610b9d57610b9c61381a565b5b9060005260206000200190806001815401808255809150506001900390600052602060002001600090919091909150908054610bd89061357e565b610be3929190612c0a565b508373ffffffffffffffffffffffffffffffffffffffff16600e60008673ffffffffffffffffffffffffffffffffffffffff1673ffffffffffffffffffffffffffffffffffffffff168152602001908152602001600020604051610c479190613992565b60405180910390207fc24e46883eb159bbaa202fe48bb0d2f2cbb7605f881cc885a9fe625c39026afb60405160405180910390a36009816004811115610c9057610c8f6137eb565b5b81548110610ca157610ca061381a565b5b90600052602060002001604051610cb89190613a33565b60405180910390208473ffffffffffffffffffffffffffffffffffffffff167fb6df4116a4760e1f5c9db9354a20740bd3f1fbe837466a6b84bb49b028c7089360405160405180910390a350505b5050565b7f000000000000000000000000000000000000000000000000000000000000000073ffffffffffffffffffffffffffffffffffffffff163373ffffffffffffffffffffffffffffffffffffffff1614610dbc57337f00000000000000000000000000000000000000000000000000000000000000006040517f1cf993f4000000000000000000000000000000000000000000000000000000008152600401610db3929190613a4a565b60405180910390fd5b610dc68282611da2565b5050565b610ddb610dd5611b4a565b826121b7565b610e1a576040517f08c379a0000000000000000000000000000000000000000000000000000000008152600401610e1190613ae5565b60405180910390fd5b610e25838383612295565b505050565b6060600e60008373ffffffffffffffffffffffffffffffffffffffff1673ffffffffffffffffffffffffffffffffffffffff168152602001908152602001600020805480602002602001604051908101604052809291908181526020016000905b82821015610f37578382906000526020600020018054610eaa9061357e565b80601f0160208091040260200160405190810160405280929190818152602001828054610ed69061357e565b8015610f235780601f10610ef857610100808354040283529160200191610f23565b820191906000526020600020905b815481529060010190602001808311610f0657829003601f168201915b505050505081526020019060010190610e8b565b505050509050919050565b610f5d83838360405180602001604052806000815250611582565b505050565b6000806002600084815260200190815260200160002060009054906101000a900473ffffffffffffffffffffffffffffffffffffffff169050600073ffffffffffffffffffffffffffffffffffffffff168173ffffffffffffffffffffffffffffffffffffffff16141561100b576040517f08c379a000000000000000000000000000000000000000000000000000000000815260040161100290613b77565b60405180910390fd5b80915050919050565b6000600854905090565b60008073ffffffffffffffffffffffffffffffffffffffff168273ffffffffffffffffffffffffffffffffffffffff16141561108f576040517f08c379a000000000000000000000000000000000000000000000000000000000815260040161108690613c09565b60405180910390fd5b600360008373ffffffffffffffffffffffffffffffffffffffff1673ffffffffffffffffffffffffffffffffffffffff168152602001908152602001600020549050919050565b6110de611b4a565b73ffffffffffffffffffffffffffffffffffffffff166110fc61115e565b73ffffffffffffffffffffffffffffffffffffffff1614611152576040517f08c379a000000000000000000000000000000000000000000000000000000000815260040161114990613c75565b60405180910390fd5b61115c60006124f1565b565b6000600760009054906101000a900473ffffffffffffffffffffffffffffffffffffffff16905090565b6060600180546111979061357e565b80601f01602080910402602001604051908101604052809291908181526020018280546111c39061357e565b80156112105780601f106111e557610100808354040283529160200191611210565b820191906000526020600020905b8154815290600101906020018083116111f357829003601f168201915b5050505050905090565b60007f000000000000000000000000000000000000000000000000000000000000000073ffffffffffffffffffffffffffffffffffffffff16635d3b1d307f00000000000000000000000000000000000000000000000000000000000000007f000000000000000000000000000000000000000000000000000000000000000060037f000000000000000000000000000000000000000000000000000000000000000060056040518663ffffffff1660e01b81526004016112df959493929190613d0d565b602060405180830381600087803b1580156112f957600080fd5b505af115801561130d573d6000803e3d6000fd5b505050506040513d601f19601f820116820180604052508101906113319190613d75565b905081600c600083815260200190815260200160002060006101000a81548173ffffffffffffffffffffffffffffffffffffffff021916908373ffffffffffffffffffffffffffffffffffffffff1602179055508173ffffffffffffffffffffffffffffffffffffffff16817f25b0c6b81fb40a92e26fea8347e30d2c13385c35086bf1804daa45f7f721b4bb60405160405180910390a3919050565b6113d6611b4a565b73ffffffffffffffffffffffffffffffffffffffff168273ffffffffffffffffffffffffffffffffffffffff161415611444576040517f08c379a000000000000000000000000000000000000000000000000000000000815260040161143b90613dee565b60405180910390fd5b8060056000611451611b4a565b73ffffffffffffffffffffffffffffffffffffffff1673ffffffffffffffffffffffffffffffffffffffff16815260200190815260200160002060008473ffffffffffffffffffffffffffffffffffffffff1673ffffffffffffffffffffffffffffffffffffffff16815260200190815260200160002060006101000a81548160ff0219169083151502179055508173ffffffffffffffffffffffffffffffffffffffff166114fe611b4a565b73ffffffffffffffffffffffffffffffffffffffff167f17307eab39ab6107e8899845ad3d59bd9653f200f220920489ca2b5937696c31836040516115439190612dee565b60405180910390a35050565b600c6020528060005260406000206000915054906101000a900473ffffffffffffffffffffffffffffffffffffffff1681565b61159361158d611b4a565b836121b7565b6115d2576040517f08c379a00000000000000000000000000000000000000000000000000000000081526004016115c990613ae5565b60405180910390fd5b6115de848484846125b7565b50505050565b60606115ef82611ade565b61162e576040517f08c379a000000000000000000000000000000000000000000000000000000000815260040161162590613e80565b60405180910390fd5b600060066000848152602001908152602001600020805461164e9061357e565b80601f016020809104026020016040519081016040528092919081815260200182805461167a9061357e565b80156116c75780601f1061169c576101008083540402835291602001916116c7565b820191906000526020600020905b8154815290600101906020018083116116aa57829003601f168201915b5050505050905060006116d8612613565b90506000815114156116ee578192505050611731565b60008251111561172357808260405160200161170b929190613ed1565b60405160208183030381529060405292505050611731565b61172c8461262a565b925050505b919050565b6000600c600083815260200190815260200160002060009054906101000a900473ffffffffffffffffffffffffffffffffffffffff169050919050565b6060600982815481106117895761178861381a565b5b90600052602060002001805461179e9061357e565b80601f01602080910402602001604051908101604052809291908181526020018280546117ca9061357e565b80156118175780601f106117ec57610100808354040283529160200191611817565b820191906000526020600020905b8154815290600101906020018083116117fa57829003601f168201915b50505050509050919050565b600e602052816000526040600020818154811061183f57600080fd5b9060005260206000200160009150915050805461185b9061357e565b80601f01602080910402602001604051908101604052809291908181526020018280546118879061357e565b80156118d45780601f106118a9576101008083540402835291602001916118d4565b820191906000526020600020905b8154815290600101906020018083116118b757829003601f168201915b505050505081565b6000600560008473ffffffffffffffffffffffffffffffffffffffff1673ffffffffffffffffffffffffffffffffffffffff16815260200190815260200160002060008373ffffffffffffffffffffffffffffffffffffffff1673ffffffffffffffffffffffffffffffffffffffff16815260200190815260200160002060009054906101000a900460ff16905092915050565b611978611b4a565b73ffffffffffffffffffffffffffffffffffffffff1661199661115e565b73ffffffffffffffffffffffffffffffffffffffff16146119ec576040517f08c379a00000000000000000000000000000000000000000000000000000000081526004016119e390613c75565b60405180910390fd5b600073ffffffffffffffffffffffffffffffffffffffff168173ffffffffffffffffffffffffffffffffffffffff161415611a5c576040517f08c379a0000000000000000000000000000000000000000000000000000000008152600401611a5390613f67565b60405180910390fd5b611a65816124f1565b50565b611a7181611970565b50565b60007f01ffc9a7000000000000000000000000000000000000000000000000000000007bffffffffffffffffffffffffffffffffffffffffffffffffffffffff1916827bffffffffffffffffffffffffffffffffffffffffffffffffffffffff1916149050919050565b60008073ffffffffffffffffffffffffffffffffffffffff166002600084815260200190815260200160002060009054906101000a900473ffffffffffffffffffffffffffffffffffffffff1673ffffffffffffffffffffffffffffffffffffffff1614159050919050565b600033905090565b816004600083815260200190815260200160002060006101000a81548173ffffffffffffffffffffffffffffffffffffffff021916908373ffffffffffffffffffffffffffffffffffffffff160217905550808273ffffffffffffffffffffffffffffffffffffffff16611bc583610f62565b73ffffffffffffffffffffffffffffffffffffffff167f8c5be1e5ebec7d5bd14f71427d1e84f3dd0314c0f7b2291e5b200ac8c7c3b92560405160405180910390a45050565b6000806000905060006040518060a00160405280601460ff168152602001603260ff168152602001604b60ff168152602001605a60ff168152602001606260ff16815250905060005b6005811015611cd857828510158015611c865750818160058110611c7b57611c7a61381a565b5b602002015160ff1685105b15611ca857806004811115611c9e57611c9d6137eb565b5b9350505050611d0b565b818160058110611cbb57611cba61381a565b5b602002015160ff1692508080611cd090613f87565b915050611c54565b506040517f09dbe20500000000000000000000000000000000000000000000000000000000815260040160405180910390fd5b919050565b611d2a8282604051806020016040528060008152506126d1565b5050565b611d3782611ade565b611d76576040517f08c379a0000000000000000000000000000000000000000000000000000000008152600401611d6d90614042565b60405180910390fd5b80600660008481526020019081526020016000209080519060200190611d9d929190612c97565b505050565b600080600c600085815260200190815260200160002060009054906101000a900473ffffffffffffffffffffffffffffffffffffffff169050606483600081518110611df157611df061381a565b5b6020026020010151611e039190614091565b91506028821015611e56578073ffffffffffffffffffffffffffffffffffffffff167fd136ab05159fbab0757d01bb2c7da0d34f5c605a4ccabcf97bdfabc5ca006b6560405160405180910390a26121b1565b600060085490506001600854611e6c9190613795565b6008819055506000611e7d84611c0b565b9050611e898383611d10565b611f4b826009836004811115611ea257611ea16137eb565b5b81548110611eb357611eb261381a565b5b906000526020600020018054611ec89061357e565b80601f0160208091040260200160405190810160405280929190818152602001828054611ef49061357e565b8015611f415780601f10611f1657610100808354040283529160200191611f41565b820191906000526020600020905b815481529060010190602001808311611f2457829003601f168201915b5050505050611d2e565b6009816004811115611f6057611f5f6137eb565b5b81548110611f7157611f7061381a565b5b90600052602060002001600d60008573ffffffffffffffffffffffffffffffffffffffff1673ffffffffffffffffffffffffffffffffffffffff1681526020019081526020016000206000848152602001908152602001600020908054611fd79061357e565b611fe2929190612c0a565b50600e60008473ffffffffffffffffffffffffffffffffffffffff1673ffffffffffffffffffffffffffffffffffffffff1681526020019081526020016000206009826004811115612037576120366137eb565b5b815481106120485761204761381a565b5b90600052602060002001908060018154018082558091505060019003906000526020600020016000909190919091509080546120839061357e565b61208e929190612c0a565b5060098160048111156120a4576120a36137eb565b5b815481106120b5576120b461381a565b5b906000526020600020016040516120cc9190613a33565b60405180910390208373ffffffffffffffffffffffffffffffffffffffff167fb6df4116a4760e1f5c9db9354a20740bd3f1fbe837466a6b84bb49b028c7089360405160405180910390a38273ffffffffffffffffffffffffffffffffffffffff16600e60008573ffffffffffffffffffffffffffffffffffffffff1673ffffffffffffffffffffffffffffffffffffffff16815260200190815260200160002060405161217a9190613992565b60405180910390207fc24e46883eb159bbaa202fe48bb0d2f2cbb7605f881cc885a9fe625c39026afb60405160405180910390a350505b50505050565b60006121c282611ade565b612201576040517f08c379a00000000000000000000000000000000000000000000000000000000081526004016121f890614134565b60405180910390fd5b600061220c83610f62565b90508073ffffffffffffffffffffffffffffffffffffffff168473ffffffffffffffffffffffffffffffffffffffff16148061227b57508373ffffffffffffffffffffffffffffffffffffffff16612263846107bd565b73ffffffffffffffffffffffffffffffffffffffff16145b8061228c575061228b81856118dc565b5b91505092915050565b8273ffffffffffffffffffffffffffffffffffffffff166122b582610f62565b73ffffffffffffffffffffffffffffffffffffffff161461230b576040517f08c379a0000000000000000000000000000000000000000000000000000000008152600401612302906141c6565b60405180910390fd5b600073ffffffffffffffffffffffffffffffffffffffff168273ffffffffffffffffffffffffffffffffffffffff16141561237b576040517f08c379a000000000000000000000000000000000000000000000000000000000815260040161237290614258565b60405180910390fd5b61238683838361272c565b612391600082611b52565b6001600360008573ffffffffffffffffffffffffffffffffffffffff1673ffffffffffffffffffffffffffffffffffffffff16815260200190815260200160002060008282546123e19190614278565b925050819055506001600360008473ffffffffffffffffffffffffffffffffffffffff1673ffffffffffffffffffffffffffffffffffffffff16815260200190815260200160002060008282546124389190613795565b92505081905550816002600083815260200190815260200160002060006101000a81548173ffffffffffffffffffffffffffffffffffffffff021916908373ffffffffffffffffffffffffffffffffffffffff160217905550808273ffffffffffffffffffffffffffffffffffffffff168473ffffffffffffffffffffffffffffffffffffffff167fddf252ad1be2c89b69c2b068fc378daa952ba7f163c4a11628f55a4df523b3ef60405160405180910390a4505050565b6000600760009054906101000a900473ffffffffffffffffffffffffffffffffffffffff16905081600760006101000a81548173ffffffffffffffffffffffffffffffffffffffff021916908373ffffffffffffffffffffffffffffffffffffffff1602179055508173ffffffffffffffffffffffffffffffffffffffff168173ffffffffffffffffffffffffffffffffffffffff167f8be0079c531659141344cd1fd0a4f28419497f9722a3daafe3b4186f6b6457e060405160405180910390a35050565b6125c2848484612295565b6125ce84848484612731565b61260d576040517f08c379a00000000000000000000000000000000000000000000000000000000081526004016126049061431e565b60405180910390fd5b50505050565b606060405180602001604052806000815250905090565b606061263582611ade565b612674576040517f08c379a000000000000000000000000000000000000000000000000000000000815260040161266b906143b0565b60405180910390fd5b600061267e612613565b9050600081511161269e57604051806020016040528060008152506126c9565b806126a8846128c8565b6040516020016126b9929190613ed1565b6040516020818303038152906040525b915050919050565b6126db8383612a29565b6126e86000848484612731565b612727576040517f08c379a000000000000000000000000000000000000000000000000000000000815260040161271e9061431e565b60405180910390fd5b505050565b505050565b60006127528473ffffffffffffffffffffffffffffffffffffffff16612bf7565b156128bb578373ffffffffffffffffffffffffffffffffffffffff1663150b7a0261277b611b4a565b8786866040518563ffffffff1660e01b815260040161279d9493929190614425565b602060405180830381600087803b1580156127b757600080fd5b505af19250505080156127e857506040513d601f19601f820116820180604052508101906127e59190614486565b60015b61286b573d8060008114612818576040519150601f19603f3d011682016040523d82523d6000602084013e61281d565b606091505b50600081511415612863576040517f08c379a000000000000000000000000000000000000000000000000000000000815260040161285a9061431e565b60405180910390fd5b805181602001fd5b63150b7a0260e01b7bffffffffffffffffffffffffffffffffffffffffffffffffffffffff1916817bffffffffffffffffffffffffffffffffffffffffffffffffffffffff1916149150506128c0565b600190505b949350505050565b60606000821415612910576040518060400160405280600181526020017f30000000000000000000000000000000000000000000000000000000000000008152509050612a24565b600082905060005b6000821461294257808061292b90613f87565b915050600a8261293b91906144b3565b9150612918565b60008167ffffffffffffffff81111561295e5761295d612ff4565b5b6040519080825280601f01601f1916602001820160405280156129905781602001600182028036833780820191505090505b5090505b60008514612a1d576001826129a99190614278565b9150600a856129b89190614091565b60306129c49190613795565b60f81b8183815181106129da576129d961381a565b5b60200101907effffffffffffffffffffffffffffffffffffffffffffffffffffffffffffff1916908160001a905350600a85612a1691906144b3565b9450612994565b8093505050505b919050565b600073ffffffffffffffffffffffffffffffffffffffff168273ffffffffffffffffffffffffffffffffffffffff161415612a99576040517f08c379a0000000000000000000000000000000000000000000000000000000008152600401612a9090614530565b60405180910390fd5b612aa281611ade565b15612ae2576040517f08c379a0000000000000000000000000000000000000000000000000000000008152600401612ad99061459c565b60405180910390fd5b612aee6000838361272c565b6001600360008473ffffffffffffffffffffffffffffffffffffffff1673ffffffffffffffffffffffffffffffffffffffff1681526020019081526020016000206000828254612b3e9190613795565b92505081905550816002600083815260200190815260200160002060006101000a81548173ffffffffffffffffffffffffffffffffffffffff021916908373ffffffffffffffffffffffffffffffffffffffff160217905550808273ffffffffffffffffffffffffffffffffffffffff16600073ffffffffffffffffffffffffffffffffffffffff167fddf252ad1be2c89b69c2b068fc378daa952ba7f163c4a11628f55a4df523b3ef60405160405180910390a45050565b600080823b905060008111915050919050565b828054612c169061357e565b90600052602060002090601f016020900481019282612c385760008555612c86565b82601f10612c495780548555612c86565b82800160010185558215612c8657600052602060002091601f016020900482015b82811115612c85578254825591600101919060010190612c6a565b5b509050612c939190612d1d565b5090565b828054612ca39061357e565b90600052602060002090601f016020900481019282612cc55760008555612d0c565b82601f10612cde57805160ff1916838001178555612d0c565b82800160010185558215612d0c579182015b82811115612d0b578251825591602001919060010190612cf0565b5b509050612d199190612d1d565b5090565b5b80821115612d36576000816000905550600101612d1e565b5090565b6000604051905090565b600080fd5b600080fd5b60007fffffffff0000000000000000000000000000000000000000000000000000000082169050919050565b612d8381612d4e565b8114612d8e57600080fd5b50565b600081359050612da081612d7a565b92915050565b600060208284031215612dbc57612dbb612d44565b5b6000612dca84828501612d91565b91505092915050565b60008115159050919050565b612de881612dd3565b82525050565b6000602082019050612e036000830184612ddf565b92915050565b600073ffffffffffffffffffffffffffffffffffffffff82169050919050565b6000612e3482612e09565b9050919050565b612e4481612e29565b8114612e4f57600080fd5b50565b600081359050612e6181612e3b565b92915050565b6000819050919050565b612e7a81612e67565b8114612e8557600080fd5b50565b600081359050612e9781612e71565b92915050565b60008060408385031215612eb457612eb3612d44565b5b6000612ec285828601612e52565b9250506020612ed385828601612e88565b9150509250929050565b600081519050919050565b600082825260208201905092915050565b60005b83811015612f17578082015181840152602081019050612efc565b83811115612f26576000848401525b50505050565b6000601f19601f8301169050919050565b6000612f4882612edd565b612f528185612ee8565b9350612f62818560208601612ef9565b612f6b81612f2c565b840191505092915050565b60006020820190508181036000830152612f908184612f3d565b905092915050565b600060208284031215612fae57612fad612d44565b5b6000612fbc84828501612e88565b91505092915050565b612fce81612e29565b82525050565b6000602082019050612fe96000830184612fc5565b92915050565b600080fd5b7f4e487b7100000000000000000000000000000000000000000000000000000000600052604160045260246000fd5b61302c82612f2c565b810181811067ffffffffffffffff8211171561304b5761304a612ff4565b5b80604052505050565b600061305e612d3a565b905061306a8282613023565b919050565b600067ffffffffffffffff82111561308a57613089612ff4565b5b602082029050602081019050919050565b600080fd5b60006130b36130ae8461306f565b613054565b905080838252602082019050602084028301858111156130d6576130d561309b565b5b835b818110156130ff57806130eb8882612e88565b8452602084019350506020810190506130d8565b5050509392505050565b600082601f83011261311e5761311d612fef565b5b813561312e8482602086016130a0565b91505092915050565b6000806040838503121561314e5761314d612d44565b5b600061315c85828601612e88565b925050602083013567ffffffffffffffff81111561317d5761317c612d49565b5b61318985828601613109565b9150509250929050565b6000806000606084860312156131ac576131ab612d44565b5b60006131ba86828701612e52565b93505060206131cb86828701612e52565b92505060406131dc86828701612e88565b9150509250925092565b6000602082840312156131fc576131fb612d44565b5b600061320a84828501612e52565b91505092915050565b600081519050919050565b600082825260208201905092915050565b6000819050602082019050919050565b600082825260208201905092915050565b600061325b82612edd565b613265818561323f565b9350613275818560208601612ef9565b61327e81612f2c565b840191505092915050565b60006132958383613250565b905092915050565b6000602082019050919050565b60006132b582613213565b6132bf818561321e565b9350836020820285016132d18561322f565b8060005b8581101561330d57848403895281516132ee8582613289565b94506132f98361329d565b925060208a019950506001810190506132d5565b50829750879550505050505092915050565b6000602082019050818103600083015261333981846132aa565b905092915050565b61334a81612e67565b82525050565b60006020820190506133656000830184613341565b92915050565b61337481612dd3565b811461337f57600080fd5b50565b6000813590506133918161336b565b92915050565b600080604083850312156133ae576133ad612d44565b5b60006133bc85828601612e52565b92505060206133cd85828601613382565b9150509250929050565b600080fd5b600067ffffffffffffffff8211156133f7576133f6612ff4565b5b61340082612f2c565b9050602081019050919050565b82818337600083830152505050565b600061342f61342a846133dc565b613054565b90508281526020810184848401111561344b5761344a6133d7565b5b61345684828561340d565b509392505050565b600082601f83011261347357613472612fef565b5b813561348384826020860161341c565b91505092915050565b600080600080608085870312156134a6576134a5612d44565b5b60006134b487828801612e52565b94505060206134c587828801612e52565b93505060406134d687828801612e88565b925050606085013567ffffffffffffffff8111156134f7576134f6612d49565b5b6135038782880161345e565b91505092959194509250565b6000806040838503121561352657613525612d44565b5b600061353485828601612e52565b925050602061354585828601612e52565b9150509250929050565b7f4e487b7100000000000000000000000000000000000000000000000000000000600052602260045260246000fd5b6000600282049050600182168061359657607f821691505b602082108114156135aa576135a961354f565b5b50919050565b7f4552433732313a20617070726f76656420717565727920666f72206e6f6e657860008201527f697374656e7420746f6b656e0000000000000000000000000000000000000000602082015250565b600061360c602c83612ee8565b9150613617826135b0565b604082019050919050565b6000602082019050818103600083015261363b816135ff565b9050919050565b7f4552433732313a20617070726f76616c20746f2063757272656e74206f776e6560008201527f7200000000000000000000000000000000000000000000000000000000000000602082015250565b600061369e602183612ee8565b91506136a982613642565b604082019050919050565b600060208201905081810360008301526136cd81613691565b9050919050565b7f4552433732313a20617070726f76652063616c6c6572206973206e6f74206f7760008201527f6e6572206e6f7220617070726f76656420666f7220616c6c0000000000000000602082015250565b6000613730603883612ee8565b915061373b826136d4565b604082019050919050565b6000602082019050818103600083015261375f81613723565b9050919050565b7f4e487b7100000000000000000000000000000000000000000000000000000000600052601160045260246000fd5b60006137a082612e67565b91506137ab83612e67565b9250827fffffffffffffffffffffffffffffffffffffffffffffffffffffffffffffffff038211156137e0576137df613766565b5b828201905092915050565b7f4e487b7100000000000000000000000000000000000000000000000000000000600052602160045260246000fd5b7f4e487b7100000000000000000000000000000000000000000000000000000000600052603260045260246000fd5b600081549050919050565b600081905092915050565b60008190508160005260206000209050919050565b600081905092915050565b60008190508160005260206000209050919050565b600081546138a18161357e565b6138ab8186613874565b945060018216600081146138c657600181146138d85761390b565b60ff198316865260208601935061390b565b6138e18561387f565b60005b83811015613903578154818901526001820191506020810190506138e4565b808801955050505b50505092915050565b60006139208383613894565b905092915050565b6000600182019050919050565b600061394082613849565b61394a8185613854565b93506139558361385f565b8060005b83811015613985578161396c8882613914565b975061397783613928565b925050600181019050613959565b5085935050505092915050565b600061399e8284613935565b915081905092915050565b600081905092915050565b600081546139c18161357e565b6139cb81866139a9565b945060018216600081146139e657600181146139f757613a2a565b60ff19831686528186019350613a2a565b613a008561387f565b60005b83811015613a2257815481890152600182019150602081019050613a03565b838801955050505b50505092915050565b6000613a3f82846139b4565b915081905092915050565b6000604082019050613a5f6000830185612fc5565b613a6c6020830184612fc5565b9392505050565b7f4552433732313a207472616e736665722063616c6c6572206973206e6f74206f60008201527f776e6572206e6f7220617070726f766564000000000000000000000000000000602082015250565b6000613acf603183612ee8565b9150613ada82613a73565b604082019050919050565b60006020820190508181036000830152613afe81613ac2565b9050919050565b7f4552433732313a206f776e657220717565727920666f72206e6f6e657869737460008201527f656e7420746f6b656e0000000000000000000000000000000000000000000000602082015250565b6000613b61602983612ee8565b9150613b6c82613b05565b604082019050919050565b60006020820190508181036000830152613b9081613b54565b9050919050565b7f4552433732313a2062616c616e636520717565727920666f7220746865207a6560008201527f726f206164647265737300000000000000000000000000000000000000000000602082015250565b6000613bf3602a83612ee8565b9150613bfe82613b97565b604082019050919050565b60006020820190508181036000830152613c2281613be6565b9050919050565b7f4f776e61626c653a2063616c6c6572206973206e6f7420746865206f776e6572600082015250565b6000613c5f602083612ee8565b9150613c6a82613c29565b602082019050919050565b60006020820190508181036000830152613c8e81613c52565b9050919050565b6000819050919050565b613ca881613c95565b82525050565b600067ffffffffffffffff82169050919050565b613ccb81613cae565b82525050565b600061ffff82169050919050565b613ce881613cd1565b82525050565b600063ffffffff82169050919050565b613d0781613cee565b82525050565b600060a082019050613d226000830188613c9f565b613d2f6020830187613cc2565b613d3c6040830186613cdf565b613d496060830185613cfe565b613d566080830184613cfe565b9695505050505050565b600081519050613d6f81612e71565b92915050565b600060208284031215613d8b57613d8a612d44565b5b6000613d9984828501613d60565b91505092915050565b7f4552433732313a20617070726f766520746f2063616c6c657200000000000000600082015250565b6000613dd8601983612ee8565b9150613de382613da2565b602082019050919050565b60006020820190508181036000830152613e0781613dcb565b9050919050565b7f45524337323155524953746f726167653a2055524920717565727920666f722060008201527f6e6f6e6578697374656e7420746f6b656e000000000000000000000000000000602082015250565b6000613e6a603183612ee8565b9150613e7582613e0e565b604082019050919050565b60006020820190508181036000830152613e9981613e5d565b9050919050565b6000613eab82612edd565b613eb581856139a9565b9350613ec5818560208601612ef9565b80840191505092915050565b6000613edd8285613ea0565b9150613ee98284613ea0565b91508190509392505050565b7f4f776e61626c653a206e6577206f776e657220697320746865207a65726f206160008201527f6464726573730000000000000000000000000000000000000000000000000000602082015250565b6000613f51602683612ee8565b9150613f5c82613ef5565b604082019050919050565b60006020820190508181036000830152613f8081613f44565b9050919050565b6000613f9282612e67565b91507fffffffffffffffffffffffffffffffffffffffffffffffffffffffffffffffff821415613fc557613fc4613766565b5b600182019050919050565b7f45524337323155524953746f726167653a2055524920736574206f66206e6f6e60008201527f6578697374656e7420746f6b656e000000000000000000000000000000000000602082015250565b600061402c602e83612ee8565b915061403782613fd0565b604082019050919050565b6000602082019050818103600083015261405b8161401f565b9050919050565b7f4e487b7100000000000000000000000000000000000000000000000000000000600052601260045260246000fd5b600061409c82612e67565b91506140a783612e67565b9250826140b7576140b6614062565b5b828206905092915050565b7f4552433732313a206f70657261746f7220717565727920666f72206e6f6e657860008201527f697374656e7420746f6b656e0000000000000000000000000000000000000000602082015250565b600061411e602c83612ee8565b9150614129826140c2565b604082019050919050565b6000602082019050818103600083015261414d81614111565b9050919050565b7f4552433732313a207472616e73666572206f6620746f6b656e2074686174206960008201527f73206e6f74206f776e0000000000000000000000000000000000000000000000602082015250565b60006141b0602983612ee8565b91506141bb82614154565b604082019050919050565b600060208201905081810360008301526141df816141a3565b9050919050565b7f4552433732313a207472616e7366657220746f20746865207a65726f2061646460008201527f7265737300000000000000000000000000000000000000000000000000000000602082015250565b6000614242602483612ee8565b915061424d826141e6565b604082019050919050565b6000602082019050818103600083015261427181614235565b9050919050565b600061428382612e67565b915061428e83612e67565b9250828210156142a1576142a0613766565b5b828203905092915050565b7f4552433732313a207472616e7366657220746f206e6f6e20455243373231526560008201527f63656976657220696d706c656d656e7465720000000000000000000000000000602082015250565b6000614308603283612ee8565b9150614313826142ac565b604082019050919050565b60006020820190508181036000830152614337816142fb565b9050919050565b7f4552433732314d657461646174613a2055524920717565727920666f72206e6f60008201527f6e6578697374656e7420746f6b656e0000000000000000000000000000000000602082015250565b600061439a602f83612ee8565b91506143a58261433e565b604082019050919050565b600060208201905081810360008301526143c98161438d565b9050919050565b600081519050919050565b600082825260208201905092915050565b60006143f7826143d0565b61440181856143db565b9350614411818560208601612ef9565b61441a81612f2c565b840191505092915050565b600060808201905061443a6000830187612fc5565b6144476020830186612fc5565b6144546040830185613341565b818103606083015261446681846143ec565b905095945050505050565b60008151905061448081612d7a565b92915050565b60006020828403121561449c5761449b612d44565b5b60006144aa84828501614471565b91505092915050565b60006144be82612e67565b91506144c983612e67565b9250826144d9576144d8614062565b5b828204905092915050565b7f4552433732313a206d696e7420746f20746865207a65726f2061646472657373600082015250565b600061451a602083612ee8565b9150614525826144e4565b602082019050919050565b600060208201905081810360008301526145498161450d565b9050919050565b7f4552433732313a20746f6b656e20616c7265616479206d696e74656400000000600082015250565b6000614586601c83612ee8565b915061459182614550565b602082019050919050565b600060208201905081810360008301526145b581614579565b905091905056fea264697066735822122075103c96c0052c5606ee5cb6d2b2b6180e5f46dd0e682d02e930db0f521fbfeb64736f6c63430008080033",
  "devdoc": {
    "kind": "dev",
    "methods": {
      "approve(address,uint256)": {
        "details": "See {IERC721-approve}."
      },
      "balanceOf(address)": {
        "details": "See {IERC721-balanceOf}."
      },
      "getApproved(uint256)": {
        "details": "See {IERC721-getApproved}."
      },
      "isApprovedForAll(address,address)": {
        "details": "See {IERC721-isApprovedForAll}."
      },
      "name()": {
        "details": "See {IERC721Metadata-name}."
      },
      "owner()": {
        "details": "Returns the address of the current owner."
      },
      "ownerOf(uint256)": {
        "details": "See {IERC721-ownerOf}."
      },
      "renounceOwnership()": {
        "details": "Leaves the contract without owner. It will not be possible to call `onlyOwner` functions anymore. Can only be called by the current owner. NOTE: Renouncing ownership will leave the contract without an owner, thereby removing any functionality that is only available to the owner."
      },
      "safeTransferFrom(address,address,uint256)": {
        "details": "See {IERC721-safeTransferFrom}."
      },
      "safeTransferFrom(address,address,uint256,bytes)": {
        "details": "See {IERC721-safeTransferFrom}."
      },
      "setApprovalForAll(address,bool)": {
        "details": "See {IERC721-setApprovalForAll}."
      },
      "supportsInterface(bytes4)": {
        "details": "See {IERC165-supportsInterface}."
      },
      "symbol()": {
        "details": "See {IERC721Metadata-symbol}."
      },
      "tokenURI(uint256)": {
        "details": "See {IERC721Metadata-tokenURI}."
      },
      "transferFrom(address,address,uint256)": {
        "details": "See {IERC721-transferFrom}."
      },
      "transferOwnership(address)": {
        "details": "Transfers ownership of the contract to a new account (`newOwner`). Can only be called by the current owner."
      }
    },
    "version": 1
  },
  "userdoc": {
    "kind": "user",
    "methods": {
      "setNewOwner(address)": {
        "notice": "Getter + Testing functions"
      }
    },
    "version": 1
  },
  "storageLayout": {
    "storage": [
      {
        "astId": 283,
        "contract": "contracts/LootNft.sol:LootNftCoC",
        "label": "_name",
        "offset": 0,
        "slot": "0",
        "type": "t_string_storage"
      },
      {
        "astId": 285,
        "contract": "contracts/LootNft.sol:LootNftCoC",
        "label": "_symbol",
        "offset": 0,
        "slot": "1",
        "type": "t_string_storage"
      },
      {
        "astId": 289,
        "contract": "contracts/LootNft.sol:LootNftCoC",
        "label": "_owners",
        "offset": 0,
        "slot": "2",
        "type": "t_mapping(t_uint256,t_address)"
      },
      {
        "astId": 293,
        "contract": "contracts/LootNft.sol:LootNftCoC",
        "label": "_balances",
        "offset": 0,
        "slot": "3",
        "type": "t_mapping(t_address,t_uint256)"
      },
      {
        "astId": 297,
        "contract": "contracts/LootNft.sol:LootNftCoC",
        "label": "_tokenApprovals",
        "offset": 0,
        "slot": "4",
        "type": "t_mapping(t_uint256,t_address)"
      },
      {
        "astId": 303,
        "contract": "contracts/LootNft.sol:LootNftCoC",
        "label": "_operatorApprovals",
        "offset": 0,
        "slot": "5",
        "type": "t_mapping(t_address,t_mapping(t_address,t_bool))"
      },
      {
        "astId": 1220,
        "contract": "contracts/LootNft.sol:LootNftCoC",
        "label": "_tokenURIs",
        "offset": 0,
        "slot": "6",
        "type": "t_mapping(t_uint256,t_string_storage)"
      },
      {
        "astId": 161,
        "contract": "contracts/LootNft.sol:LootNftCoC",
        "label": "_owner",
        "offset": 0,
        "slot": "7",
        "type": "t_address"
      },
      {
        "astId": 1965,
        "contract": "contracts/LootNft.sol:LootNftCoC",
        "label": "s_tokenCounter",
        "offset": 0,
        "slot": "8",
        "type": "t_uint256"
      },
      {
        "astId": 1968,
        "contract": "contracts/LootNft.sol:LootNftCoC",
        "label": "s_LootTokenUris",
        "offset": 0,
        "slot": "9",
        "type": "t_array(t_string_storage)dyn_storage"
      },
      {
        "astId": 1971,
        "contract": "contracts/LootNft.sol:LootNftCoC",
        "label": "s_LootTokenUrisownedbyPlayer",
        "offset": 0,
        "slot": "10",
        "type": "t_array(t_string_storage)dyn_storage"
      },
      {
        "astId": 1973,
        "contract": "contracts/LootNft.sol:LootNftCoC",
        "label": "s_initialized",
        "offset": 0,
        "slot": "11",
        "type": "t_bool"
      },
      {
        "astId": 1977,
        "contract": "contracts/LootNft.sol:LootNftCoC",
        "label": "s_requestIdToSender",
        "offset": 0,
        "slot": "12",
        "type": "t_mapping(t_uint256,t_address)"
      },
      {
        "astId": 1983,
        "contract": "contracts/LootNft.sol:LootNftCoC",
        "label": "s_addressToTokenURI",
        "offset": 0,
        "slot": "13",
        "type": "t_mapping(t_address,t_mapping(t_uint256,t_string_storage))"
      },
      {
        "astId": 1988,
        "contract": "contracts/LootNft.sol:LootNftCoC",
        "label": "s_addressToAllTokenURIs",
        "offset": 0,
        "slot": "14",
        "type": "t_mapping(t_address,t_array(t_string_storage)dyn_storage)"
      }
    ],
    "types": {
      "t_address": {
        "encoding": "inplace",
        "label": "address",
        "numberOfBytes": "20"
      },
      "t_array(t_string_storage)dyn_storage": {
        "base": "t_string_storage",
        "encoding": "dynamic_array",
        "label": "string[]",
        "numberOfBytes": "32"
      },
      "t_bool": {
        "encoding": "inplace",
        "label": "bool",
        "numberOfBytes": "1"
      },
      "t_mapping(t_address,t_array(t_string_storage)dyn_storage)": {
        "encoding": "mapping",
        "key": "t_address",
        "label": "mapping(address => string[])",
        "numberOfBytes": "32",
        "value": "t_array(t_string_storage)dyn_storage"
      },
      "t_mapping(t_address,t_bool)": {
        "encoding": "mapping",
        "key": "t_address",
        "label": "mapping(address => bool)",
        "numberOfBytes": "32",
        "value": "t_bool"
      },
      "t_mapping(t_address,t_mapping(t_address,t_bool))": {
        "encoding": "mapping",
        "key": "t_address",
        "label": "mapping(address => mapping(address => bool))",
        "numberOfBytes": "32",
        "value": "t_mapping(t_address,t_bool)"
      },
      "t_mapping(t_address,t_mapping(t_uint256,t_string_storage))": {
        "encoding": "mapping",
        "key": "t_address",
        "label": "mapping(address => mapping(uint256 => string))",
        "numberOfBytes": "32",
        "value": "t_mapping(t_uint256,t_string_storage)"
      },
      "t_mapping(t_address,t_uint256)": {
        "encoding": "mapping",
        "key": "t_address",
        "label": "mapping(address => uint256)",
        "numberOfBytes": "32",
        "value": "t_uint256"
      },
      "t_mapping(t_uint256,t_address)": {
        "encoding": "mapping",
        "key": "t_uint256",
        "label": "mapping(uint256 => address)",
        "numberOfBytes": "32",
        "value": "t_address"
      },
      "t_mapping(t_uint256,t_string_storage)": {
        "encoding": "mapping",
        "key": "t_uint256",
        "label": "mapping(uint256 => string)",
        "numberOfBytes": "32",
        "value": "t_string_storage"
      },
      "t_string_storage": {
        "encoding": "bytes",
        "label": "string",
        "numberOfBytes": "32"
      },
      "t_uint256": {
        "encoding": "inplace",
        "label": "uint256",
        "numberOfBytes": "32"
      }
    }
  }
}