{
  "address": "0x2719e37ae94C0d6847C75e32E99E3DA63a926869",
  "abi": [
    {
      "inputs": [
        {
          "internalType": "string[5]",
          "name": "_s_rankUris",
          "type": "string[5]"
        }
      ],
      "stateMutability": "nonpayable",
      "type": "constructor"
    },
    {
      "inputs": [],
      "name": "CoCRankNft__AlreadyInitialized",
      "type": "error"
    },
    {
      "anonymous": false,
      "inputs": [
        {
          "indexed": true,
          "internalType": "address",
          "name": "owner",
          "type": "address"
        },
        {
          "indexed": true,
          "internalType": "address",
          "name": "approved",
          "type": "address"
        },
        {
          "indexed": true,
          "internalType": "uint256",
          "name": "tokenId",
          "type": "uint256"
        }
      ],
      "name": "Approval",
      "type": "event"
    },
    {
      "anonymous": false,
      "inputs": [
        {
          "indexed": true,
          "internalType": "address",
          "name": "owner",
          "type": "address"
        },
        {
          "indexed": true,
          "internalType": "address",
          "name": "operator",
          "type": "address"
        },
        {
          "indexed": false,
          "internalType": "bool",
          "name": "approved",
          "type": "bool"
        }
      ],
      "name": "ApprovalForAll",
      "type": "event"
    },
    {
      "anonymous": false,
      "inputs": [
        {
          "indexed": true,
          "internalType": "address",
          "name": "nftAdress",
          "type": "address"
        },
        {
          "indexed": true,
          "internalType": "address",
          "name": "playerAddress",
          "type": "address"
        },
        {
          "indexed": true,
          "internalType": "uint256",
          "name": "tokenId",
          "type": "uint256"
        },
        {
          "indexed": false,
          "internalType": "uint256",
          "name": "rankIndex",
          "type": "uint256"
        }
      ],
      "name": "NftMinted",
      "type": "event"
    },
    {
      "anonymous": false,
      "inputs": [
        {
          "indexed": true,
          "internalType": "address",
          "name": "from",
          "type": "address"
        },
        {
          "indexed": true,
          "internalType": "address",
          "name": "to",
          "type": "address"
        },
        {
          "indexed": true,
          "internalType": "uint256",
          "name": "tokenId",
          "type": "uint256"
        }
      ],
      "name": "Transfer",
      "type": "event"
    },
    {
      "inputs": [
        {
          "internalType": "address",
          "name": "to",
          "type": "address"
        },
        {
          "internalType": "uint256",
          "name": "tokenId",
          "type": "uint256"
        }
      ],
      "name": "approve",
      "outputs": [],
      "stateMutability": "nonpayable",
      "type": "function"
    },
    {
      "inputs": [
        {
          "internalType": "address",
          "name": "owner",
          "type": "address"
        }
      ],
      "name": "balanceOf",
      "outputs": [
        {
          "internalType": "uint256",
          "name": "",
          "type": "uint256"
        }
      ],
      "stateMutability": "view",
      "type": "function"
    },
    {
      "inputs": [
        {
          "internalType": "uint256",
          "name": "tokenId",
          "type": "uint256"
        }
      ],
      "name": "getApproved",
      "outputs": [
        {
          "internalType": "address",
          "name": "",
          "type": "address"
        }
      ],
      "stateMutability": "view",
      "type": "function"
    },
    {
      "inputs": [
        {
          "internalType": "uint256",
          "name": "index",
          "type": "uint256"
        }
      ],
      "name": "getRankTokenUris",
      "outputs": [
        {
          "internalType": "string",
          "name": "",
          "type": "string"
        }
      ],
      "stateMutability": "view",
      "type": "function"
    },
    {
      "inputs": [
        {
          "internalType": "address",
          "name": "player",
          "type": "address"
        },
        {
          "internalType": "uint256",
          "name": "tokenId",
          "type": "uint256"
        }
      ],
      "name": "getTokenURIfromPlayerId",
      "outputs": [
        {
          "internalType": "string",
          "name": "",
          "type": "string"
        }
      ],
      "stateMutability": "view",
      "type": "function"
    },
    {
      "inputs": [
        {
          "internalType": "address",
          "name": "owner",
          "type": "address"
        },
        {
          "internalType": "address",
          "name": "operator",
          "type": "address"
        }
      ],
      "name": "isApprovedForAll",
      "outputs": [
        {
          "internalType": "bool",
          "name": "",
          "type": "bool"
        }
      ],
      "stateMutability": "view",
      "type": "function"
    },
    {
      "inputs": [
        {
          "internalType": "address",
          "name": "player",
          "type": "address"
        },
        {
          "internalType": "uint256",
          "name": "rankIndex",
          "type": "uint256"
        }
      ],
      "name": "mintRankNft",
      "outputs": [],
      "stateMutability": "nonpayable",
      "type": "function"
    },
    {
      "inputs": [],
      "name": "name",
      "outputs": [
        {
          "internalType": "string",
          "name": "",
          "type": "string"
        }
      ],
      "stateMutability": "view",
      "type": "function"
    },
    {
      "inputs": [
        {
          "internalType": "uint256",
          "name": "tokenId",
          "type": "uint256"
        }
      ],
      "name": "ownerOf",
      "outputs": [
        {
          "internalType": "address",
          "name": "",
          "type": "address"
        }
      ],
      "stateMutability": "view",
      "type": "function"
    },
    {
      "inputs": [
        {
          "internalType": "address",
          "name": "",
          "type": "address"
        },
        {
          "internalType": "uint256",
          "name": "",
          "type": "uint256"
        }
      ],
      "name": "s_addressToTokenURI",
      "outputs": [
        {
          "internalType": "string",
          "name": "",
          "type": "string"
        }
      ],
      "stateMutability": "view",
      "type": "function"
    },
    {
      "inputs": [
        {
          "internalType": "address",
          "name": "from",
          "type": "address"
        },
        {
          "internalType": "address",
          "name": "to",
          "type": "address"
        },
        {
          "internalType": "uint256",
          "name": "tokenId",
          "type": "uint256"
        }
      ],
      "name": "safeTransferFrom",
      "outputs": [],
      "stateMutability": "nonpayable",
      "type": "function"
    },
    {
      "inputs": [
        {
          "internalType": "address",
          "name": "from",
          "type": "address"
        },
        {
          "internalType": "address",
          "name": "to",
          "type": "address"
        },
        {
          "internalType": "uint256",
          "name": "tokenId",
          "type": "uint256"
        },
        {
          "internalType": "bytes",
          "name": "_data",
          "type": "bytes"
        }
      ],
      "name": "safeTransferFrom",
      "outputs": [],
      "stateMutability": "nonpayable",
      "type": "function"
    },
    {
      "inputs": [
        {
          "internalType": "address",
          "name": "operator",
          "type": "address"
        },
        {
          "internalType": "bool",
          "name": "approved",
          "type": "bool"
        }
      ],
      "name": "setApprovalForAll",
      "outputs": [],
      "stateMutability": "nonpayable",
      "type": "function"
    },
    {
      "inputs": [
        {
          "internalType": "bytes4",
          "name": "interfaceId",
          "type": "bytes4"
        }
      ],
      "name": "supportsInterface",
      "outputs": [
        {
          "internalType": "bool",
          "name": "",
          "type": "bool"
        }
      ],
      "stateMutability": "view",
      "type": "function"
    },
    {
      "inputs": [],
      "name": "symbol",
      "outputs": [
        {
          "internalType": "string",
          "name": "",
          "type": "string"
        }
      ],
      "stateMutability": "view",
      "type": "function"
    },
    {
      "inputs": [
        {
          "internalType": "uint256",
          "name": "tokenId",
          "type": "uint256"
        }
      ],
      "name": "tokenURI",
      "outputs": [
        {
          "internalType": "string",
          "name": "",
          "type": "string"
        }
      ],
      "stateMutability": "view",
      "type": "function"
    },
    {
      "inputs": [
        {
          "internalType": "address",
          "name": "from",
          "type": "address"
        },
        {
          "internalType": "address",
          "name": "to",
          "type": "address"
        },
        {
          "internalType": "uint256",
          "name": "tokenId",
          "type": "uint256"
        }
      ],
      "name": "transferFrom",
      "outputs": [],
      "stateMutability": "nonpayable",
      "type": "function"
    }
  ],
  "transactionHash": "0xd253a00bda59fbe65f0513e6eba01e96d347b8ca6e98d1f516cb2440e707fbc8",
  "args": [
    [
      "ipfs://QmU67Zx2kZrhMCyKsRq4F3QsquVSg1aYgb8acQMc4RMd6C",
      "ipfs://QmVdPkP1XzY7XL4vKnCzyhPKabBXomzSanXsPTSTqBWmbH",
      "ipfs://QmVgJZPKo85pxDoe3PFVWpxrzTUw78mEYUhiBcMDoNcz6y",
      "ipfs://QmbA8cp3UeH2Mvpg2r674szQBk66Bqi7xK5MrhX7qYRad6",
      "ipfs://QmaB56oDZR21y1D1TdXNEf7VMDUWFJEK6Po1dN6vzzinwn"
    ]
  ],
  "numDeployments": 2,
  "solcInputHash": "0830437e2220a632958737ef789e654c",
  "bytecode": "0x60806040526000600860006101000a81548160ff0219169083151502179055503480156200002c57600080fd5b506040516200364a3803806200364a833981810160405281019062000052919062000590565b6040518060400160405280600b81526020017f52616e6b20456d626c656d0000000000000000000000000000000000000000008152506040518060400160405280600b81526020017f436f432d52616e6b4e46540000000000000000000000000000000000000000008152508160009080519060200190620000d692919062000184565b508060019080519060200190620000ef92919062000184565b50505062000103816200010a60201b60201c565b5062000646565b600860009054906101000a900460ff161562000152576040517f19f0bd9500000000000000000000000000000000000000000000000000000000815260040160405180910390fd5b8060079060056200016592919062000215565b506001600860006101000a81548160ff02191690831515021790555050565b828054620001929062000610565b90600052602060002090601f016020900481019282620001b6576000855562000202565b82601f10620001d157805160ff191683800117855562000202565b8280016001018555821562000202579182015b8281111562000201578251825591602001919060010190620001e4565b5b5090506200021191906200027c565b5090565b82805482825590600052602060002090810192821562000269579160200282015b82811115620002685782518290805190602001906200025792919062000184565b509160200191906001019062000236565b5b5090506200027891906200029b565b5090565b5b80821115620002975760008160009055506001016200027d565b5090565b5b80821115620002bf5760008181620002b59190620002c3565b506001016200029c565b5090565b508054620002d19062000610565b6000825580601f10620002e5575062000306565b601f0160209004906000526020600020908101906200030591906200027c565b5b50565b6000604051905090565b600080fd5b600080fd5b600080fd5b6000601f19601f8301169050919050565b7f4e487b7100000000000000000000000000000000000000000000000000000000600052604160045260246000fd5b6200036d8262000322565b810181811067ffffffffffffffff821117156200038f576200038e62000333565b5b80604052505050565b6000620003a462000309565b9050620003b2828262000362565b919050565b600067ffffffffffffffff821115620003d557620003d462000333565b5b602082029050919050565b600080fd5b600080fd5b600067ffffffffffffffff82111562000408576200040762000333565b5b620004138262000322565b9050602081019050919050565b60005b838110156200044057808201518184015260208101905062000423565b8381111562000450576000848401525b50505050565b60006200046d6200046784620003ea565b62000398565b9050828152602081018484840111156200048c576200048b620003e5565b5b6200049984828562000420565b509392505050565b600082601f830112620004b957620004b86200031d565b5b8151620004cb84826020860162000456565b91505092915050565b6000620004eb620004e584620003b7565b62000398565b90508060208402830185811115620005085762000507620003e0565b5b835b818110156200055657805167ffffffffffffffff8111156200053157620005306200031d565b5b808601620005408982620004a1565b855260208501945050506020810190506200050a565b5050509392505050565b600082601f8301126200057857620005776200031d565b5b600562000587848285620004d4565b91505092915050565b600060208284031215620005a957620005a862000313565b5b600082015167ffffffffffffffff811115620005ca57620005c962000318565b5b620005d88482850162000560565b91505092915050565b7f4e487b7100000000000000000000000000000000000000000000000000000000600052602260045260246000fd5b600060028204905060018216806200062957607f821691505b6020821081141562000640576200063f620005e1565b5b50919050565b612ff480620006566000396000f3fe608060405234801561001057600080fd5b506004361061010b5760003560e01c80636352211e116100a2578063b88d4fde11610071578063b88d4fde146102dc578063c87b56dd146102f8578063e41dbb6c14610328578063e985e9c514610358578063f753dd39146103885761010b565b80636352211e1461024257806370a082311461027257806395d89b41146102a2578063a22cb465146102c05761010b565b8063095ea7b3116100de578063095ea7b3146101be57806323b872dd146101da57806335e923b8146101f657806342842e0e146102265761010b565b806301ffc9a714610110578063055708c91461014057806306fdde0314610170578063081812fc1461018e575b600080fd5b61012a60048036038101906101259190611e53565b6103a4565b6040516101379190611e9b565b60405180910390f35b61015a60048036038101906101559190611f4a565b610486565b6040516101679190612023565b60405180910390f35b610178610533565b6040516101859190612023565b60405180910390f35b6101a860048036038101906101a39190612045565b6105c5565b6040516101b59190612081565b60405180910390f35b6101d860048036038101906101d39190611f4a565b61064a565b005b6101f460048036038101906101ef919061209c565b610762565b005b610210600480360381019061020b9190612045565b6107c2565b60405161021d9190612023565b60405180910390f35b610240600480360381019061023b919061209c565b610872565b005b61025c60048036038101906102579190612045565b610892565b6040516102699190612081565b60405180910390f35b61028c600480360381019061028791906120ef565b610944565b604051610299919061212b565b60405180910390f35b6102aa6109fc565b6040516102b79190612023565b60405180910390f35b6102da60048036038101906102d59190612172565b610a8e565b005b6102f660048036038101906102f191906122e7565b610c0f565b005b610312600480360381019061030d9190612045565b610c71565b60405161031f9190612023565b60405180910390f35b610342600480360381019061033d9190611f4a565b610dc3565b60405161034f9190612023565b60405180910390f35b610372600480360381019061036d919061236a565b610ea6565b60405161037f9190611e9b565b60405180910390f35b6103a2600480360381019061039d9190611f4a565b610f3a565b005b60007f80ac58cd000000000000000000000000000000000000000000000000000000007bffffffffffffffffffffffffffffffffffffffffffffffffffffffff1916827bffffffffffffffffffffffffffffffffffffffffffffffffffffffff1916148061046f57507f5b5e139f000000000000000000000000000000000000000000000000000000007bffffffffffffffffffffffffffffffffffffffffffffffffffffffff1916827bffffffffffffffffffffffffffffffffffffffffffffffffffffffff1916145b8061047f575061047e82611101565b5b9050919050565b600a6020528160005260406000206020528060005260406000206000915091505080546104b2906123d9565b80601f01602080910402602001604051908101604052809291908181526020018280546104de906123d9565b801561052b5780601f106105005761010080835404028352916020019161052b565b820191906000526020600020905b81548152906001019060200180831161050e57829003601f168201915b505050505081565b606060008054610542906123d9565b80601f016020809104026020016040519081016040528092919081815260200182805461056e906123d9565b80156105bb5780601f10610590576101008083540402835291602001916105bb565b820191906000526020600020905b81548152906001019060200180831161059e57829003601f168201915b5050505050905090565b60006105d08261116b565b61060f576040517f08c379a00000000000000000000000000000000000000000000000000000000081526004016106069061247d565b60405180910390fd5b6004600083815260200190815260200160002060009054906101000a900473ffffffffffffffffffffffffffffffffffffffff169050919050565b600061065582610892565b90508073ffffffffffffffffffffffffffffffffffffffff168373ffffffffffffffffffffffffffffffffffffffff1614156106c6576040517f08c379a00000000000000000000000000000000000000000000000000000000081526004016106bd9061250f565b60405180910390fd5b8073ffffffffffffffffffffffffffffffffffffffff166106e56111d7565b73ffffffffffffffffffffffffffffffffffffffff16148061071457506107138161070e6111d7565b610ea6565b5b610753576040517f08c379a000000000000000000000000000000000000000000000000000000000815260040161074a906125a1565b60405180910390fd5b61075d83836111df565b505050565b61077361076d6111d7565b82611298565b6107b2576040517f08c379a00000000000000000000000000000000000000000000000000000000081526004016107a990612633565b60405180910390fd5b6107bd838383611376565b505050565b6060600782815481106107d8576107d7612653565b5b9060005260206000200180546107ed906123d9565b80601f0160208091040260200160405190810160405280929190818152602001828054610819906123d9565b80156108665780601f1061083b57610100808354040283529160200191610866565b820191906000526020600020905b81548152906001019060200180831161084957829003601f168201915b50505050509050919050565b61088d83838360405180602001604052806000815250610c0f565b505050565b6000806002600084815260200190815260200160002060009054906101000a900473ffffffffffffffffffffffffffffffffffffffff169050600073ffffffffffffffffffffffffffffffffffffffff168173ffffffffffffffffffffffffffffffffffffffff16141561093b576040517f08c379a0000000000000000000000000000000000000000000000000000000008152600401610932906126f4565b60405180910390fd5b80915050919050565b60008073ffffffffffffffffffffffffffffffffffffffff168273ffffffffffffffffffffffffffffffffffffffff1614156109b5576040517f08c379a00000000000000000000000000000000000000000000000000000000081526004016109ac90612786565b60405180910390fd5b600360008373ffffffffffffffffffffffffffffffffffffffff1673ffffffffffffffffffffffffffffffffffffffff168152602001908152602001600020549050919050565b606060018054610a0b906123d9565b80601f0160208091040260200160405190810160405280929190818152602001828054610a37906123d9565b8015610a845780601f10610a5957610100808354040283529160200191610a84565b820191906000526020600020905b815481529060010190602001808311610a6757829003601f168201915b5050505050905090565b610a966111d7565b73ffffffffffffffffffffffffffffffffffffffff168273ffffffffffffffffffffffffffffffffffffffff161415610b04576040517f08c379a0000000000000000000000000000000000000000000000000000000008152600401610afb906127f2565b60405180910390fd5b8060056000610b116111d7565b73ffffffffffffffffffffffffffffffffffffffff1673ffffffffffffffffffffffffffffffffffffffff16815260200190815260200160002060008473ffffffffffffffffffffffffffffffffffffffff1673ffffffffffffffffffffffffffffffffffffffff16815260200190815260200160002060006101000a81548160ff0219169083151502179055508173ffffffffffffffffffffffffffffffffffffffff16610bbe6111d7565b73ffffffffffffffffffffffffffffffffffffffff167f17307eab39ab6107e8899845ad3d59bd9653f200f220920489ca2b5937696c3183604051610c039190611e9b565b60405180910390a35050565b610c20610c1a6111d7565b83611298565b610c5f576040517f08c379a0000000000000000000000000000000000000000000000000000000008152600401610c5690612633565b60405180910390fd5b610c6b848484846115d2565b50505050565b6060610c7c8261116b565b610cbb576040517f08c379a0000000000000000000000000000000000000000000000000000000008152600401610cb290612884565b60405180910390fd5b6000600660008481526020019081526020016000208054610cdb906123d9565b80601f0160208091040260200160405190810160405280929190818152602001828054610d07906123d9565b8015610d545780601f10610d2957610100808354040283529160200191610d54565b820191906000526020600020905b815481529060010190602001808311610d3757829003601f168201915b505050505090506000610d6561162e565b9050600081511415610d7b578192505050610dbe565b600082511115610db0578082604051602001610d989291906128e0565b60405160208183030381529060405292505050610dbe565b610db984611645565b925050505b919050565b6060600a60008473ffffffffffffffffffffffffffffffffffffffff1673ffffffffffffffffffffffffffffffffffffffff16815260200190815260200160002060008381526020019081526020016000208054610e20906123d9565b80601f0160208091040260200160405190810160405280929190818152602001828054610e4c906123d9565b8015610e995780601f10610e6e57610100808354040283529160200191610e99565b820191906000526020600020905b815481529060010190602001808311610e7c57829003601f168201915b5050505050905092915050565b6000600560008473ffffffffffffffffffffffffffffffffffffffff1673ffffffffffffffffffffffffffffffffffffffff16815260200190815260200160002060008373ffffffffffffffffffffffffffffffffffffffff1673ffffffffffffffffffffffffffffffffffffffff16815260200190815260200160002060009054906101000a900460ff16905092915050565b600060095490506001600954610f509190612933565b600981905550610f6083826116ec565b6110108160078481548110610f7857610f77612653565b5b906000526020600020018054610f8d906123d9565b80601f0160208091040260200160405190810160405280929190818152602001828054610fb9906123d9565b80156110065780601f10610fdb57610100808354040283529160200191611006565b820191906000526020600020905b815481529060010190602001808311610fe957829003601f168201915b505050505061170a565b6007828154811061102457611023612653565b5b90600052602060002001600a60008573ffffffffffffffffffffffffffffffffffffffff1673ffffffffffffffffffffffffffffffffffffffff168152602001908152602001600020600083815260200190815260200160002090805461108a906123d9565b611095929190611cb7565b50808373ffffffffffffffffffffffffffffffffffffffff163073ffffffffffffffffffffffffffffffffffffffff167f626891549ebaf8778d610f7553b514ef8ebb8efec5da288b9e0a934e7cc23551856040516110f4919061212b565b60405180910390a4505050565b60007f01ffc9a7000000000000000000000000000000000000000000000000000000007bffffffffffffffffffffffffffffffffffffffffffffffffffffffff1916827bffffffffffffffffffffffffffffffffffffffffffffffffffffffff1916149050919050565b60008073ffffffffffffffffffffffffffffffffffffffff166002600084815260200190815260200160002060009054906101000a900473ffffffffffffffffffffffffffffffffffffffff1673ffffffffffffffffffffffffffffffffffffffff1614159050919050565b600033905090565b816004600083815260200190815260200160002060006101000a81548173ffffffffffffffffffffffffffffffffffffffff021916908373ffffffffffffffffffffffffffffffffffffffff160217905550808273ffffffffffffffffffffffffffffffffffffffff1661125283610892565b73ffffffffffffffffffffffffffffffffffffffff167f8c5be1e5ebec7d5bd14f71427d1e84f3dd0314c0f7b2291e5b200ac8c7c3b92560405160405180910390a45050565b60006112a38261116b565b6112e2576040517f08c379a00000000000000000000000000000000000000000000000000000000081526004016112d9906129fb565b60405180910390fd5b60006112ed83610892565b90508073ffffffffffffffffffffffffffffffffffffffff168473ffffffffffffffffffffffffffffffffffffffff16148061135c57508373ffffffffffffffffffffffffffffffffffffffff16611344846105c5565b73ffffffffffffffffffffffffffffffffffffffff16145b8061136d575061136c8185610ea6565b5b91505092915050565b8273ffffffffffffffffffffffffffffffffffffffff1661139682610892565b73ffffffffffffffffffffffffffffffffffffffff16146113ec576040517f08c379a00000000000000000000000000000000000000000000000000000000081526004016113e390612a8d565b60405180910390fd5b600073ffffffffffffffffffffffffffffffffffffffff168273ffffffffffffffffffffffffffffffffffffffff16141561145c576040517f08c379a000000000000000000000000000000000000000000000000000000000815260040161145390612b1f565b60405180910390fd5b61146783838361177e565b6114726000826111df565b6001600360008573ffffffffffffffffffffffffffffffffffffffff1673ffffffffffffffffffffffffffffffffffffffff16815260200190815260200160002060008282546114c29190612b3f565b925050819055506001600360008473ffffffffffffffffffffffffffffffffffffffff1673ffffffffffffffffffffffffffffffffffffffff16815260200190815260200160002060008282546115199190612933565b92505081905550816002600083815260200190815260200160002060006101000a81548173ffffffffffffffffffffffffffffffffffffffff021916908373ffffffffffffffffffffffffffffffffffffffff160217905550808273ffffffffffffffffffffffffffffffffffffffff168473ffffffffffffffffffffffffffffffffffffffff167fddf252ad1be2c89b69c2b068fc378daa952ba7f163c4a11628f55a4df523b3ef60405160405180910390a4505050565b6115dd848484611376565b6115e984848484611783565b611628576040517f08c379a000000000000000000000000000000000000000000000000000000000815260040161161f90612be5565b60405180910390fd5b50505050565b606060405180602001604052806000815250905090565b60606116508261116b565b61168f576040517f08c379a000000000000000000000000000000000000000000000000000000000815260040161168690612c77565b60405180910390fd5b600061169961162e565b905060008151116116b957604051806020016040528060008152506116e4565b806116c38461191a565b6040516020016116d49291906128e0565b6040516020818303038152906040525b915050919050565b611706828260405180602001604052806000815250611a7b565b5050565b6117138261116b565b611752576040517f08c379a000000000000000000000000000000000000000000000000000000000815260040161174990612d09565b60405180910390fd5b80600660008481526020019081526020016000209080519060200190611779929190611d44565b505050565b505050565b60006117a48473ffffffffffffffffffffffffffffffffffffffff16611ad6565b1561190d578373ffffffffffffffffffffffffffffffffffffffff1663150b7a026117cd6111d7565b8786866040518563ffffffff1660e01b81526004016117ef9493929190612d7e565b602060405180830381600087803b15801561180957600080fd5b505af192505050801561183a57506040513d601f19601f820116820180604052508101906118379190612ddf565b60015b6118bd573d806000811461186a576040519150601f19603f3d011682016040523d82523d6000602084013e61186f565b606091505b506000815114156118b5576040517f08c379a00000000000000000000000000000000000000000000000000000000081526004016118ac90612be5565b60405180910390fd5b805181602001fd5b63150b7a0260e01b7bffffffffffffffffffffffffffffffffffffffffffffffffffffffff1916817bffffffffffffffffffffffffffffffffffffffffffffffffffffffff191614915050611912565b600190505b949350505050565b60606000821415611962576040518060400160405280600181526020017f30000000000000000000000000000000000000000000000000000000000000008152509050611a76565b600082905060005b6000821461199457808061197d90612e0c565b915050600a8261198d9190612e84565b915061196a565b60008167ffffffffffffffff8111156119b0576119af6121bc565b5b6040519080825280601f01601f1916602001820160405280156119e25781602001600182028036833780820191505090505b5090505b60008514611a6f576001826119fb9190612b3f565b9150600a85611a0a9190612eb5565b6030611a169190612933565b60f81b818381518110611a2c57611a2b612653565b5b60200101907effffffffffffffffffffffffffffffffffffffffffffffffffffffffffffff1916908160001a905350600a85611a689190612e84565b94506119e6565b8093505050505b919050565b611a858383611ae9565b611a926000848484611783565b611ad1576040517f08c379a0000000000000000000000000000000000000000000000000000000008152600401611ac890612be5565b60405180910390fd5b505050565b600080823b905060008111915050919050565b600073ffffffffffffffffffffffffffffffffffffffff168273ffffffffffffffffffffffffffffffffffffffff161415611b59576040517f08c379a0000000000000000000000000000000000000000000000000000000008152600401611b5090612f32565b60405180910390fd5b611b628161116b565b15611ba2576040517f08c379a0000000000000000000000000000000000000000000000000000000008152600401611b9990612f9e565b60405180910390fd5b611bae6000838361177e565b6001600360008473ffffffffffffffffffffffffffffffffffffffff1673ffffffffffffffffffffffffffffffffffffffff1681526020019081526020016000206000828254611bfe9190612933565b92505081905550816002600083815260200190815260200160002060006101000a81548173ffffffffffffffffffffffffffffffffffffffff021916908373ffffffffffffffffffffffffffffffffffffffff160217905550808273ffffffffffffffffffffffffffffffffffffffff16600073ffffffffffffffffffffffffffffffffffffffff167fddf252ad1be2c89b69c2b068fc378daa952ba7f163c4a11628f55a4df523b3ef60405160405180910390a45050565b828054611cc3906123d9565b90600052602060002090601f016020900481019282611ce55760008555611d33565b82601f10611cf65780548555611d33565b82800160010185558215611d3357600052602060002091601f016020900482015b82811115611d32578254825591600101919060010190611d17565b5b509050611d409190611dca565b5090565b828054611d50906123d9565b90600052602060002090601f016020900481019282611d725760008555611db9565b82601f10611d8b57805160ff1916838001178555611db9565b82800160010185558215611db9579182015b82811115611db8578251825591602001919060010190611d9d565b5b509050611dc69190611dca565b5090565b5b80821115611de3576000816000905550600101611dcb565b5090565b6000604051905090565b600080fd5b600080fd5b60007fffffffff0000000000000000000000000000000000000000000000000000000082169050919050565b611e3081611dfb565b8114611e3b57600080fd5b50565b600081359050611e4d81611e27565b92915050565b600060208284031215611e6957611e68611df1565b5b6000611e7784828501611e3e565b91505092915050565b60008115159050919050565b611e9581611e80565b82525050565b6000602082019050611eb06000830184611e8c565b92915050565b600073ffffffffffffffffffffffffffffffffffffffff82169050919050565b6000611ee182611eb6565b9050919050565b611ef181611ed6565b8114611efc57600080fd5b50565b600081359050611f0e81611ee8565b92915050565b6000819050919050565b611f2781611f14565b8114611f3257600080fd5b50565b600081359050611f4481611f1e565b92915050565b60008060408385031215611f6157611f60611df1565b5b6000611f6f85828601611eff565b9250506020611f8085828601611f35565b9150509250929050565b600081519050919050565b600082825260208201905092915050565b60005b83811015611fc4578082015181840152602081019050611fa9565b83811115611fd3576000848401525b50505050565b6000601f19601f8301169050919050565b6000611ff582611f8a565b611fff8185611f95565b935061200f818560208601611fa6565b61201881611fd9565b840191505092915050565b6000602082019050818103600083015261203d8184611fea565b905092915050565b60006020828403121561205b5761205a611df1565b5b600061206984828501611f35565b91505092915050565b61207b81611ed6565b82525050565b60006020820190506120966000830184612072565b92915050565b6000806000606084860312156120b5576120b4611df1565b5b60006120c386828701611eff565b93505060206120d486828701611eff565b92505060406120e586828701611f35565b9150509250925092565b60006020828403121561210557612104611df1565b5b600061211384828501611eff565b91505092915050565b61212581611f14565b82525050565b6000602082019050612140600083018461211c565b92915050565b61214f81611e80565b811461215a57600080fd5b50565b60008135905061216c81612146565b92915050565b6000806040838503121561218957612188611df1565b5b600061219785828601611eff565b92505060206121a88582860161215d565b9150509250929050565b600080fd5b600080fd5b7f4e487b7100000000000000000000000000000000000000000000000000000000600052604160045260246000fd5b6121f482611fd9565b810181811067ffffffffffffffff82111715612213576122126121bc565b5b80604052505050565b6000612226611de7565b905061223282826121eb565b919050565b600067ffffffffffffffff821115612252576122516121bc565b5b61225b82611fd9565b9050602081019050919050565b82818337600083830152505050565b600061228a61228584612237565b61221c565b9050828152602081018484840111156122a6576122a56121b7565b5b6122b1848285612268565b509392505050565b600082601f8301126122ce576122cd6121b2565b5b81356122de848260208601612277565b91505092915050565b6000806000806080858703121561230157612300611df1565b5b600061230f87828801611eff565b945050602061232087828801611eff565b935050604061233187828801611f35565b925050606085013567ffffffffffffffff81111561235257612351611df6565b5b61235e878288016122b9565b91505092959194509250565b6000806040838503121561238157612380611df1565b5b600061238f85828601611eff565b92505060206123a085828601611eff565b9150509250929050565b7f4e487b7100000000000000000000000000000000000000000000000000000000600052602260045260246000fd5b600060028204905060018216806123f157607f821691505b60208210811415612405576124046123aa565b5b50919050565b7f4552433732313a20617070726f76656420717565727920666f72206e6f6e657860008201527f697374656e7420746f6b656e0000000000000000000000000000000000000000602082015250565b6000612467602c83611f95565b91506124728261240b565b604082019050919050565b600060208201905081810360008301526124968161245a565b9050919050565b7f4552433732313a20617070726f76616c20746f2063757272656e74206f776e6560008201527f7200000000000000000000000000000000000000000000000000000000000000602082015250565b60006124f9602183611f95565b91506125048261249d565b604082019050919050565b60006020820190508181036000830152612528816124ec565b9050919050565b7f4552433732313a20617070726f76652063616c6c6572206973206e6f74206f7760008201527f6e6572206e6f7220617070726f76656420666f7220616c6c0000000000000000602082015250565b600061258b603883611f95565b91506125968261252f565b604082019050919050565b600060208201905081810360008301526125ba8161257e565b9050919050565b7f4552433732313a207472616e736665722063616c6c6572206973206e6f74206f60008201527f776e6572206e6f7220617070726f766564000000000000000000000000000000602082015250565b600061261d603183611f95565b9150612628826125c1565b604082019050919050565b6000602082019050818103600083015261264c81612610565b9050919050565b7f4e487b7100000000000000000000000000000000000000000000000000000000600052603260045260246000fd5b7f4552433732313a206f776e657220717565727920666f72206e6f6e657869737460008201527f656e7420746f6b656e0000000000000000000000000000000000000000000000602082015250565b60006126de602983611f95565b91506126e982612682565b604082019050919050565b6000602082019050818103600083015261270d816126d1565b9050919050565b7f4552433732313a2062616c616e636520717565727920666f7220746865207a6560008201527f726f206164647265737300000000000000000000000000000000000000000000602082015250565b6000612770602a83611f95565b915061277b82612714565b604082019050919050565b6000602082019050818103600083015261279f81612763565b9050919050565b7f4552433732313a20617070726f766520746f2063616c6c657200000000000000600082015250565b60006127dc601983611f95565b91506127e7826127a6565b602082019050919050565b6000602082019050818103600083015261280b816127cf565b9050919050565b7f45524337323155524953746f726167653a2055524920717565727920666f722060008201527f6e6f6e6578697374656e7420746f6b656e000000000000000000000000000000602082015250565b600061286e603183611f95565b915061287982612812565b604082019050919050565b6000602082019050818103600083015261289d81612861565b9050919050565b600081905092915050565b60006128ba82611f8a565b6128c481856128a4565b93506128d4818560208601611fa6565b80840191505092915050565b60006128ec82856128af565b91506128f882846128af565b91508190509392505050565b7f4e487b7100000000000000000000000000000000000000000000000000000000600052601160045260246000fd5b600061293e82611f14565b915061294983611f14565b9250827fffffffffffffffffffffffffffffffffffffffffffffffffffffffffffffffff0382111561297e5761297d612904565b5b828201905092915050565b7f4552433732313a206f70657261746f7220717565727920666f72206e6f6e657860008201527f697374656e7420746f6b656e0000000000000000000000000000000000000000602082015250565b60006129e5602c83611f95565b91506129f082612989565b604082019050919050565b60006020820190508181036000830152612a14816129d8565b9050919050565b7f4552433732313a207472616e73666572206f6620746f6b656e2074686174206960008201527f73206e6f74206f776e0000000000000000000000000000000000000000000000602082015250565b6000612a77602983611f95565b9150612a8282612a1b565b604082019050919050565b60006020820190508181036000830152612aa681612a6a565b9050919050565b7f4552433732313a207472616e7366657220746f20746865207a65726f2061646460008201527f7265737300000000000000000000000000000000000000000000000000000000602082015250565b6000612b09602483611f95565b9150612b1482612aad565b604082019050919050565b60006020820190508181036000830152612b3881612afc565b9050919050565b6000612b4a82611f14565b9150612b5583611f14565b925082821015612b6857612b67612904565b5b828203905092915050565b7f4552433732313a207472616e7366657220746f206e6f6e20455243373231526560008201527f63656976657220696d706c656d656e7465720000000000000000000000000000602082015250565b6000612bcf603283611f95565b9150612bda82612b73565b604082019050919050565b60006020820190508181036000830152612bfe81612bc2565b9050919050565b7f4552433732314d657461646174613a2055524920717565727920666f72206e6f60008201527f6e6578697374656e7420746f6b656e0000000000000000000000000000000000602082015250565b6000612c61602f83611f95565b9150612c6c82612c05565b604082019050919050565b60006020820190508181036000830152612c9081612c54565b9050919050565b7f45524337323155524953746f726167653a2055524920736574206f66206e6f6e60008201527f6578697374656e7420746f6b656e000000000000000000000000000000000000602082015250565b6000612cf3602e83611f95565b9150612cfe82612c97565b604082019050919050565b60006020820190508181036000830152612d2281612ce6565b9050919050565b600081519050919050565b600082825260208201905092915050565b6000612d5082612d29565b612d5a8185612d34565b9350612d6a818560208601611fa6565b612d7381611fd9565b840191505092915050565b6000608082019050612d936000830187612072565b612da06020830186612072565b612dad604083018561211c565b8181036060830152612dbf8184612d45565b905095945050505050565b600081519050612dd981611e27565b92915050565b600060208284031215612df557612df4611df1565b5b6000612e0384828501612dca565b91505092915050565b6000612e1782611f14565b91507fffffffffffffffffffffffffffffffffffffffffffffffffffffffffffffffff821415612e4a57612e49612904565b5b600182019050919050565b7f4e487b7100000000000000000000000000000000000000000000000000000000600052601260045260246000fd5b6000612e8f82611f14565b9150612e9a83611f14565b925082612eaa57612ea9612e55565b5b828204905092915050565b6000612ec082611f14565b9150612ecb83611f14565b925082612edb57612eda612e55565b5b828206905092915050565b7f4552433732313a206d696e7420746f20746865207a65726f2061646472657373600082015250565b6000612f1c602083611f95565b9150612f2782612ee6565b602082019050919050565b60006020820190508181036000830152612f4b81612f0f565b9050919050565b7f4552433732313a20746f6b656e20616c7265616479206d696e74656400000000600082015250565b6000612f88601c83611f95565b9150612f9382612f52565b602082019050919050565b60006020820190508181036000830152612fb781612f7b565b905091905056fea2646970667358221220efce6aa9769eb92de69a9dd26d8e5c4579ab00c1fe4408d6ccd81cd964a4dc6964736f6c63430008080033",
  "devdoc": {
    "kind": "dev",
    "methods": {
      "approve(address,uint256)": {
        "details": "See {IERC721-approve}."
      },
      "balanceOf(address)": {
        "details": "See {IERC721-balanceOf}."
      },
      "getApproved(uint256)": {
        "details": "See {IERC721-getApproved}."
      },
      "isApprovedForAll(address,address)": {
        "details": "See {IERC721-isApprovedForAll}."
      },
      "name()": {
        "details": "See {IERC721Metadata-name}."
      },
      "ownerOf(uint256)": {
        "details": "See {IERC721-ownerOf}."
      },
      "safeTransferFrom(address,address,uint256)": {
        "details": "See {IERC721-safeTransferFrom}."
      },
      "safeTransferFrom(address,address,uint256,bytes)": {
        "details": "See {IERC721-safeTransferFrom}."
      },
      "setApprovalForAll(address,bool)": {
        "details": "See {IERC721-setApprovalForAll}."
      },
      "supportsInterface(bytes4)": {
        "details": "See {IERC165-supportsInterface}."
      },
      "symbol()": {
        "details": "See {IERC721Metadata-symbol}."
      },
      "tokenURI(uint256)": {
        "details": "See {IERC721Metadata-tokenURI}."
      },
      "transferFrom(address,address,uint256)": {
        "details": "See {IERC721-transferFrom}."
      }
    },
    "version": 1
  },
  "userdoc": {
    "kind": "user",
    "methods": {},
    "version": 1
  },
  "storageLayout": {
    "storage": [
      {
        "astId": 283,
        "contract": "contracts/RankNft.sol:RankNftCoC",
        "label": "_name",
        "offset": 0,
        "slot": "0",
        "type": "t_string_storage"
      },
      {
        "astId": 285,
        "contract": "contracts/RankNft.sol:RankNftCoC",
        "label": "_symbol",
        "offset": 0,
        "slot": "1",
        "type": "t_string_storage"
      },
      {
        "astId": 289,
        "contract": "contracts/RankNft.sol:RankNftCoC",
        "label": "_owners",
        "offset": 0,
        "slot": "2",
        "type": "t_mapping(t_uint256,t_address)"
      },
      {
        "astId": 293,
        "contract": "contracts/RankNft.sol:RankNftCoC",
        "label": "_balances",
        "offset": 0,
        "slot": "3",
        "type": "t_mapping(t_address,t_uint256)"
      },
      {
        "astId": 297,
        "contract": "contracts/RankNft.sol:RankNftCoC",
        "label": "_tokenApprovals",
        "offset": 0,
        "slot": "4",
        "type": "t_mapping(t_uint256,t_address)"
      },
      {
        "astId": 303,
        "contract": "contracts/RankNft.sol:RankNftCoC",
        "label": "_operatorApprovals",
        "offset": 0,
        "slot": "5",
        "type": "t_mapping(t_address,t_mapping(t_address,t_bool))"
      },
      {
        "astId": 1220,
        "contract": "contracts/RankNft.sol:RankNftCoC",
        "label": "_tokenURIs",
        "offset": 0,
        "slot": "6",
        "type": "t_mapping(t_uint256,t_string_storage)"
      },
      {
        "astId": 2452,
        "contract": "contracts/RankNft.sol:RankNftCoC",
        "label": "s_rankUris",
        "offset": 0,
        "slot": "7",
        "type": "t_array(t_string_storage)dyn_storage"
      },
      {
        "astId": 2455,
        "contract": "contracts/RankNft.sol:RankNftCoC",
        "label": "s_initialized",
        "offset": 0,
        "slot": "8",
        "type": "t_bool"
      },
      {
        "astId": 2457,
        "contract": "contracts/RankNft.sol:RankNftCoC",
        "label": "s_tokenCounter",
        "offset": 0,
        "slot": "9",
        "type": "t_uint256"
      },
      {
        "astId": 2473,
        "contract": "contracts/RankNft.sol:RankNftCoC",
        "label": "s_addressToTokenURI",
        "offset": 0,
        "slot": "10",
        "type": "t_mapping(t_address,t_mapping(t_uint256,t_string_storage))"
      }
    ],
    "types": {
      "t_address": {
        "encoding": "inplace",
        "label": "address",
        "numberOfBytes": "20"
      },
      "t_array(t_string_storage)dyn_storage": {
        "base": "t_string_storage",
        "encoding": "dynamic_array",
        "label": "string[]",
        "numberOfBytes": "32"
      },
      "t_bool": {
        "encoding": "inplace",
        "label": "bool",
        "numberOfBytes": "1"
      },
      "t_mapping(t_address,t_bool)": {
        "encoding": "mapping",
        "key": "t_address",
        "label": "mapping(address => bool)",
        "numberOfBytes": "32",
        "value": "t_bool"
      },
      "t_mapping(t_address,t_mapping(t_address,t_bool))": {
        "encoding": "mapping",
        "key": "t_address",
        "label": "mapping(address => mapping(address => bool))",
        "numberOfBytes": "32",
        "value": "t_mapping(t_address,t_bool)"
      },
      "t_mapping(t_address,t_mapping(t_uint256,t_string_storage))": {
        "encoding": "mapping",
        "key": "t_address",
        "label": "mapping(address => mapping(uint256 => string))",
        "numberOfBytes": "32",
        "value": "t_mapping(t_uint256,t_string_storage)"
      },
      "t_mapping(t_address,t_uint256)": {
        "encoding": "mapping",
        "key": "t_address",
        "label": "mapping(address => uint256)",
        "numberOfBytes": "32",
        "value": "t_uint256"
      },
      "t_mapping(t_uint256,t_address)": {
        "encoding": "mapping",
        "key": "t_uint256",
        "label": "mapping(uint256 => address)",
        "numberOfBytes": "32",
        "value": "t_address"
      },
      "t_mapping(t_uint256,t_string_storage)": {
        "encoding": "mapping",
        "key": "t_uint256",
        "label": "mapping(uint256 => string)",
        "numberOfBytes": "32",
        "value": "t_string_storage"
      },
      "t_string_storage": {
        "encoding": "bytes",
        "label": "string",
        "numberOfBytes": "32"
      },
      "t_uint256": {
        "encoding": "inplace",
        "label": "uint256",
        "numberOfBytes": "32"
      }
    }
  }
}