{
  "address": "0x61d7357b26d27d4c76E723376627Babc7645ac8E",
  "abi": [
    {
      "inputs": [
        {
          "internalType": "string[10]",
          "name": "_s_rankUris",
          "type": "string[10]"
        }
      ],
      "stateMutability": "nonpayable",
      "type": "constructor"
    },
    {
      "inputs": [],
      "name": "CoCRankNft__AlreadyInitialized",
      "type": "error"
    },
    {
      "anonymous": false,
      "inputs": [
        {
          "indexed": true,
          "internalType": "address",
          "name": "owner",
          "type": "address"
        },
        {
          "indexed": true,
          "internalType": "address",
          "name": "approved",
          "type": "address"
        },
        {
          "indexed": true,
          "internalType": "uint256",
          "name": "tokenId",
          "type": "uint256"
        }
      ],
      "name": "Approval",
      "type": "event"
    },
    {
      "anonymous": false,
      "inputs": [
        {
          "indexed": true,
          "internalType": "address",
          "name": "owner",
          "type": "address"
        },
        {
          "indexed": true,
          "internalType": "address",
          "name": "operator",
          "type": "address"
        },
        {
          "indexed": false,
          "internalType": "bool",
          "name": "approved",
          "type": "bool"
        }
      ],
      "name": "ApprovalForAll",
      "type": "event"
    },
    {
      "anonymous": false,
      "inputs": [
        {
          "indexed": true,
          "internalType": "address",
          "name": "nftAdress",
          "type": "address"
        },
        {
          "indexed": true,
          "internalType": "address",
          "name": "playerAddress",
          "type": "address"
        },
        {
          "indexed": true,
          "internalType": "uint256",
          "name": "tokenId",
          "type": "uint256"
        },
        {
          "indexed": false,
          "internalType": "uint256",
          "name": "rankIndex",
          "type": "uint256"
        }
      ],
      "name": "RankNftMinted",
      "type": "event"
    },
    {
      "anonymous": false,
      "inputs": [
        {
          "indexed": true,
          "internalType": "address",
          "name": "from",
          "type": "address"
        },
        {
          "indexed": true,
          "internalType": "address",
          "name": "to",
          "type": "address"
        },
        {
          "indexed": true,
          "internalType": "uint256",
          "name": "tokenId",
          "type": "uint256"
        }
      ],
      "name": "Transfer",
      "type": "event"
    },
    {
      "inputs": [
        {
          "internalType": "address",
          "name": "to",
          "type": "address"
        },
        {
          "internalType": "uint256",
          "name": "tokenId",
          "type": "uint256"
        }
      ],
      "name": "approve",
      "outputs": [],
      "stateMutability": "nonpayable",
      "type": "function"
    },
    {
      "inputs": [
        {
          "internalType": "address",
          "name": "owner",
          "type": "address"
        }
      ],
      "name": "balanceOf",
      "outputs": [
        {
          "internalType": "uint256",
          "name": "",
          "type": "uint256"
        }
      ],
      "stateMutability": "view",
      "type": "function"
    },
    {
      "inputs": [
        {
          "internalType": "uint256",
          "name": "tokenId",
          "type": "uint256"
        }
      ],
      "name": "getApproved",
      "outputs": [
        {
          "internalType": "address",
          "name": "",
          "type": "address"
        }
      ],
      "stateMutability": "view",
      "type": "function"
    },
    {
      "inputs": [
        {
          "internalType": "uint256",
          "name": "rankIndex",
          "type": "uint256"
        }
      ],
      "name": "getRankTokenUris",
      "outputs": [
        {
          "internalType": "string",
          "name": "",
          "type": "string"
        }
      ],
      "stateMutability": "view",
      "type": "function"
    },
    {
      "inputs": [
        {
          "internalType": "address",
          "name": "owner",
          "type": "address"
        },
        {
          "internalType": "address",
          "name": "operator",
          "type": "address"
        }
      ],
      "name": "isApprovedForAll",
      "outputs": [
        {
          "internalType": "bool",
          "name": "",
          "type": "bool"
        }
      ],
      "stateMutability": "view",
      "type": "function"
    },
    {
      "inputs": [
        {
          "internalType": "address",
          "name": "player",
          "type": "address"
        },
        {
          "internalType": "uint256",
          "name": "rankIndex",
          "type": "uint256"
        }
      ],
      "name": "mintRankNft",
      "outputs": [],
      "stateMutability": "nonpayable",
      "type": "function"
    },
    {
      "inputs": [],
      "name": "name",
      "outputs": [
        {
          "internalType": "string",
          "name": "",
          "type": "string"
        }
      ],
      "stateMutability": "view",
      "type": "function"
    },
    {
      "inputs": [
        {
          "internalType": "uint256",
          "name": "tokenId",
          "type": "uint256"
        }
      ],
      "name": "ownerOf",
      "outputs": [
        {
          "internalType": "address",
          "name": "",
          "type": "address"
        }
      ],
      "stateMutability": "view",
      "type": "function"
    },
    {
      "inputs": [
        {
          "internalType": "address",
          "name": "",
          "type": "address"
        },
        {
          "internalType": "uint256",
          "name": "",
          "type": "uint256"
        }
      ],
      "name": "s_addressToTokenURI",
      "outputs": [
        {
          "internalType": "string",
          "name": "",
          "type": "string"
        }
      ],
      "stateMutability": "view",
      "type": "function"
    },
    {
      "inputs": [
        {
          "internalType": "address",
          "name": "from",
          "type": "address"
        },
        {
          "internalType": "address",
          "name": "to",
          "type": "address"
        },
        {
          "internalType": "uint256",
          "name": "tokenId",
          "type": "uint256"
        }
      ],
      "name": "safeTransferFrom",
      "outputs": [],
      "stateMutability": "nonpayable",
      "type": "function"
    },
    {
      "inputs": [
        {
          "internalType": "address",
          "name": "from",
          "type": "address"
        },
        {
          "internalType": "address",
          "name": "to",
          "type": "address"
        },
        {
          "internalType": "uint256",
          "name": "tokenId",
          "type": "uint256"
        },
        {
          "internalType": "bytes",
          "name": "_data",
          "type": "bytes"
        }
      ],
      "name": "safeTransferFrom",
      "outputs": [],
      "stateMutability": "nonpayable",
      "type": "function"
    },
    {
      "inputs": [
        {
          "internalType": "address",
          "name": "operator",
          "type": "address"
        },
        {
          "internalType": "bool",
          "name": "approved",
          "type": "bool"
        }
      ],
      "name": "setApprovalForAll",
      "outputs": [],
      "stateMutability": "nonpayable",
      "type": "function"
    },
    {
      "inputs": [
        {
          "internalType": "bytes4",
          "name": "interfaceId",
          "type": "bytes4"
        }
      ],
      "name": "supportsInterface",
      "outputs": [
        {
          "internalType": "bool",
          "name": "",
          "type": "bool"
        }
      ],
      "stateMutability": "view",
      "type": "function"
    },
    {
      "inputs": [],
      "name": "symbol",
      "outputs": [
        {
          "internalType": "string",
          "name": "",
          "type": "string"
        }
      ],
      "stateMutability": "view",
      "type": "function"
    },
    {
      "inputs": [
        {
          "internalType": "uint256",
          "name": "tokenId",
          "type": "uint256"
        }
      ],
      "name": "tokenURI",
      "outputs": [
        {
          "internalType": "string",
          "name": "",
          "type": "string"
        }
      ],
      "stateMutability": "view",
      "type": "function"
    },
    {
      "inputs": [
        {
          "internalType": "address",
          "name": "from",
          "type": "address"
        },
        {
          "internalType": "address",
          "name": "to",
          "type": "address"
        },
        {
          "internalType": "uint256",
          "name": "tokenId",
          "type": "uint256"
        }
      ],
      "name": "transferFrom",
      "outputs": [],
      "stateMutability": "nonpayable",
      "type": "function"
    }
  ],
  "transactionHash": "0x5cbd274529e5e7cef2c4bac3e8b695513d0dd04721b21240861d46a5f22d5062",
  "args": [
    [
      "ipfs://QmRhAM7ioVhw7c195R4KcjSoKrGWQiSvsBha64NhEPpkr1",
      "ipfs://QmWiBZNhSCnkf9M7nYVRnFjoG3DxZnkhzJ1tqeuGN9drYk",
      "ipfs://QmTjQKWjkC6yTT4KqbJyqiWKAqkewMY3hZNrJMQQmFEw7V",
      "ipfs://QmbZnZYR8JofQrPU6AnHgJSb4hgDT9Wa72BMEApw7MN1kr",
      "ipfs://QmVqNqTEN5xZLTj2XxuYPkwFQdHNokwsEZG74Bp9GjvVQd",
      "ipfs://QmZTeedRh5XDSEHxANZKgQAgYYZqm1Wx3f1FyVNyRtLz3S",
      "ipfs://QmY6stzBnW2r9KyHyHejk6xtoP3KY1WyL6Je5jMcfVwcSo",
      "ipfs://QmTfbVwkNZXzRdThiDeSTUEcyVfzAnHivhtB9b1jCqScM9",
      "ipfs://QmYH4KiJVW2AiVu4wJCQoqZciezFtqjvvoUDK2Vk5mjB5e",
      "ipfs://QmWfoWciJEHx43ztnw2svEGhxWubZ4FY2rB9obRreqCA17"
    ]
  ],
  "numDeployments": 5,
  "solcInputHash": "091596fee68e43206692f76d759a600e",
  "bytecode": "0x60806040526000600860006101000a81548160ff0219169083151502179055503480156200002c57600080fd5b506040516200352c3803806200352c833981810160405281019062000052919062000590565b6040518060400160405280600b81526020017f52616e6b20456d626c656d0000000000000000000000000000000000000000008152506040518060400160405280600b81526020017f436f432d52616e6b4e46540000000000000000000000000000000000000000008152508160009080519060200190620000d692919062000184565b508060019080519060200190620000ef92919062000184565b50505062000103816200010a60201b60201c565b5062000646565b600860009054906101000a900460ff161562000152576040517f19f0bd9500000000000000000000000000000000000000000000000000000000815260040160405180910390fd5b80600790600a6200016592919062000215565b506001600860006101000a81548160ff02191690831515021790555050565b828054620001929062000610565b90600052602060002090601f016020900481019282620001b6576000855562000202565b82601f10620001d157805160ff191683800117855562000202565b8280016001018555821562000202579182015b8281111562000201578251825591602001919060010190620001e4565b5b5090506200021191906200027c565b5090565b82805482825590600052602060002090810192821562000269579160200282015b82811115620002685782518290805190602001906200025792919062000184565b509160200191906001019062000236565b5b5090506200027891906200029b565b5090565b5b80821115620002975760008160009055506001016200027d565b5090565b5b80821115620002bf5760008181620002b59190620002c3565b506001016200029c565b5090565b508054620002d19062000610565b6000825580601f10620002e5575062000306565b601f0160209004906000526020600020908101906200030591906200027c565b5b50565b6000604051905090565b600080fd5b600080fd5b600080fd5b6000601f19601f8301169050919050565b7f4e487b7100000000000000000000000000000000000000000000000000000000600052604160045260246000fd5b6200036d8262000322565b810181811067ffffffffffffffff821117156200038f576200038e62000333565b5b80604052505050565b6000620003a462000309565b9050620003b2828262000362565b919050565b600067ffffffffffffffff821115620003d557620003d462000333565b5b602082029050919050565b600080fd5b600080fd5b600067ffffffffffffffff82111562000408576200040762000333565b5b620004138262000322565b9050602081019050919050565b60005b838110156200044057808201518184015260208101905062000423565b8381111562000450576000848401525b50505050565b60006200046d6200046784620003ea565b62000398565b9050828152602081018484840111156200048c576200048b620003e5565b5b6200049984828562000420565b509392505050565b600082601f830112620004b957620004b86200031d565b5b8151620004cb84826020860162000456565b91505092915050565b6000620004eb620004e584620003b7565b62000398565b90508060208402830185811115620005085762000507620003e0565b5b835b818110156200055657805167ffffffffffffffff8111156200053157620005306200031d565b5b808601620005408982620004a1565b855260208501945050506020810190506200050a565b5050509392505050565b600082601f8301126200057857620005776200031d565b5b600a62000587848285620004d4565b91505092915050565b600060208284031215620005a957620005a862000313565b5b600082015167ffffffffffffffff811115620005ca57620005c962000318565b5b620005d88482850162000560565b91505092915050565b7f4e487b7100000000000000000000000000000000000000000000000000000000600052602260045260246000fd5b600060028204905060018216806200062957607f821691505b6020821081141562000640576200063f620005e1565b5b50919050565b612ed680620006566000396000f3fe608060405234801561001057600080fd5b50600436106101005760003560e01c80636352211e11610097578063b88d4fde11610066578063b88d4fde146102d1578063c87b56dd146102ed578063e985e9c51461031d578063f753dd391461034d57610100565b80636352211e1461023757806370a082311461026757806395d89b4114610297578063a22cb465146102b557610100565b8063095ea7b3116100d3578063095ea7b3146101b357806323b872dd146101cf57806335e923b8146101eb57806342842e0e1461021b57610100565b806301ffc9a714610105578063055708c91461013557806306fdde0314610165578063081812fc14610183575b600080fd5b61011f600480360381019061011a9190611d35565b610369565b60405161012c9190611d7d565b60405180910390f35b61014f600480360381019061014a9190611e2c565b61044b565b60405161015c9190611f05565b60405180910390f35b61016d6104f8565b60405161017a9190611f05565b60405180910390f35b61019d60048036038101906101989190611f27565b61058a565b6040516101aa9190611f63565b60405180910390f35b6101cd60048036038101906101c89190611e2c565b61060f565b005b6101e960048036038101906101e49190611f7e565b610727565b005b61020560048036038101906102009190611f27565b610787565b6040516102129190611f05565b60405180910390f35b61023560048036038101906102309190611f7e565b610837565b005b610251600480360381019061024c9190611f27565b610857565b60405161025e9190611f63565b60405180910390f35b610281600480360381019061027c9190611fd1565b610909565b60405161028e919061200d565b60405180910390f35b61029f6109c1565b6040516102ac9190611f05565b60405180910390f35b6102cf60048036038101906102ca9190612054565b610a53565b005b6102eb60048036038101906102e691906121c9565b610bd4565b005b61030760048036038101906103029190611f27565b610c36565b6040516103149190611f05565b60405180910390f35b6103376004803603810190610332919061224c565b610d88565b6040516103449190611d7d565b60405180910390f35b61036760048036038101906103629190611e2c565b610e1c565b005b60007f80ac58cd000000000000000000000000000000000000000000000000000000007bffffffffffffffffffffffffffffffffffffffffffffffffffffffff1916827bffffffffffffffffffffffffffffffffffffffffffffffffffffffff1916148061043457507f5b5e139f000000000000000000000000000000000000000000000000000000007bffffffffffffffffffffffffffffffffffffffffffffffffffffffff1916827bffffffffffffffffffffffffffffffffffffffffffffffffffffffff1916145b80610444575061044382610fe3565b5b9050919050565b600a602052816000526040600020602052806000526040600020600091509150508054610477906122bb565b80601f01602080910402602001604051908101604052809291908181526020018280546104a3906122bb565b80156104f05780601f106104c5576101008083540402835291602001916104f0565b820191906000526020600020905b8154815290600101906020018083116104d357829003601f168201915b505050505081565b606060008054610507906122bb565b80601f0160208091040260200160405190810160405280929190818152602001828054610533906122bb565b80156105805780601f1061055557610100808354040283529160200191610580565b820191906000526020600020905b81548152906001019060200180831161056357829003601f168201915b5050505050905090565b60006105958261104d565b6105d4576040517f08c379a00000000000000000000000000000000000000000000000000000000081526004016105cb9061235f565b60405180910390fd5b6004600083815260200190815260200160002060009054906101000a900473ffffffffffffffffffffffffffffffffffffffff169050919050565b600061061a82610857565b90508073ffffffffffffffffffffffffffffffffffffffff168373ffffffffffffffffffffffffffffffffffffffff16141561068b576040517f08c379a0000000000000000000000000000000000000000000000000000000008152600401610682906123f1565b60405180910390fd5b8073ffffffffffffffffffffffffffffffffffffffff166106aa6110b9565b73ffffffffffffffffffffffffffffffffffffffff1614806106d957506106d8816106d36110b9565b610d88565b5b610718576040517f08c379a000000000000000000000000000000000000000000000000000000000815260040161070f90612483565b60405180910390fd5b61072283836110c1565b505050565b6107386107326110b9565b8261117a565b610777576040517f08c379a000000000000000000000000000000000000000000000000000000000815260040161076e90612515565b60405180910390fd5b610782838383611258565b505050565b60606007828154811061079d5761079c612535565b5b9060005260206000200180546107b2906122bb565b80601f01602080910402602001604051908101604052809291908181526020018280546107de906122bb565b801561082b5780601f106108005761010080835404028352916020019161082b565b820191906000526020600020905b81548152906001019060200180831161080e57829003601f168201915b50505050509050919050565b61085283838360405180602001604052806000815250610bd4565b505050565b6000806002600084815260200190815260200160002060009054906101000a900473ffffffffffffffffffffffffffffffffffffffff169050600073ffffffffffffffffffffffffffffffffffffffff168173ffffffffffffffffffffffffffffffffffffffff161415610900576040517f08c379a00000000000000000000000000000000000000000000000000000000081526004016108f7906125d6565b60405180910390fd5b80915050919050565b60008073ffffffffffffffffffffffffffffffffffffffff168273ffffffffffffffffffffffffffffffffffffffff16141561097a576040517f08c379a000000000000000000000000000000000000000000000000000000000815260040161097190612668565b60405180910390fd5b600360008373ffffffffffffffffffffffffffffffffffffffff1673ffffffffffffffffffffffffffffffffffffffff168152602001908152602001600020549050919050565b6060600180546109d0906122bb565b80601f01602080910402602001604051908101604052809291908181526020018280546109fc906122bb565b8015610a495780601f10610a1e57610100808354040283529160200191610a49565b820191906000526020600020905b815481529060010190602001808311610a2c57829003601f168201915b5050505050905090565b610a5b6110b9565b73ffffffffffffffffffffffffffffffffffffffff168273ffffffffffffffffffffffffffffffffffffffff161415610ac9576040517f08c379a0000000000000000000000000000000000000000000000000000000008152600401610ac0906126d4565b60405180910390fd5b8060056000610ad66110b9565b73ffffffffffffffffffffffffffffffffffffffff1673ffffffffffffffffffffffffffffffffffffffff16815260200190815260200160002060008473ffffffffffffffffffffffffffffffffffffffff1673ffffffffffffffffffffffffffffffffffffffff16815260200190815260200160002060006101000a81548160ff0219169083151502179055508173ffffffffffffffffffffffffffffffffffffffff16610b836110b9565b73ffffffffffffffffffffffffffffffffffffffff167f17307eab39ab6107e8899845ad3d59bd9653f200f220920489ca2b5937696c3183604051610bc89190611d7d565b60405180910390a35050565b610be5610bdf6110b9565b8361117a565b610c24576040517f08c379a0000000000000000000000000000000000000000000000000000000008152600401610c1b90612515565b60405180910390fd5b610c30848484846114b4565b50505050565b6060610c418261104d565b610c80576040517f08c379a0000000000000000000000000000000000000000000000000000000008152600401610c7790612766565b60405180910390fd5b6000600660008481526020019081526020016000208054610ca0906122bb565b80601f0160208091040260200160405190810160405280929190818152602001828054610ccc906122bb565b8015610d195780601f10610cee57610100808354040283529160200191610d19565b820191906000526020600020905b815481529060010190602001808311610cfc57829003601f168201915b505050505090506000610d2a611510565b9050600081511415610d40578192505050610d83565b600082511115610d75578082604051602001610d5d9291906127c2565b60405160208183030381529060405292505050610d83565b610d7e84611527565b925050505b919050565b6000600560008473ffffffffffffffffffffffffffffffffffffffff1673ffffffffffffffffffffffffffffffffffffffff16815260200190815260200160002060008373ffffffffffffffffffffffffffffffffffffffff1673ffffffffffffffffffffffffffffffffffffffff16815260200190815260200160002060009054906101000a900460ff16905092915050565b600060095490506001600954610e329190612815565b600981905550610e4283826115ce565b610ef28160078481548110610e5a57610e59612535565b5b906000526020600020018054610e6f906122bb565b80601f0160208091040260200160405190810160405280929190818152602001828054610e9b906122bb565b8015610ee85780601f10610ebd57610100808354040283529160200191610ee8565b820191906000526020600020905b815481529060010190602001808311610ecb57829003601f168201915b50505050506115ec565b60078281548110610f0657610f05612535565b5b90600052602060002001600a60008573ffffffffffffffffffffffffffffffffffffffff1673ffffffffffffffffffffffffffffffffffffffff1681526020019081526020016000206000838152602001908152602001600020908054610f6c906122bb565b610f77929190611b99565b50808373ffffffffffffffffffffffffffffffffffffffff163073ffffffffffffffffffffffffffffffffffffffff167f2a7675ddd5b080d9631128ddab32c7b13969b44c26262d8cdf4e9db74b493e9985604051610fd6919061200d565b60405180910390a4505050565b60007f01ffc9a7000000000000000000000000000000000000000000000000000000007bffffffffffffffffffffffffffffffffffffffffffffffffffffffff1916827bffffffffffffffffffffffffffffffffffffffffffffffffffffffff1916149050919050565b60008073ffffffffffffffffffffffffffffffffffffffff166002600084815260200190815260200160002060009054906101000a900473ffffffffffffffffffffffffffffffffffffffff1673ffffffffffffffffffffffffffffffffffffffff1614159050919050565b600033905090565b816004600083815260200190815260200160002060006101000a81548173ffffffffffffffffffffffffffffffffffffffff021916908373ffffffffffffffffffffffffffffffffffffffff160217905550808273ffffffffffffffffffffffffffffffffffffffff1661113483610857565b73ffffffffffffffffffffffffffffffffffffffff167f8c5be1e5ebec7d5bd14f71427d1e84f3dd0314c0f7b2291e5b200ac8c7c3b92560405160405180910390a45050565b60006111858261104d565b6111c4576040517f08c379a00000000000000000000000000000000000000000000000000000000081526004016111bb906128dd565b60405180910390fd5b60006111cf83610857565b90508073ffffffffffffffffffffffffffffffffffffffff168473ffffffffffffffffffffffffffffffffffffffff16148061123e57508373ffffffffffffffffffffffffffffffffffffffff166112268461058a565b73ffffffffffffffffffffffffffffffffffffffff16145b8061124f575061124e8185610d88565b5b91505092915050565b8273ffffffffffffffffffffffffffffffffffffffff1661127882610857565b73ffffffffffffffffffffffffffffffffffffffff16146112ce576040517f08c379a00000000000000000000000000000000000000000000000000000000081526004016112c59061296f565b60405180910390fd5b600073ffffffffffffffffffffffffffffffffffffffff168273ffffffffffffffffffffffffffffffffffffffff16141561133e576040517f08c379a000000000000000000000000000000000000000000000000000000000815260040161133590612a01565b60405180910390fd5b611349838383611660565b6113546000826110c1565b6001600360008573ffffffffffffffffffffffffffffffffffffffff1673ffffffffffffffffffffffffffffffffffffffff16815260200190815260200160002060008282546113a49190612a21565b925050819055506001600360008473ffffffffffffffffffffffffffffffffffffffff1673ffffffffffffffffffffffffffffffffffffffff16815260200190815260200160002060008282546113fb9190612815565b92505081905550816002600083815260200190815260200160002060006101000a81548173ffffffffffffffffffffffffffffffffffffffff021916908373ffffffffffffffffffffffffffffffffffffffff160217905550808273ffffffffffffffffffffffffffffffffffffffff168473ffffffffffffffffffffffffffffffffffffffff167fddf252ad1be2c89b69c2b068fc378daa952ba7f163c4a11628f55a4df523b3ef60405160405180910390a4505050565b6114bf848484611258565b6114cb84848484611665565b61150a576040517f08c379a000000000000000000000000000000000000000000000000000000000815260040161150190612ac7565b60405180910390fd5b50505050565b606060405180602001604052806000815250905090565b60606115328261104d565b611571576040517f08c379a000000000000000000000000000000000000000000000000000000000815260040161156890612b59565b60405180910390fd5b600061157b611510565b9050600081511161159b57604051806020016040528060008152506115c6565b806115a5846117fc565b6040516020016115b69291906127c2565b6040516020818303038152906040525b915050919050565b6115e882826040518060200160405280600081525061195d565b5050565b6115f58261104d565b611634576040517f08c379a000000000000000000000000000000000000000000000000000000000815260040161162b90612beb565b60405180910390fd5b8060066000848152602001908152602001600020908051906020019061165b929190611c26565b505050565b505050565b60006116868473ffffffffffffffffffffffffffffffffffffffff166119b8565b156117ef578373ffffffffffffffffffffffffffffffffffffffff1663150b7a026116af6110b9565b8786866040518563ffffffff1660e01b81526004016116d19493929190612c60565b602060405180830381600087803b1580156116eb57600080fd5b505af192505050801561171c57506040513d601f19601f820116820180604052508101906117199190612cc1565b60015b61179f573d806000811461174c576040519150601f19603f3d011682016040523d82523d6000602084013e611751565b606091505b50600081511415611797576040517f08c379a000000000000000000000000000000000000000000000000000000000815260040161178e90612ac7565b60405180910390fd5b805181602001fd5b63150b7a0260e01b7bffffffffffffffffffffffffffffffffffffffffffffffffffffffff1916817bffffffffffffffffffffffffffffffffffffffffffffffffffffffff1916149150506117f4565b600190505b949350505050565b60606000821415611844576040518060400160405280600181526020017f30000000000000000000000000000000000000000000000000000000000000008152509050611958565b600082905060005b6000821461187657808061185f90612cee565b915050600a8261186f9190612d66565b915061184c565b60008167ffffffffffffffff8111156118925761189161209e565b5b6040519080825280601f01601f1916602001820160405280156118c45781602001600182028036833780820191505090505b5090505b60008514611951576001826118dd9190612a21565b9150600a856118ec9190612d97565b60306118f89190612815565b60f81b81838151811061190e5761190d612535565b5b60200101907effffffffffffffffffffffffffffffffffffffffffffffffffffffffffffff1916908160001a905350600a8561194a9190612d66565b94506118c8565b8093505050505b919050565b61196783836119cb565b6119746000848484611665565b6119b3576040517f08c379a00000000000000000000000000000000000000000000000000000000081526004016119aa90612ac7565b60405180910390fd5b505050565b600080823b905060008111915050919050565b600073ffffffffffffffffffffffffffffffffffffffff168273ffffffffffffffffffffffffffffffffffffffff161415611a3b576040517f08c379a0000000000000000000000000000000000000000000000000000000008152600401611a3290612e14565b60405180910390fd5b611a448161104d565b15611a84576040517f08c379a0000000000000000000000000000000000000000000000000000000008152600401611a7b90612e80565b60405180910390fd5b611a9060008383611660565b6001600360008473ffffffffffffffffffffffffffffffffffffffff1673ffffffffffffffffffffffffffffffffffffffff1681526020019081526020016000206000828254611ae09190612815565b92505081905550816002600083815260200190815260200160002060006101000a81548173ffffffffffffffffffffffffffffffffffffffff021916908373ffffffffffffffffffffffffffffffffffffffff160217905550808273ffffffffffffffffffffffffffffffffffffffff16600073ffffffffffffffffffffffffffffffffffffffff167fddf252ad1be2c89b69c2b068fc378daa952ba7f163c4a11628f55a4df523b3ef60405160405180910390a45050565b828054611ba5906122bb565b90600052602060002090601f016020900481019282611bc75760008555611c15565b82601f10611bd85780548555611c15565b82800160010185558215611c1557600052602060002091601f016020900482015b82811115611c14578254825591600101919060010190611bf9565b5b509050611c229190611cac565b5090565b828054611c32906122bb565b90600052602060002090601f016020900481019282611c545760008555611c9b565b82601f10611c6d57805160ff1916838001178555611c9b565b82800160010185558215611c9b579182015b82811115611c9a578251825591602001919060010190611c7f565b5b509050611ca89190611cac565b5090565b5b80821115611cc5576000816000905550600101611cad565b5090565b6000604051905090565b600080fd5b600080fd5b60007fffffffff0000000000000000000000000000000000000000000000000000000082169050919050565b611d1281611cdd565b8114611d1d57600080fd5b50565b600081359050611d2f81611d09565b92915050565b600060208284031215611d4b57611d4a611cd3565b5b6000611d5984828501611d20565b91505092915050565b60008115159050919050565b611d7781611d62565b82525050565b6000602082019050611d926000830184611d6e565b92915050565b600073ffffffffffffffffffffffffffffffffffffffff82169050919050565b6000611dc382611d98565b9050919050565b611dd381611db8565b8114611dde57600080fd5b50565b600081359050611df081611dca565b92915050565b6000819050919050565b611e0981611df6565b8114611e1457600080fd5b50565b600081359050611e2681611e00565b92915050565b60008060408385031215611e4357611e42611cd3565b5b6000611e5185828601611de1565b9250506020611e6285828601611e17565b9150509250929050565b600081519050919050565b600082825260208201905092915050565b60005b83811015611ea6578082015181840152602081019050611e8b565b83811115611eb5576000848401525b50505050565b6000601f19601f8301169050919050565b6000611ed782611e6c565b611ee18185611e77565b9350611ef1818560208601611e88565b611efa81611ebb565b840191505092915050565b60006020820190508181036000830152611f1f8184611ecc565b905092915050565b600060208284031215611f3d57611f3c611cd3565b5b6000611f4b84828501611e17565b91505092915050565b611f5d81611db8565b82525050565b6000602082019050611f786000830184611f54565b92915050565b600080600060608486031215611f9757611f96611cd3565b5b6000611fa586828701611de1565b9350506020611fb686828701611de1565b9250506040611fc786828701611e17565b9150509250925092565b600060208284031215611fe757611fe6611cd3565b5b6000611ff584828501611de1565b91505092915050565b61200781611df6565b82525050565b60006020820190506120226000830184611ffe565b92915050565b61203181611d62565b811461203c57600080fd5b50565b60008135905061204e81612028565b92915050565b6000806040838503121561206b5761206a611cd3565b5b600061207985828601611de1565b925050602061208a8582860161203f565b9150509250929050565b600080fd5b600080fd5b7f4e487b7100000000000000000000000000000000000000000000000000000000600052604160045260246000fd5b6120d682611ebb565b810181811067ffffffffffffffff821117156120f5576120f461209e565b5b80604052505050565b6000612108611cc9565b905061211482826120cd565b919050565b600067ffffffffffffffff8211156121345761213361209e565b5b61213d82611ebb565b9050602081019050919050565b82818337600083830152505050565b600061216c61216784612119565b6120fe565b90508281526020810184848401111561218857612187612099565b5b61219384828561214a565b509392505050565b600082601f8301126121b0576121af612094565b5b81356121c0848260208601612159565b91505092915050565b600080600080608085870312156121e3576121e2611cd3565b5b60006121f187828801611de1565b945050602061220287828801611de1565b935050604061221387828801611e17565b925050606085013567ffffffffffffffff81111561223457612233611cd8565b5b6122408782880161219b565b91505092959194509250565b6000806040838503121561226357612262611cd3565b5b600061227185828601611de1565b925050602061228285828601611de1565b9150509250929050565b7f4e487b7100000000000000000000000000000000000000000000000000000000600052602260045260246000fd5b600060028204905060018216806122d357607f821691505b602082108114156122e7576122e661228c565b5b50919050565b7f4552433732313a20617070726f76656420717565727920666f72206e6f6e657860008201527f697374656e7420746f6b656e0000000000000000000000000000000000000000602082015250565b6000612349602c83611e77565b9150612354826122ed565b604082019050919050565b600060208201905081810360008301526123788161233c565b9050919050565b7f4552433732313a20617070726f76616c20746f2063757272656e74206f776e6560008201527f7200000000000000000000000000000000000000000000000000000000000000602082015250565b60006123db602183611e77565b91506123e68261237f565b604082019050919050565b6000602082019050818103600083015261240a816123ce565b9050919050565b7f4552433732313a20617070726f76652063616c6c6572206973206e6f74206f7760008201527f6e6572206e6f7220617070726f76656420666f7220616c6c0000000000000000602082015250565b600061246d603883611e77565b915061247882612411565b604082019050919050565b6000602082019050818103600083015261249c81612460565b9050919050565b7f4552433732313a207472616e736665722063616c6c6572206973206e6f74206f60008201527f776e6572206e6f7220617070726f766564000000000000000000000000000000602082015250565b60006124ff603183611e77565b915061250a826124a3565b604082019050919050565b6000602082019050818103600083015261252e816124f2565b9050919050565b7f4e487b7100000000000000000000000000000000000000000000000000000000600052603260045260246000fd5b7f4552433732313a206f776e657220717565727920666f72206e6f6e657869737460008201527f656e7420746f6b656e0000000000000000000000000000000000000000000000602082015250565b60006125c0602983611e77565b91506125cb82612564565b604082019050919050565b600060208201905081810360008301526125ef816125b3565b9050919050565b7f4552433732313a2062616c616e636520717565727920666f7220746865207a6560008201527f726f206164647265737300000000000000000000000000000000000000000000602082015250565b6000612652602a83611e77565b915061265d826125f6565b604082019050919050565b6000602082019050818103600083015261268181612645565b9050919050565b7f4552433732313a20617070726f766520746f2063616c6c657200000000000000600082015250565b60006126be601983611e77565b91506126c982612688565b602082019050919050565b600060208201905081810360008301526126ed816126b1565b9050919050565b7f45524337323155524953746f726167653a2055524920717565727920666f722060008201527f6e6f6e6578697374656e7420746f6b656e000000000000000000000000000000602082015250565b6000612750603183611e77565b915061275b826126f4565b604082019050919050565b6000602082019050818103600083015261277f81612743565b9050919050565b600081905092915050565b600061279c82611e6c565b6127a68185612786565b93506127b6818560208601611e88565b80840191505092915050565b60006127ce8285612791565b91506127da8284612791565b91508190509392505050565b7f4e487b7100000000000000000000000000000000000000000000000000000000600052601160045260246000fd5b600061282082611df6565b915061282b83611df6565b9250827fffffffffffffffffffffffffffffffffffffffffffffffffffffffffffffffff038211156128605761285f6127e6565b5b828201905092915050565b7f4552433732313a206f70657261746f7220717565727920666f72206e6f6e657860008201527f697374656e7420746f6b656e0000000000000000000000000000000000000000602082015250565b60006128c7602c83611e77565b91506128d28261286b565b604082019050919050565b600060208201905081810360008301526128f6816128ba565b9050919050565b7f4552433732313a207472616e73666572206f6620746f6b656e2074686174206960008201527f73206e6f74206f776e0000000000000000000000000000000000000000000000602082015250565b6000612959602983611e77565b9150612964826128fd565b604082019050919050565b600060208201905081810360008301526129888161294c565b9050919050565b7f4552433732313a207472616e7366657220746f20746865207a65726f2061646460008201527f7265737300000000000000000000000000000000000000000000000000000000602082015250565b60006129eb602483611e77565b91506129f68261298f565b604082019050919050565b60006020820190508181036000830152612a1a816129de565b9050919050565b6000612a2c82611df6565b9150612a3783611df6565b925082821015612a4a57612a496127e6565b5b828203905092915050565b7f4552433732313a207472616e7366657220746f206e6f6e20455243373231526560008201527f63656976657220696d706c656d656e7465720000000000000000000000000000602082015250565b6000612ab1603283611e77565b9150612abc82612a55565b604082019050919050565b60006020820190508181036000830152612ae081612aa4565b9050919050565b7f4552433732314d657461646174613a2055524920717565727920666f72206e6f60008201527f6e6578697374656e7420746f6b656e0000000000000000000000000000000000602082015250565b6000612b43602f83611e77565b9150612b4e82612ae7565b604082019050919050565b60006020820190508181036000830152612b7281612b36565b9050919050565b7f45524337323155524953746f726167653a2055524920736574206f66206e6f6e60008201527f6578697374656e7420746f6b656e000000000000000000000000000000000000602082015250565b6000612bd5602e83611e77565b9150612be082612b79565b604082019050919050565b60006020820190508181036000830152612c0481612bc8565b9050919050565b600081519050919050565b600082825260208201905092915050565b6000612c3282612c0b565b612c3c8185612c16565b9350612c4c818560208601611e88565b612c5581611ebb565b840191505092915050565b6000608082019050612c756000830187611f54565b612c826020830186611f54565b612c8f6040830185611ffe565b8181036060830152612ca18184612c27565b905095945050505050565b600081519050612cbb81611d09565b92915050565b600060208284031215612cd757612cd6611cd3565b5b6000612ce584828501612cac565b91505092915050565b6000612cf982611df6565b91507fffffffffffffffffffffffffffffffffffffffffffffffffffffffffffffffff821415612d2c57612d2b6127e6565b5b600182019050919050565b7f4e487b7100000000000000000000000000000000000000000000000000000000600052601260045260246000fd5b6000612d7182611df6565b9150612d7c83611df6565b925082612d8c57612d8b612d37565b5b828204905092915050565b6000612da282611df6565b9150612dad83611df6565b925082612dbd57612dbc612d37565b5b828206905092915050565b7f4552433732313a206d696e7420746f20746865207a65726f2061646472657373600082015250565b6000612dfe602083611e77565b9150612e0982612dc8565b602082019050919050565b60006020820190508181036000830152612e2d81612df1565b9050919050565b7f4552433732313a20746f6b656e20616c7265616479206d696e74656400000000600082015250565b6000612e6a601c83611e77565b9150612e7582612e34565b602082019050919050565b60006020820190508181036000830152612e9981612e5d565b905091905056fea2646970667358221220a7b3a4c156d17067ef1b8b6c66b372f90d694a5420b46eaebf69a33ba223af8e64736f6c63430008080033",
  "devdoc": {
    "kind": "dev",
    "methods": {
      "approve(address,uint256)": {
        "details": "See {IERC721-approve}."
      },
      "balanceOf(address)": {
        "details": "See {IERC721-balanceOf}."
      },
      "getApproved(uint256)": {
        "details": "See {IERC721-getApproved}."
      },
      "isApprovedForAll(address,address)": {
        "details": "See {IERC721-isApprovedForAll}."
      },
      "name()": {
        "details": "See {IERC721Metadata-name}."
      },
      "ownerOf(uint256)": {
        "details": "See {IERC721-ownerOf}."
      },
      "safeTransferFrom(address,address,uint256)": {
        "details": "See {IERC721-safeTransferFrom}."
      },
      "safeTransferFrom(address,address,uint256,bytes)": {
        "details": "See {IERC721-safeTransferFrom}."
      },
      "setApprovalForAll(address,bool)": {
        "details": "See {IERC721-setApprovalForAll}."
      },
      "supportsInterface(bytes4)": {
        "details": "See {IERC165-supportsInterface}."
      },
      "symbol()": {
        "details": "See {IERC721Metadata-symbol}."
      },
      "tokenURI(uint256)": {
        "details": "See {IERC721Metadata-tokenURI}."
      },
      "transferFrom(address,address,uint256)": {
        "details": "See {IERC721-transferFrom}."
      }
    },
    "version": 1
  },
  "userdoc": {
    "kind": "user",
    "methods": {},
    "version": 1
  },
  "storageLayout": {
    "storage": [
      {
        "astId": 1241,
        "contract": "contracts/RankNft.sol:RankNftCoC",
        "label": "_name",
        "offset": 0,
        "slot": "0",
        "type": "t_string_storage"
      },
      {
        "astId": 1243,
        "contract": "contracts/RankNft.sol:RankNftCoC",
        "label": "_symbol",
        "offset": 0,
        "slot": "1",
        "type": "t_string_storage"
      },
      {
        "astId": 1247,
        "contract": "contracts/RankNft.sol:RankNftCoC",
        "label": "_owners",
        "offset": 0,
        "slot": "2",
        "type": "t_mapping(t_uint256,t_address)"
      },
      {
        "astId": 1251,
        "contract": "contracts/RankNft.sol:RankNftCoC",
        "label": "_balances",
        "offset": 0,
        "slot": "3",
        "type": "t_mapping(t_address,t_uint256)"
      },
      {
        "astId": 1255,
        "contract": "contracts/RankNft.sol:RankNftCoC",
        "label": "_tokenApprovals",
        "offset": 0,
        "slot": "4",
        "type": "t_mapping(t_uint256,t_address)"
      },
      {
        "astId": 1261,
        "contract": "contracts/RankNft.sol:RankNftCoC",
        "label": "_operatorApprovals",
        "offset": 0,
        "slot": "5",
        "type": "t_mapping(t_address,t_mapping(t_address,t_bool))"
      },
      {
        "astId": 2178,
        "contract": "contracts/RankNft.sol:RankNftCoC",
        "label": "_tokenURIs",
        "offset": 0,
        "slot": "6",
        "type": "t_mapping(t_uint256,t_string_storage)"
      },
      {
        "astId": 3460,
        "contract": "contracts/RankNft.sol:RankNftCoC",
        "label": "s_rankUris",
        "offset": 0,
        "slot": "7",
        "type": "t_array(t_string_storage)dyn_storage"
      },
      {
        "astId": 3463,
        "contract": "contracts/RankNft.sol:RankNftCoC",
        "label": "s_initialized",
        "offset": 0,
        "slot": "8",
        "type": "t_bool"
      },
      {
        "astId": 3465,
        "contract": "contracts/RankNft.sol:RankNftCoC",
        "label": "s_tokenCounter",
        "offset": 0,
        "slot": "9",
        "type": "t_uint256"
      },
      {
        "astId": 3481,
        "contract": "contracts/RankNft.sol:RankNftCoC",
        "label": "s_addressToTokenURI",
        "offset": 0,
        "slot": "10",
        "type": "t_mapping(t_address,t_mapping(t_uint256,t_string_storage))"
      }
    ],
    "types": {
      "t_address": {
        "encoding": "inplace",
        "label": "address",
        "numberOfBytes": "20"
      },
      "t_array(t_string_storage)dyn_storage": {
        "base": "t_string_storage",
        "encoding": "dynamic_array",
        "label": "string[]",
        "numberOfBytes": "32"
      },
      "t_bool": {
        "encoding": "inplace",
        "label": "bool",
        "numberOfBytes": "1"
      },
      "t_mapping(t_address,t_bool)": {
        "encoding": "mapping",
        "key": "t_address",
        "label": "mapping(address => bool)",
        "numberOfBytes": "32",
        "value": "t_bool"
      },
      "t_mapping(t_address,t_mapping(t_address,t_bool))": {
        "encoding": "mapping",
        "key": "t_address",
        "label": "mapping(address => mapping(address => bool))",
        "numberOfBytes": "32",
        "value": "t_mapping(t_address,t_bool)"
      },
      "t_mapping(t_address,t_mapping(t_uint256,t_string_storage))": {
        "encoding": "mapping",
        "key": "t_address",
        "label": "mapping(address => mapping(uint256 => string))",
        "numberOfBytes": "32",
        "value": "t_mapping(t_uint256,t_string_storage)"
      },
      "t_mapping(t_address,t_uint256)": {
        "encoding": "mapping",
        "key": "t_address",
        "label": "mapping(address => uint256)",
        "numberOfBytes": "32",
        "value": "t_uint256"
      },
      "t_mapping(t_uint256,t_address)": {
        "encoding": "mapping",
        "key": "t_uint256",
        "label": "mapping(uint256 => address)",
        "numberOfBytes": "32",
        "value": "t_address"
      },
      "t_mapping(t_uint256,t_string_storage)": {
        "encoding": "mapping",
        "key": "t_uint256",
        "label": "mapping(uint256 => string)",
        "numberOfBytes": "32",
        "value": "t_string_storage"
      },
      "t_string_storage": {
        "encoding": "bytes",
        "label": "string",
        "numberOfBytes": "32"
      },
      "t_uint256": {
        "encoding": "inplace",
        "label": "uint256",
        "numberOfBytes": "32"
      }
    }
  }
}